:020000040800F2
:10000000B0D0002051020008912D0008FD29000801
:10001000152C0008C30F00083993000800000000E9
:10002000000000000000000000000000398300080C
:10003000612400080000000043080008198C000833
:100040006B0200086B0200086B0200086B020008DC
:100050006B0200086B0200086B0200086B020008CC
:100060006B0200086B0200086B0200086B020008BC
:100070006B0200086B0200086B020008111E0008EA
:100080006B0200086B0200086B0200086B0200089C
:10009000C51000086B0200086B0200086B02000824
:1000A0006B0200086B0200086B0200086B0200087C
:1000B0006B0200086B0200086B0200086B0200086C
:1000C0006B0200086B0200086B0200086B0200085C
:1000D0006B0200086B020008FD8E00080D900008FE
:1000E0006B0200086B0200086B0200086B0200083C
:1000F0006B0200086B0200086B0200086B0200082C
:100100006B0200086B0200086B0200086B0200081B
:10011000058D00086B0200086B0200086B020008E6
:10012000491E00086B0200086B0200086B02000801
:100130006B0200086B0200086B0200086B020008EB
:10014000591300086B0200086B0200086B020008DC
:100150006B0200086B0200086B0200086B020008CB
:100160006B0200086B0200086B0200086B020008BB
:100170006B0200086B0200086B0200086B020008AB
:100180006B0200086B02000800F002F800F051F862
:100190000AA090E8000C82448344AAF10107DA45E2
:1001A00001D100F046F8AFF2090EBAE80F0013F0E3
:1001B000010F18BFFB1A43F0010318472CA80000D9
:1001C0004CA800000A4410F8014B14F00F0508BFBA
:1001D00010F8015B240908BF10F8014B6D1E05D013
:1001E00010F8013B6D1E01F8013BF9D1641E03D0EC
:1001F000641E01F8015BFBD19142E4D3704700001B
:100200000023002400250026103A28BF78C1FBD81F
:10021000520728BF30C148BF0B607047642900F007
:100220006980002070471FB50AF0BEFA1FBD10B5E7
:1002300010BD00F0B9FA1146FFF7F5FF09F0EEFE28
:1002400000F0D7FA03B4FFF7F2FF03BC09F09AFC01
:100250000948804709480047FEE7FEE7FEE7FEE75A
:10026000FEE7FEE7FEE7FEE7FEE7FEE70448054996
:10027000054A064B70470000358C000889010008CC
:10028000B0CA0020B0D00020B0CC0020B0CC0020FC
:1002900072B6704762B67047EFF3108072B670475F
:1002A00080F31088704730BF704720BF7047B0FAA6
:1002B00080F0704790FAA0F0B0FA80F0704790FAA2
:1002C000A0F07047704700000FB41CB5084B06AA99
:1002D0007B4469460090059800F027FA0446002008
:1002E000694600F035FA20461CBC5DF814FB00009E
:1002F0007D0400002DE9F0410646002410687529B0
:10030000314616A510D0AFF30080002802DA404233
:1003100013A507E031688A0701D512A502E0490755
:1003200004D511A5012401E0AFF3008000210A22C9
:1003300006F1240709E0B0FBF2FCB0FBF2F302FB8C
:100340001C00303078541846491C0028F3D123464D
:100350002A463046BDE8F04100F088B900000000B0
:100360002D0000002B000000200000002DE9F05FB0
:10037000894604464FF0000ADFF874B1FB44C0F828
:1003800020A02046E1688847002874D0252806D0A0
:10039000D4E901219047206A401C2062F1E7002641
:1003A0005F462046E16888472028054607DB312D57
:1003B00005D2781910F8200C08B10643F1E7B00710
:1003C00001D526F00406C4F81CA00027C4F818A024
:1003D0002A2D09D0284609F0CEFB38B304EB870854
:1003E000303DC8F8185019E059F8041B204604EBBA
:1003F00087029161E1688847012F054618D1E069BD
:10040000002820DA26F020061DE0D8F8180000EBBE
:10041000800005EB40003038C8F818002046E1683D
:100420008847054609F0A7FB0028EED1012F0AD026
:100430002E2D08D12046E16888477F1C0546022FF3
:1004400046F02006C4DBA069002803DA404246F0EB
:100450000106A061F00701D026F010066C2D0BD02C
:10046000682D09D04C2D39D06A2D35D0742D35D05A
:100470007A2D33D016E038E0E1682F4620468847D1
:10048000B842054609D16C2F26D04FF48060E16850
:10049000064320468847054604E06C2F1AD04FF4E7
:1004A000807006430DB3A5F14100192802D820350C
:1004B00046F400664A462946204626604E46FFF727
:1004C000ADFE80B101280BD0F61D26F0070000F12B
:1004D000080956E74020E4E78020D8E70020D6E767
:1004E00006F104094DE7284652E7206ABDE8F09F6F
:1004F00054A6000010B5431C02E010F8011B71B1B6
:100500008107FAD14FF0013202C88C1A8C4314EAE9
:10051000C211F9D0C01A0A0603D0C01E10BDC01AFD
:1005200010BD0A0401D0801E10BD0902FCD0401E7F
:1005300010BD032A40F2308010F0030C00F015804B
:1005400011F8013BBCF1020F624498BF11F801CBD6
:1005500000F8013B38BF11F8013BA2F1040298BF3B
:1005600000F801CB38BF00F8013B11F0030300F0A5
:100570002580083AC0F0088051F8043B083A51F849
:1005800004CBA0E80810F5E7121D5CBF51F8043B4E
:1005900040F8043BAFF30080D20724BF11F8013BC1
:1005A00011F801CB48BF11F8012B24BF00F8013B23
:1005B00000F801CB48BF00F8012B704710B5203A76
:1005C000C0F00B80B1E81850203AA0E81850B1E80C
:1005D0001850A0E81850BFF4F5AF5FEA027C24BFC2
:1005E000B1E81850A0E8185044BF18C918C0BDE8B9
:1005F00010405FEA827C24BF51F8043B40F8043B82
:1006000008BF7047D20728BF31F8023B48BF11F836
:10061000012B28BF20F8023B48BF00F8012B704790
:100620004FF000020429C0F0128010F0030C00F01B
:100630009680CCF1040CBCF1020F18BF00F8012B1E
:10064000A8BF20F8022BA1EB0C0100F088B85FEAEC
:10065000C17C24BF00F8012B00F8012B48BF00F833
:10066000012B704770477047704770472DE9F0477E
:100670000D4699469246044600F124080168880612
:1006800004D5E06921F01001216000E00120A842BA
:1006900001DD471B00E00027A1697A1902EB090080
:1006A000081AA0612078C00602D42046AFF300806B
:1006B000002608E0D4E901211AF806009047206AD4
:1006C000401C761C20624E45F4DB2078C0060AD51B
:1006D0002046AFF3008006E0D4E9012130209047A6
:1006E000206A401C2062381EA7F10107F4DC07E0F5
:1006F000D4E9012118F805009047206A401C2062C7
:10070000281EA5F10105F3DC2046AFF30080207818
:10071000000602D50220BDE8F0870120FBE70000BB
:1007200001694A1C02610878704700B58FB0CDE9B5
:1007300001310021059105497944CDE903101146A5
:100740006846FFF713FE0FB000BD0000E5FFFFFF96
:100750000A6802F8010B0A6070474FF0000200B50A
:10076000134694469646203922BFA0E80C50A0E8D4
:100770000C50B1F12001BFF4F7AF090728BFA0E882
:100780000C5048BF0CC05DF804EB890028BF40F84E
:10079000042B08BF704748BF20F8022B11F0804F90
:1007A00018BF00F8012B7047754600F02BF8AE46D5
:1007B00005006946534620F00700854618B020B56D
:1007C000FFF754FDBDE820404FF000064FF0000752
:1007D0004FF000084FF0000B21F00701AC46ACE8E9
:1007E000C009ACE8C009ACE8C009ACE8C0098D4656
:1007F000704710B50446AFF300802046BDE81040B6
:10080000FFF720BD004870474CCA002022484FF631
:10081000FF710170002080F309882048016881F38E
:1008200008881F484FF08051016062B6FEE71C48FF
:100830004FF080510160704719484FF080510160BE
:10084000704772B6EFF3098050B11EF0100F08BF69
:1008500020ED108A203880E8F00F124909680860FE
:1008600000B5114880475DF804EB104810490A783C
:1008700002700C480F490A680260106890E8F00F97
:1008800020301EF0100F08BFB0EC108A80F30988EA
:100890004EF0040E62B6704722ED00E0E001002049
:1008A00004ED00E0D801002011420008660100209C
:1008B00067010020DC01002000B58DB0012104207B
:1008C00007F08CF80121080207F0B8F80E200B9011
:1008D00003208DF8300000208DF833000BA920484C
:1008E00001F054FF002007900A9009904FF48030E7
:1008F000089007A800F044F80020019001208DF82E
:1009000008008DF8090000200390059003208DF861
:10091000180001A9134800F061F8072301220B21F8
:10092000104800F085F8072302220C210D4800F042
:100930007FF8072303220D210A4800F079F80121EE
:10094000084800F040F80121064800F031F8012184
:10095000044800F009F8034800F0C6F80DB000BDE7
:10096000000802400020014021B1826842F00102EB
:10097000826003E0826822F001028260704700001A
:100980000021084A1168084A1140D0E900231A439F
:1009900083681A43C3681A431143044AC2F8041314
:1009A0007047000004230140E030FCFF00200140BC
:1009B00021B1826842F48072826003E0826822F48E
:1009C00080728260704721B1826842F40072826056
:1009D00003E0826822F400728260704730B50246FC
:1009E000002000235068104C20400D790C6844EA28
:1009F00005242043506090680C4C2040D1E90354FA
:100A00002C438D682C434D7944EA45042043906083
:100A1000D06A20F470000C7D641EE4B2234340EAE7
:100A20000350D06230BD0000FFFEFFFCFDF7FFC0A9
:100A3000F0B504460D4600200021092D11DDE068C7
:100A4000A5F10A0606EB4607072606FA07F18843D2
:100A5000A5F10A0606EB460603FA06F10843E06034
:100A60000CE0206905EB4507072606FA07F18843E5
:100A700005EB450603FA06F108432061072A0FDA61
:100A8000606B561E06EB86071F2606FA07F18843A1
:100A9000561E06EB860605FA06F10843606322E05F
:100AA0000D2A0FDA206BD61F06EB86071F2606FAE3
:100AB00007F18843D61F06EB860605FA06F10843C0
:100AC000206310E0E06AA2F10D0606EB86071F2600
:100AD00006FA07F18843A2F10D0606EB860605FA31
:100AE00006F10843E062F0BD816841F08041816019
:100AF0007047000010B501200649087000204870BA
:100B0000022200F035FC142300221146104609F0A1
:100B100095F910BDC300002010B506201B490870D0
:100B2000002048708870C87008714871062240F231
:100B3000012000F01DFC142300221146104609F08C
:100B40007DF90622114940F2022000F011FC142325
:100B500000221146104609F071F906220B4940F2B5
:100B6000032000F005FC142300221146104609F072
:100B700065F9062205494FF4017000F0F9FB1423D2
:100B800000221146104609F059F910BDC30000209B
:100B900010B507201B490870002048708870C87085
:100BA00008714871062240F2012000F0E1FB142395
:100BB00000221146104609F041F90622114940F27F
:100BC000022000F0D5FB142300221146104609F044
:100BD00035F906220B4940F2032000F0C9FB14232B
:100BE00000221146104609F029F9062205494FF462
:100BF000017000F0BDFB142300221146104609F0DD
:100C00001DF910BDC300002070B504460D46002636
:100C10007F2C00DD7F2404F500760F200849087042
:100C2000002048708D70280AC8700422304600F0F9
:100C30009FFB142300221146104609F0FFF870BDF7
:100C4000C300002010B54648C07A012801D14549AB
:100C5000C87145484078012805D14348007810B94B
:100C600001204049C8713F48007820B100203D492B
:100C700008700120C8713B48807810B101203949C3
:100C800008713848C07810B10120364908713448DD
:100C9000007B012801D133490872334800780128CC
:100CA00001D1304908722F48407820B100202D49E9
:100CB0004870012008722B48807810B9002029491B
:100CC00008712848C07810B90020264908712748C3
:100CD0000078002837D12348C07901280ED1214857
:100CE000007901280AD100201E49C87108720846FF
:100CF000407918B91E49088B09F00CF81948007A98
:100D000070B91848007901280AD11A4800780128DA
:100D100006D10020174908701549088B08F0FAFF22
:100D20001048007A012802D00E480079B0B90D4869
:100D3000007910B901200F49087000200949487155
:100D400001F0ABFF0AE00748007A012802D005480D
:100D5000007918B9002003490872887110BD00009D
:100D6000C2A300201F0000208E5D00200E00002086
:100D700094AE00201E00002010B5002001F08DFF71
:100D800001200149487010BD1F00002070B52748A0
:100D900000792649C97840EA012025490988884216
:100DA00043D124480078801E81B2204808F0F0FF2B
:100DB00004462512E6B21F480078801E1B49085CD5
:100DC000A84232D11B480078401E085CB0422CD1AA
:100DD00008468078012818D108464079012806D0B5
:100DE000022807D0032808D004280CD108E006F018
:100DF000A9FE09E006F0A8FE06E006F0C5FE03E045
:100E000006F0C4FE00E000BF0FE00848807802282A
:100E100003D101200849088007E00448807820B900
:100E2000044801780148FFF7FBFB70BDBE7E00203F
:100E300006000020B40000200800002070B53F48E4
:100E40000078801E81B23E4800F090FD0446E5B275
:100E5000260A3A480078801E3949085CA84234D1F5
:100E600036480078401E085CB0422ED108464078D3
:100E7000042817D006DC01280BD002280CD0032848
:100E80001CD10CE0052810D0062811D0102815D14F
:100E900011E006F0A9FE17E006F020FF14E006F0CE
:100EA000BBFF11E007F014F80EE007F089F80BE043
:100EB00007F0C6F808E007F00FF905E02049487888
:100EC000042108F0CBFF00BF36E01D48407804281D
:100ED0001DD006DC01280BD002280ED003282AD111
:100EE00010E0052818D006281BD0102823D11DE0BB
:100EF0000821012008F0B2FF1DE00821022008F0BF
:100F0000ADFF18E00821032008F0A8FF13E0082136
:100F1000042008F0A3FF0EE00821052008F09EFF42
:100F200009E00821062008F099FF04E008211020BC
:100F300008F094FF00BF00BF70BD0000F00000206B
:100F4000BCA700200EB500BF2DE01748008900287F
:100F500020DD16480078E8B91548407980B112497B
:100F6000D1ED091AB0EE611AD1ED081AF0EE610A5E
:100F7000D1ED071AB0EE610A088906F05DFA12E0B9
:100F800002A800210A230A46CDE90010084603F012
:100F90000FFA08E002A800210A230A46CDE9001052
:100FA000084603F005FAD0E794AE00200E000020BA
:100FB0001F0000201FB5684606F050FD019804B0E0
:100FC00010BD00BFFEE700002DE9F0418AB00446E5
:100FD0000D4616461F46DDF840800121084606F002
:100FE000FDFC0121480606F009FD4FF4C0500890B1
:100FF00002208DF8240000208DF8260003208DF8B3
:10100000250001208DF8270008A92C4801F0BEFB1F
:1010100009220B21294801F001FC09220C21274853
:1010200001F0FCFB00208DF81A008DF81B008DF8F4
:101030001C0001208DF81D0000208DF81E008DF889
:101040001F008DF816808DF817408DF818608DF808
:101050001950ADF8147005A9194800F050FA002095
:101060008DF80E008DF80F0001208DF81000002083
:10107000ADF80400ADF80600ADF80800ADF80A00C0
:10108000ADF80C0001208DF8110001A800F0AAF9BC
:10109000012202210A4800F029FA14208DF80000EC
:1010A00001208DF801008DF802008DF803006846DC
:1010B00001F0E6FE00200AB0BDE8F0810000024029
:1010C0000064004010B58CB0002407AA00215448E9
:1010D00000F09FFA0798102816D100BF05E00DF127
:1010E0002700005D4F490855641C9DF82600A0426A
:1010F000F5DC4C4800784B49497840EA01204A49E0
:1011000008800120494908700798022831D100243D
:1011100006E00DF12700005D454921F81400641C2C
:101120009DF82600A042F4DC41480088032820D026
:101130003F48008804281CD03D4800883D4908806D
:101140003B480088092803D0394800880A2803D181
:101150000020394948800CE035484088C0EB001039
:1011600040003549097848430A2190FBF1F03249A3
:1011700048800798012818D1002405E00DF12700C8
:10118000005D2E490855641C9DF82600A042F5DC40
:101190002A4801782A4803780822684601F008FAAC
:1011A0001C2269462748FFF709FA0798032818D137
:1011B000002405E00DF12700005D23490855641C5B
:1011C0009DF82600A042F5DC1F4801781C480378F2
:1011D0000822684601F0ECF91C2269461B48FFF71B
:1011E000EDF90798042818D1002405E00DF1270037
:1011F000005D17490855641C9DF82600A042F5DCE7
:10120000134801780E4803780822684601F0D0F9A7
:101210001C2269460F48FFF7D1F90CB010BD000041
:10122000006400408C810020BC000020BE00002033
:10123000DC8100200A00002094AE00209C81002068
:101240000D000020C8820020BC8100200083002007
:10125000CC8100201C8300202DE9F0418AB0044697
:101260000D4616461F46DDF840800121022006F09B
:10127000B5FB0121880606F0C1FB60200890022022
:101280008DF8240000208DF8260003208DF825001D
:1012900001208DF8270008A92D4801F077FA0922CE
:1012A00005212B4801F0BAFA09220621284801F04D
:1012B000B5FA00208DF81A008DF81B008DF81C007F
:1012C00001208DF81D0000208DF81E008DF81F00F4
:1012D0008DF816808DF817408DF818608DF819502C
:1012E000ADF8147005A91B4800F009F90E208DF81F
:1012F0000E0000208DF80F0001208DF81000002056
:10130000ADF80400ADF80600ADF80800ADF80A002D
:10131000ADF80C0001208DF8110001A800F062F872
:10132000012202210B4800F0E1F840208DF8000076
:1013300001208DF8010002208DF8020001208DF8B7
:101340000300684601F09CFD00200AB0BDE8F08172
:10135000000402400068004010B586B0002401AAD5
:101360000021024800F055F906B010BD00680040A9
:101370002DE9F04186B005468846164600240195C1
:10138000029500208DF80C008DF80D008DF80E6090
:1013900000BF06E018F804100DF10F000155601CA5
:1013A00084B2B442F6DB01A90D4800F0AAF9074661
:1013B000002401E0601C84B23946094800F034FA88
:1013C00018B940F6FF708442F4DB40F6FF708442A7
:1013D00003DB012006B0BDE8F0810020FAE7000041
:1013E0000068004010B50021837A012202FA03F15F
:1013F0003D4A126842F001023B4B1A603A4A1C32E5
:1014000012688A43384B1C331A60027BCAB9364AC9
:101410000C3212688A43344B0C331A604288C388FA
:1014200042EA0343304A4032847A42F83430028838
:10143000838842EA03432C4A4032847A02EBC40296
:101440005360027B012A19D1274A0C3212680A43E1
:10145000254B0C331A604288038842EA0343224A30
:101460004032847A42F83430C288838842EA0343A7
:101470001D4A4032847A02EBC4025360C27A3AB900
:10148000194A121D12688A43174B1B1D1A6006E089
:10149000154A121D12680A43134B1B1D1A6002895C
:1014A00032B9114A143212688A430F4B14331A604E
:1014B0000289012A06D10C4A143212680A430A4BE7
:1014C00014331A60427B012A06D1074A1C32126883
:1014D0000A43054B1C331A60034A126822F00102CA
:1014E000014B1A6010BD0000006600401AB143694C
:1014F0000B43436102E043698B434361704730B55E
:10150000024600200023146824F0020414601468CA
:1015100044F00104146000E05B1C546804F0010412
:101520001CB94FF6FF74A342F6D1546804F00104CD
:101530000CB900206CE08C79012C04D1146844F0C3
:101540008004146003E0146824F080041460CC79F3
:10155000012C04D1146844F04004146003E01468C2
:1015600024F0400414600C7A012C04D1146844F077
:101570002004146003E0146824F0200414604C7A02
:10158000012C04D1146844F01004146003E01468C2
:1015900024F0100414608C7A012C04D1146844F0F7
:1015A0000804146003E0146824F008041460CC7A82
:1015B000012C04D1146844F00404146003E014689E
:1015C00024F0040414608C78A407CD7844EA056400
:1015D0000D7944EA05444D7944EA05540D886D1EA1
:1015E0002C43D461146824F001041460002300E04B
:1015F0005B1C546804F001041CB14FF6FF74A34255
:10160000F6D1546804F001040CB1002000E0012080
:1016100030BD10B500F5D87303EB01131B6803F060
:1016200004031372137A53B900F5D87303EB011353
:101630001B6840F2FF7404EA5353136009E000F59D
:10164000D87303EB01131B686FF0604404EAD30303
:10165000536000F5D87303EB01131B6803F002031A
:10166000537200F5D87303EB01135B6803F00F03AB
:10167000937200F5D87303EB01135B681B0AD374F4
:1016800000F5D87303EB01139B68D37200F5D87390
:1016900003EB01139B681C0A147300F5D87303EB6A
:1016A00001139B681C0C547300F5D87303EB0113F2
:1016B0009B681B0E937300F5D87303EB0113DB6873
:1016C000D37300F5D87303EB0113DB681C0A1474A1
:1016D00000F5D87303EB0113DB681C0C547400F5A0
:1016E000D87303EB0113DB681B0E937421B9C36835
:1016F00043F02003C36003E0036943F02003036168
:1017000010BD10B502460020936803F08063B3F16A
:10171000806F00D110E0936803F00063B3F1006FB5
:1017200001D1012008E0936803F08053B3F1805F9A
:1017300001D1022000E00420042874D002F5C07317
:1017400003EB00131B6803F0010402F5C07303EB05
:1017500000131C600B7A7BB94B7A0C8843EA445324
:1017600002F5C07404EB00142468234302F5C0742E
:1017700004EB0014236010E00B7A4C6843EAC403C6
:101780004C7A234302F5C07404EB0014246823430D
:1017900002F5C07404EB001423608B7A03F00F038E
:1017A0008B7202F5C07303EB00135B6823F00F0428
:1017B00002F5C07303EB00135C6002F5C07303EB2A
:1017C00000135B688C7A234302F5C07404EB0014A9
:1017D00063608B7B1C064B7B44EA03440B7B44EA2F
:1017E0000323CC7A234302F5C07404EB0014A360F6
:1017F0008B7C1C064B7C44EA03440B7C44EA0323A9
:10180000CC7B234302F5C07404EB0014E36002F5C3
:10181000C07303EB00131B6843F0010402F5C073AF
:1018200003EB00131C6010BD10B50246002321B16C
:10183000012907D002290FD109E090681D4C00EA68
:1018400004030BE090681C4C00EA040306E0906877
:101850001A4C00EA040301E0002300BF00BF184C4B
:10186000181BA34216D007DC83B16FF080601844C8
:1018700070B1022818D111E0B0F5007F10D0114CE2
:10188000204448B1B0F5003F0ED10BE002230DE03B
:1018900000230BE0002309E0002307E0012305E01B
:1018A000012303E0012301E0002300BF00BFD8B201
:1018B00010BD000003000004000300080000031036
:1018C000000100080001FFF710B500F01FF800F05C
:1018D00019F810BD10B5002400BF00BFFEF7DCFCF6
:1018E000044600BF00BF1021054801F095F900BF74
:1018F00000BF2046FEF7D4FC00BF00BF10BD0000B3
:10190000CCAE002010B5FFF7E5FF10BD10B50020EC
:101910000249086000F00AF810BD00000C01002028
:1019200001490860704700000C01002010B5FFF766
:1019300041FB04460848006840F080700649086092
:101940000020064948600846006840F00100086031
:101950002046FFF7E5FF10BDFCED00E0001000E0C1
:101960000149486870470000001000E030B50246A9
:101970000B464FF6FF70002112E0555C68400024D2
:101980000AE000F0010525B140104AF20105684067
:1019900000E04010651CACB2082CF2DB4D1CA9B273
:1019A0009942EADB30BD0EB500BF08E002A8002175
:1019B0000A230A46CDE90010084602F0F9FCF5E7D3
:1019C0002DE9FE4305460E4600240027A046A14609
:1019D000012D54D13DE056488488AFB9554800895F
:1019E000554909780844A04203DA304608F0EEFA77
:1019F00026E0032001F051F9042001F04EF93046B1
:101A000008F0F8FA01271BE0B8F1000F13D149489C
:101A1000408949490978401AA04203DD304608F060
:101A2000E9FA0DE0032001F038F9042001F035F95E
:101A30004FF0010804E000F015FD4FF001090CE043
:101A400002A800210A230A46CDE90010084602F048
:101A5000AFFC3A48807C0228BDDB00BFB9F1000F23
:101A600003D000203649887002E001203449887094
:101A7000032001F012F9042001F00FF955E0022DC6
:101A800053D13DE02A488488AFB92A4800892A49C1
:101A900009780844A04203DA304608F097FA26E0B5
:101AA000042001F0FAF8032001F0F7F8304608F0BE
:101AB000A1FA01271BE0B8F1000F13D11D4840899E
:101AC0001D490978401AA04203DD304608F092FA19
:101AD0000DE0042001F0E1F8032001F0DEF84FF002
:101AE000010804E000F0BEFC4FF001090CE002A880
:101AF00000210A230A46CDE90010084602F058FCEE
:101B00001048807C0228BDDB00BFB9F1000F03D074
:101B100000200B49C87002E001200949C870042068
:101B200001F0BBF8032001F0B8F8BDE8FE83000027
:101B3000B6000020808100201D00002000830020CE
:101B4000160000201C8300202DE9FE4305460E46AA
:101B500000240027A046A146012D54D13DE056485F
:101B60004488AFB955484088554909780844A0428F
:101B700003DA304608F018FB26E0012001F08DF86A
:101B8000022001F08AF8304608F022FB01271BE012
:101B9000B8F1000F13D14948808849490978401AA3
:101BA000A04203DD304608F013FB0DE0012001F0F8
:101BB00074F8022001F071F84FF0010804E000F021
:101BC00051FC4FF001090CE002A800210A230A464B
:101BD000CDE90010084602F0EBFB3A48807C022871
:101BE000BDDB00BFB9F1000F03D0002036490870FB
:101BF00002E0012034490870012001F04EF8022073
:101C000001F04BF855E0022D53D13DE02A484488BD
:101C1000AFB92A4840882A4909780844A04203DA23
:101C2000304608F0C1FA26E0022001F036F8012023
:101C300001F033F8304608F0CBFA01271BE0B8F189
:101C4000000F13D11D4880881D490978401AA04211
:101C500003DD304608F0BCFA0DE0022001F01DF86B
:101C6000012001F01AF84FF0010804E000F0FAFB3F
:101C70004FF001090CE002A800210A230A46CDE931
:101C80000010084602F094FB1048807C0228BDDB5F
:101C900000BFB9F1000F03D000200B49487002E0EB
:101CA000012009494870022000F0F7FF012000F0F0
:101CB000F4FFBDE8FE830000B60000208081002014
:101CC0001D000020C882002016000020E4820020B1
:101CD0000EB5002500240026002700BF00F040FDBF
:101CE00001203949086000203849C1F8900238497C
:101CF000086067E03748427837A13E48FEF7E4FACB
:101D0000701C86B2B6F5966F02DD00F029FD002644
:101D10003948B0F866002F49497888420ADA781CB9
:101D2000C7B2642F06DD3548807A10B9314808F013
:101D3000D1FA00273248007858B1012031490860B3
:101D4000601CC4B2052C04D1002008602C49087026
:101D500000242D480078B8B101202A490860601C91
:101D6000C4B2022C02D1002008600DE0032C03D184
:101D700001202449086007E0042C05D100202149F6
:101D80000860002420490870681CC5B20A2D06D1DD
:101D900000200D490839086001201C494870142DA5
:101DA00007D1012008490839086000201749487008
:101DB000002502A8002132230A46CDE9001008467A
:101DC00002F0F6FA96E70000A88240420080414205
:101DD0008C824142AA000020B5E7C1BFC9D9D3DA3D
:101DE000B0D9B7D6D6AE25642CC7EBBCB0CAB1B358
:101DF000E4B5E700BE7D0020C2A4002094AE002020
:101E0000BE0000208C02404215000020C2A300202A
:101E100010B50A490A4800F01FF968B1012240F2E2
:101E20002661084807F0C4F90449054800F03EF867
:101E30000021034800F054F810BD0000208000206D
:101E400070600240004C004070B5002613491448F1
:101E500000F002F908B3012419E0002509E005EBC0
:101E60004500104901EB400030F814000644681C9E
:101E7000C5B21E2DF3DB1E20B6FBF0F01421B0FB23
:101E8000F1F0094921F814000026601CC4B2032CAB
:101E9000E3DB0249024800F009F870BD2080001021
:101EA00010640240B8800020B60000200246094BB2
:101EB0009A4201D2084801E00648103801F0005368
:101EC0001BB1064B0B40C36002E0044B0B40836028
:101ED0007047000010640240006002407D0F7D0FDB
:101EE00021B1026842F00102026003E0026822F0C0
:101EF0000102026070470000016821F001010160E9
:101F00000021016041608160C16001612121416166
:101F10004A49884204D13D21484A103A91608CE0F8
:101F200046491831884205D14FF47461434A103A4A
:101F3000916082E041493031884205D14FF47411FB
:101F40003E4A103A916078E03C494831884205D1D8
:101F50004FF07461394A103A91606EE03749603150
:101F6000884204D13649354A103AD16065E0334998
:101F70007831884204D13349304A103AD1605CE06C
:101F80002E499031884204D12F492C4A103AD16011
:101F900053E02A49A831884205D14FF03D51274AE4
:101FA000103AD16049E02949884204D13D21274AAD
:101FB000083A116041E025491831884205D14FF4B3
:101FC0007461224A083A116037E020493031884272
:101FD00005D14FF474111D4A083A11602DE01B49D8
:101FE0004831884205D14FF07461184A083A1160AF
:101FF00023E016496031884204D11149134A121F67
:1020000011601AE011497831884204D10D490F4A14
:10201000121F116011E00D499031884204D10A4924
:102020000A4A121F116008E00849A831884204D109
:102030004FF03D51054A121F116070471060024079
:102040003D000020400F002000003D2010640240B1
:102050000146486880B2704770B5024600200024EF
:102060000025124EB24201D2114B01E00F4B103B42
:10207000104E0E4036B11E2606EAD124166806EA36
:10208000040502E0566906F0800501F000560EB125
:102090005C6800E01C68084E344004EA010616B192
:1020A0000DB1012000E0002070BD0000106402406E
:1020B000006002403C0F3C0F7D0F7D0F10B501F01A
:1020C00080034BB122B1436943F08003436103E0D5
:1020D000436923F08003436180290BD02AB1036850
:1020E00001F01E042343036004E0036801F01E04B2
:1020F000A343036010BD000010B500220268134B1B
:102100001A40CC680B6823434C6923438C692343F2
:10211000CC6923430C6A23434C6A23438C6A2343D0
:102120004C6B23438C6B23431A430260426922F0B9
:102130000702D1E90B3423431A4342610B69436020
:102140004B6883608B68C36010BD00003F801CF04B
:102150004160704700B58FB00121480505F03EFC95
:1021600000213348FFF7BCFE3148FFF7C5FE4FF0B2
:10217000006000902F4801902F480290402003906B
:10218000FA200490002005904FF480600690002013
:10219000079008904FF48070099000200B90032066
:1021A0000C9000040A9000200D900E906946204883
:1021B000FFF7A2FF00211E48FFF792FE0122102127
:1021C0001B48FFF77BFF002119481838FFF788FEEE
:1021D00017481838FFF790FE4FF000600090154840
:1021E00001901648029000200390FA2004900020ED
:1021F00005904FF4806006900020079008904FF4FF
:102200008070099000200B9003200C9000040A902D
:1022100000200D900E90694605481838FFF76CFFB6
:10222000012103481838FFF75BFE0FB000BD000026
:10223000A060024004440040B87F0020BE7E002021
:1022400000B591B00121480505F0C8FB00211F48E9
:10225000FFF746FE1D48FFF74FFE4FF0006001906C
:102260001B4802901B48039000200490802005909A
:10227000002006904FF4806007900020089009909D
:102280004FF480700A9000200C9003200D90000401
:102290000B9000200E900F9001A90C48FFF72CFF27
:1022A00001210A48FFF71CFE0E208DF84000022095
:1022B0008DF8410005208DF8420001208DF8430083
:1022C00010A800F0DDFD11B000BD00002860024044
:1022D000044800403E7D002000B591B00121480532
:1022E00005F07CFB00213A48FFF7FAFD3848FFF77C
:1022F00003FE4FF00060019036480290364803908C
:1023000040200490FA200590002006904FF4806051
:1023100007900020089009904FF480700A900020E8
:102320000C9003200D9000040B9000200E900F9055
:1023300001A92748FFF7E0FE00212548FFF7D0FD5F
:10234000012210212248FFF7B9FE00212048303831
:10235000FFF7C6FD1E483038FFF7CEFD4FF0006096
:1023600001901C4802901D48039000200490FA2020
:102370000590002006904FF48060079000200890A0
:1023800009904FF480700A9000200C9003200D906B
:1023900000040B9000200E900F9001A90C483038DB
:1023A000FFF7AAFE01210A483038FFF799FD0F20F8
:1023B0008DF8400003208DF8410001208DF8420087
:1023C0008DF8430010A800F05BFD11B000BD0000C7
:1023D00070600240044C0040C2A60020BCA7002050
:1023E00000B58FB00121880505F0F8FA00211948E1
:1023F000FFF776FD1748FFF77FFD00200090164895
:10240000019016480290002003905A20049000206A
:1024100005904FF480600690400007900890C0102F
:10242000099000200B9003200C9000040A900020DB
:102430000D900E9069460748FFF75EFE01221021BD
:102440000448FFF73BFE01210248FFF749FD0FB0AA
:1024500000BD0000106402404C200140B880002004
:10246000704700001CB50020009001904A48408849
:102470004A4908800846008849490988401A00905E
:102480002DE0464800884649098888420BDD009CBB
:10249000002C01DB214600E06142424AD28A5143CE
:1024A00088B207F081FE3D4800883D49098888428E
:1024B0000BDA009C002C01DB214600E06142394A26
:1024C000D28A514388B207F083FE334840883349AB
:1024D00008800846008832490988401A0090009810
:1024E000002801DB014600E041420229C9DC01204D
:1024F00000F0D3FB022000F0D0FB2748808827495A
:102500004880084640882649C988401A01902DE035
:10251000224840882249C98888420BDD019C002C52
:1025200001DB214600E061421E4AD28A514388B253
:1025300007F04CFD194840881949C98888420BDAD0
:10254000019C002C01DB214600E06142154AD28A41
:10255000514388B207F04EFD0F4880880F494880EC
:10256000084640880E49C988401A01900198002801
:1025700001DB014600E041420229C9DC032000F0F2
:102580008CFB042000F089FB012007490870002023
:10259000064908601CBD0000B600002010000020A5
:1025A0008081002094AE0020140000208C02404264
:1025B0002DE9FF4F87B0884691469A460024D346BE
:1025C0006FEA0800C5B20026002700BF00208DF882
:1025D00000008DF811008DF8120005908DF818009C
:1025E00000240CE045FA04F000F0010028B19DF849
:1025F0001200401CC0B28DF81200601CC4B2082C3E
:10260000F0DB00240AE045FA04F000F0010010B904
:10261000701CC6B200E00824601CC4B2082CF2DBB7
:1026200000240AE005FA04F000F0800010B9781CDC
:10263000C7B200E00824601CC4B2082CF2DB3446A8
:1026400011E045FA04F000F0010050B99DF80010C7
:102650000DF1010044549DF80000401CC0B28DF8FB
:102660000000601CC4B2C7F10800A042E9DC9DF87C
:10267000000000281FDD01208DF811009DF80000EA
:10268000012818DD002411E00DF10100611C415CFE
:10269000005D081A012800D106E09DF81100401CD9
:1026A000C0B28DF8110000BF601CC4B29DF80000DC
:1026B000401EA042E8DC9DF8120018B901208DF8F8
:1026C00018003DE09DF8000000282FDD9DF8110066
:1026D000012835D1BBF1020F10D134460BE045FA89
:1026E00004F000F0010018B10120A040854300E093
:1026F0000824601CC4B2082CF1DB67E7BBF1010FB2
:1027000010D13C460BE005FA04F000F0800018B14F
:1027100080202041854300E00824601CC4B2082CBE
:10272000F1DB53E701208DF8180009E09DF8120055
:10273000484502DCB81B059002E001208DF8180026
:102740001C2269460548FDF739FF1C226946079897
:10275000FDF734FF0BB0BDE8F08F0000AC82002025
:1027600010B507220749084806F0B2FD642300228D
:102770001146104607F062FB07220249024806F0A4
:10278000A7FD10BD2A00002000480040F0B50A4611
:1027900000210023002400BF3DE0012505FA01F3DC
:1027A000156805EA03049C4234D105684F000326EE
:1027B000BE40B543056015794E00B5400668354307
:1027C00005601579012D02D01579022D16D1856885
:1027D0004F000326BE40B543856055794E00B54095
:1027E000866835438560456801268E40B54345605F
:1027F000456896798E40B6B235434560C5684F004E
:102800000326BE40B543C560D5794E00B540C668C5
:102810003543C560491C1029BFD3F0BDF0B5002376
:1028200000244D07ED0E02FA05F3CE1000F120054D
:1028300055F826504E07F70E0F26BE40B543CF1071
:1028400000F1200646F82750CE1000F1200555F87B
:10285000265045EA0304CE1000F1200545F8264035
:10286000F0BD4183704701837047000010B56522B9
:102870000021024807F064F810BD000058830020D2
:1028800070B50024344AB2F89A20344BD118324A39
:10289000B2F89A20521E324B03EB4200012207F09D
:1028A0004FF82D48B0F89A00401E2D4931F810001D
:1028B0002949A1F89C000120A1F89E000846B0F823
:1028C0009C00642804DD0020A1F89C00A1F89E0073
:1028D000002415E0204AB2F89A20521E214B4FF4F2
:1028E000FA7505FB0232052303FB042104EB840285
:1028F0001D4B03EB4200052207F022F8601C84B256
:102900001548B0F89C00A042E4DC1348B0F89E00E3
:10291000401E00EB8000144931F810000E49A1F868
:10292000A0000846B0F89E00401E00EB80000E4953
:1029300001EB400040880849A1F8A2000846B0F821
:102940009E00401E00EB8000074901EB400080889C
:102950000149A1F8A40070BDC2A4002099440F0051
:10296000D29700208E460F00BA9B002070B5054616
:10297000284600F025F80F490887002412E06A1E57
:102980004FF4FA635A4302F25922142303FB042141
:1029900004EB8402084B03EBC200142206F0D0FFC4
:1029A000601C84B2681E054931F81000A042E6DCC4
:1029B00070BD0000C2A400200A88002022840020EC
:1029C00010B5044604F16401621E0B4B03EB420098
:1029D000012206F0B5FF601E074931F81000642897
:1029E00004DD0021601E044A22F81010601E024916
:1029F00031F8100010BD00002284002000BFFEE767
:102A000010B501461B4A1268521A1A4B9A601A46B0
:102A10009268DB68D21A00EE102AB8EEC00A154A96
:102A2000D2ED050A20EE200A92ED061AD2ED020A36
:102A3000F8EEE00A01EE200A92680E4BDB680224F1
:102A400004FB13220B4B1B691A4400EE902AF8EE8C
:102A5000E00A084A92ED071A01EE200ABDEEC00A0C
:102A600010EE100AD268034B1A611A469268DA60B7
:102A700010BD0000FC81002010B501461B4A126801
:102A8000521A1A4B9A601A469268DB68D21A00EE04
:102A9000102AB8EEC00A154AD2ED050A20EE200A27
:102AA00092ED061AD2ED020AF8EEE00A01EE200AD3
:102AB00092680E4BDB68022404FB13220B4B1B694C
:102AC0001A4400EE902AF8EEE00A084A92ED071A3E
:102AD00001EE200ABDEEC00A10EE100AD268034BC8
:102AE0001A611A469268DA6010BD00001C8200204C
:102AF0001CB50121022004F071FF0121102004F017
:102B00006DFF4FF44070009001208DF8040000200C
:102B10008DF8060003208DF8050001208DF80700D0
:102B200069460F48FFF732FE4FF440710C48FFF73B
:102B30009AFE0320009001208DF8040000208DF8FB
:102B4000060003208DF8050001208DF80700694676
:102B50000448FFF71BFE03210248FFF784FE1CBD5B
:102B6000000402400010024000BF00F088F8FFF7A8
:102B700079FC43E022480078002839D02148408879
:102B8000322822DD20480088F8B12048807998B1A9
:102B900000201F4908701B49D1ED0C1AB0EE611AD4
:102BA000D1ED0B1AF0EE610AD1ED0A1AB0EE610A0E
:102BB000488804F059FD21E0002000F06EF8144828
:102BC0000078D8B9FFF74EFC18E0002000F065F857
:102BD0000F48007808B9FFF745FC0C48007918B990
:102BE00000200A49887109E001200849887105E040
:102BF000142300221146104607F020F9BAE700001E
:102C00000E00002094AE00200A0000201F000020CB
:102C10001400002000BFFEE730B505460C462246F2
:102C20000021284600F001F830BD2DE9F0410546AD
:102C30000B4694460027002402E03F021F43641C19
:102C4000042CFAD3604605F00306294646B1344603
:102C500003E001F8013B401E641C08B1042CF8D3CA
:102C60000A4601E080C2001F0428FBD2114602E0A0
:102C700001F8013B401E0028FAD1BDE8F08110B5F3
:102C8000642302220021084607F0D8F8FDF732FF3E
:102C9000FDF742FFFDF77CFF10BD10B50446002C88
:102CA00006DD052C04DA00212046FDF7ADFF10E01B
:102CB0007CB900210120FDF7A7FF00210220FDF7CC
:102CC000A3FF00210320FDF79FFF00210420FDF753
:102CD0009BFF10BD70B505460C46002604B908E000
:102CE0001448408BA04203D21248408B464200E079
:102CF0006642012D06D0022D09D0032D0CD0042DE3
:102D000014D10EE031460120FDF77EFF0FE0314681
:102D10000220FDF779FF0AE031460320FDF774FF3A
:102D200005E031460420FDF76FFF00E000BF00BF63
:102D300070BD000094AE002070B504460D461348E7
:102D4000408BA84201D21148458B012C06D0022CA1
:102D500009D0032C0CD0042C14D10EE029460120FC
:102D6000FDF752FF0FE029460220FDF74DFF0AE074
:102D700029460320FDF748FF05E029460420FDF71A
:102D800043FF00E000BF00BF70BD000094AE002014
:102D9000704708B50A208DF8000000208DF801006A
:102DA00001208DF802008DF80300684600F068F8F5
:102DB00017208DF8000000208DF8010002208DF80A
:102DC000020001208DF80300684600F059F8282021
:102DD0008DF8000000208DF8010003208DF802001E
:102DE00001208DF80300684600F04AF834208DF881
:102DF000000001208DF8010000208DF80200012064
:102E00008DF80300684600F03BF826208DF800009E
:102E100002208DF8010000208DF8020001208DF8BD
:102E20000300684600F02CF838208DF800000020E0
:102E30008DF801008DF8020001208DF8030068462E
:102E400000F01EF827208DF8000002208DF8010008
:102E50008DF8020001208DF80300684600F010F89C
:102E600047208DF8000003208DF8010002208DF826
:102E7000020001208DF80300684600F001F808BD4B
:102E800070B5002100230F22C4781CB3174C2468AE
:102E900004F4E064C4F5E064C4F30721C1F1040460
:102EA000E3B20A4144789C40E1B284781440214363
:102EB0000C07210E0E4C05786155047804F01F05AF
:102EC0000124AC4005786D11AD0005F1E025C5F891
:102ED000004109E0047804F01F050124AC40054DD1
:102EE0000678761145F8264070BD00000CED00E034
:102EF00000E400E080E100E002490143024A116081
:102F0000704700000000FA050CED00E01548164877
:102F100016481748174818481848194819481A48B1
:102F20001A481B481B481C481C481D481D481E4881
:102F30001E481F481F482048204821482148224851
:102F40002248234823482448244825482548264821
:102F5000264827482748284828482948294800BFA4
:102F60007047000064A80008C4A70008C8A70008AC
:102F7000CCA70008D0A70008D4A70008D8A700084D
:102F8000DCA70008E0A70008E4A70008E8A70008FD
:102F9000ECA70008F0A70008F4A70008F8A70008AD
:102FA000FCA7000800A8000804A8000808A800085A
:102FB0000CA8000810A8000814A8000818A8000809
:102FC0001CA8000820A8000824A8000828A80008B9
:102FD0002CA8000830A8000834A8000838A8000869
:102FE0003CA8000840A8000844A8000848A8000819
:102FF0004CA8000850A8000854A8000858A80008C9
:103000005CA8000860A8000810B50348006810B16B
:1030100001480068804710BD2401002070B50446B7
:1030200000F0C2F800204849087048490870484933
:10303000087048490860484908604849087048498C
:10304000087048490870484908604849086048497C
:10305000086048490870484800680A21B0FBF1F050
:10306000464908604648006858B14648056845B179
:103070004348066803E0761E002028602D1D002EC0
:10308000F9D1002040490860404908604049086083
:10309000404908604049086040490860404908606C
:1030A0004049087002F0ECF902F0CCFA204601F039
:1030B0007BFB208800B170BD204601F05DFF2088B9
:1030C00000B1F8E7204601F07FFF208800B1F2E769
:1030D000204602F04BF8208800B1ECE7204602F0D1
:1030E000FFF9208800B1E6E7204602F01FFC2088A7
:1030F00000B1E0E7204602F041FF208800B1DAE7A6
:10310000204601F0A5FE208800B1D4E7204601F05A
:10311000BDFC208800B1CEE7204603F09FFE20884A
:1031200000B1C8E7204602F06DFE208800B1C2E77A
:10313000204603F0EFFE208800B1BCE701F05CFA06
:10314000FFF7E4FE00BFB6E7380100203901002098
:1031500080010020D8010020DC0100206601002051
:103160006701002068010020740100207801002020
:103170007C0100208801002024A800088401002090
:10318000F4A70008F0A70008180100201C01002087
:103190002001002024010020280100202C01002013
:1031A00030010020B6010020064800680649096881
:1031B00000EB8100054908600846006820F0070020
:1031C00008607047F0A70008F4A70008E00100209D
:1031D00008480078012800D0704707480078FA288E
:1031E00000DBF9E704480078401C0349087000BF81
:1031F000F2E70000390100203801002010B500245A
:103200002D480078012800D010BD00BFFDF744F81C
:10321000044600BF2948007828B900BF2046FDF7C2
:103220003FF800BFF0E725480078401E23490870AA
:1032300008460078002805DD00BF2046FDF730F87D
:1032400000BFE1E71E480078002805DD00BF2046EA
:10325000FDF726F800BFD7E702F0FEF8194908701D
:103260000846007800EB4000174951F82000174944
:1032700008600846006816490968884205D100BF01
:103280002046FDF70DF800BFBEE710480068D0F8F3
:103290009000401C0D490968C1F890000D48006875
:1032A000401C0C490860FDF7C7FA00BF2046FCF738
:1032B000F7FF00BF00BFA7E7390100203801002059
:1032C000800100206701002000C50020DC010020F3
:1032D000D8010020AC01002010B500241F48007860
:1032E000002800DD10BD1E480078002800DDF9E749
:1032F00000BFFCF7D1FF044600BF02F0ADF819494A
:1033000008700846007800EB4000174951F820008B
:10331000164908600846006815490968884205D1C1
:1033200000BF2046FCF7BCFF00BFDBE70F4800688A
:10333000D0F89000401C0D490968C1F890000D4874
:103340000068401C0B490860FDF771FA00BF204679
:10335000FCF7A6FF00BF00BFC4E700003801002053
:10336000800100206701002000C50020DC01002052
:10337000D8010020AC01002070B504460025184893
:103380000078002803DD46F66250208070BD1548A5
:103390000078012803D045F689602080F6E71248BE
:1033A0000078FA2803DB45F209202080EEE700BF11
:1033B00000BFFCF771FF054600BF00BF0A48007858
:1033C000401C0949087002F01DFA00BF00BF2846E2
:1033D000FCF766FF00BF00BF0020208000BFD5E7DC
:1033E0003801002039010020800100202DE9F04142
:1033F00005460C461646002700BF00BFFCF74CFFF1
:10340000074600BF00BF012D03D000200D49087002
:1034100002E001200B49087014B10B48046006E07B
:103420000A4800680A21B0FBF1F00749086000BFB4
:1034300000BF3846FCF734FF00BF00BF00203080DB
:10344000BDE8F081880100208401002024A8000844
:1034500070B50446002520480078002803DD46F6B4
:103460006550208070BD1D480078012803D045F6C6
:1034700089602080F6E71A48007818B946F664504B
:103480002080EFE700BF00BFFCF706FF054600BF46
:1034900000BF13480078401E1149087008460078A4
:1034A00000280ADD00BF00BF2846FCF7F9FE00BF78
:1034B00000BF46F663502080D4E702F0B1F900BFA8
:1034C00000BF2846FCF7ECFE00BF00BFFFF704FF7B
:1034D0000020208000BFC5E738010020390100200E
:1034E0008001002010B5044612480078E8B901F0C8
:1034F000B3FF1149087008460078104908700E485B
:10350000007800EB40000E4951F820000D4908609A
:10351000084600680C490860012006490870FDF75C
:1035200075F943F69920208002E045F68A602080F4
:1035300010BD000039010020670100206601002055
:1035400000C50020DC010020D80100202DE9F04159
:1035500007464FF0000800BF00BFFCF79DFE804605
:1035600000BF00BF00203D4908603D4908803D493B
:1035700008803D4908603D4908603D4908603D4973
:1035800008603D49088100BF00BF4046FCF788FE47
:1035900000BF00BF00BF00BFFCF77EFE804600BF3B
:1035A00000BF3648046800BF00BF4046FCF778FE05
:1035B00000BF00BF21E000BF00BFFCF76DFE8046EA
:1035C00000BF00BF00207834E06320602063A0616A
:1035D000A082E0826062A062FEF7C2F92062783CBD
:1035E00004F164060020B081D4F8BC4000BF00BFE5
:1035F0004046FCF755FE00BF00BF002CDBD100BFEA
:1036000000BFFCF749FE804600BF00BF1C480568AC
:1036100000BF00BF4046FCF743FE00BF00BF12E002
:1036200000BF00BFFCF738FE804600BF00BF05F1B9
:1036300020060020B081AD6900BF00BF4046FCF706
:103640002FFE00BF00BF002DEAD103F0E3FA03F024
:103650005DFD00203880BDE8F08100004C010020B5
:103660004601002096010020A8010020BC01002096
:10367000C801002078010020F4C40020B00100201F
:103680006C010020F8B5044600266946324800F077
:103690008FFDBDF8000018B1BDF800002080F8BD16
:1036A0006A460021022000F0F7FDBDF8000018B1C5
:1036B000BDF800002080F2E700BF00BFFCF7ECFD82
:1036C000064600BF00BF00202449086000BF00BFBD
:1036D0003046FCF7E5FD00BF00BF0025204800682C
:1036E00020490968884205D91D4800681D490968B4
:1036F000B0FBF1F525B91A4800680A21B0FBF1F5D5
:103700006A460021284600F0C7FD6946124800F0CD
:1037100063FABDF8000018B1BDF800002080BEE7D4
:1037200000BF00BFFCF7B8FD064600BF00BF002089
:103730000D490860094800680C49086001200C49DF
:10374000087000BF00BF3046FCF7AAFD00BF00BFF5
:103750000020208000BFA2E788C900209801002037
:1037600024A800080CA80008A80100209C01002043
:10377000A401002010B50348006810B1014800689A
:10378000804710BD280100202DE9FF4F87B0044677
:103790009046DDE91BA5DDE91496179F00200390F4
:1037A00087480078002805DD47F24A1028800BB0D2
:1037B000BDE8F08F1CB947F2AD102880F7E7B8F1EB
:1037C000000F03D147F24F102880F0E71EB946F6EC
:1037D0002F602880EBE77B480068874203D246F6DB
:1037E00030602880E3E71698B84203D346F631608C
:1037F0002880DCE7B9F1400F03D346F2732028801C
:10380000D5E7B9F1000F06D16F48844203D046F2E4
:1038100073202880CBE7B9F13F0F06D16B48844273
:1038200003D046F273202880C1E7204602F0B6FBA1
:10383000002028800AF0010090B10AF0020078B15F
:1038400005960020069008E0002105980160059883
:10385000001D05900698401C06900698B842F3D3C8
:10386000169806EB80000490CDE9007A3246404677
:10387000049B0A9900F06EFB0590C4F828800A9812
:10388000E0620898206284F83790059820600498D8
:10389000A06019986065199818B94D480068A0652E
:1038A00001E01998A0651A9860606662A763A4F8A1
:1038B0003CA04FF0000B08E0002104F17C0040F830
:1038C0002B100BF1010000F0FF0BBBF1000FF3D048
:1038D00004F16400189901F0C3FB204600F082F85F
:1038E00000BF00BF00BFFCF7D7FC039000BF00BFC4
:1038F00038480078401C3749087000BF00BF039863
:10390000FCF7CEFC00BF00BF00BF94F8370001F009
:10391000C3FD204601F0DEFE204602F0F5FA2E48F7
:103920000088401C2C4908802C48007801282DD0A4
:1039300000BF00BF00BFFCF7AFFC039000BF00BF9B
:1039400024480078401E2349087008460078A0B932
:1039500023480088002809DD00BF00BF0398FCF75A
:103960009FFC00BF00BF01F023FF0DE000BF00BFC0
:103970000398FCF795FC00BF06E000BF00BF03986A
:10398000FCF78EFC00BF00BF00BF10E700BF00BF08
:1039900000BFFCF781FC039000BF00BF0D4800781A
:1039A000401E0C49087000BF00BF0398FCF778FC6C
:1039B00000BF00BF00BFFFF78FFC00BFF7E60000AD
:1039C0003801002020A8000830C400206CC300206B
:1039D0008401002080010020B40100203901002072
:1039E0004401002010B504460348006818B1204681
:1039F00001490968884710BD1801002070B50446C8
:103A00000D46002667480078002803DD47F24E1077
:103A1000288070BD6448844203D147F24C1028804E
:103A2000F7E76248844203D147F24D102880F0E75F
:103A30007CB900BF00BFFCF72FFC064600BF00BFEB
:103A40005B48046800BF00BF3046FCF729FC00BF9C
:103A500000BF00BF00BF00BFFCF71EFC064600BF52
:103A600000BF54480078401C5249087000BF00BF96
:103A70003046FCF715FC00BF00BF00BF94F83600CD
:103A800008282DD2DFE800F004090E10080A0F11F3
:103A9000204601F05FFE54E053E000BF204603F0F3
:103AA0009DF84EE000BF00BF00BF204603F096F82F
:103AB00094F83400082810D2DFE800F00407050865
:103AC000090A0B0600BF00BF08E000BF00BF00BF2F
:103AD00000BF204601F011FC00E000BF00BF30E055
:103AE00000BF00BF00BFFCF7D7FB064600BF00BF0A
:103AF00030480078401E2F49087008460078A0B969
:103B00002D480088002809DD00BF00BF3046FCF7C3
:103B1000C7FB00BF00BF01F04BFE0DE000BF00BFC0
:103B20003046FCF7BDFB00BF06E000BF00BF3046DB
:103B3000FCF7B6FB00BF00BF00BF46F62D60288033
:103B400067E700BF04F1640001F068FA204600F066
:103B500037F8204602F0F0F918480088401E17494F
:103B60000880204602F01AFAFF2084F8360000BFD1
:103B700000BF00BFFCF790FB064600BF00BF0D482A
:103B80000078401E0B49087000BF00BF3046FCF7AC
:103B900087FB00BF00BF00BF00202880FFF79CFB11
:103BA00000BF36E7380100206CC3002030C400207D
:103BB000D80100208001002044010020B401002031
:103BC00010B504460348006818B120460149096849
:103BD000884710BD1C0100207FB504460D46002615
:103BE00000BF00BFFCF758FB064600BF00BF1CB17A
:103BF0001548006884420AD100BF00BF3046FCF778
:103C00004FFB00BF00BF47F2571028807FBD00BFA9
:103C100000BF3046FCF744FB00BF00BF0B480078F4
:103C200000280BDD0020009001900346024621464B
:103C3000CDE90205064800F061FFE7E72946204686
:103C400002F024FB00BFE1E7D8010020380100208A
:103C50005452455310B504460348006818B1204635
:103C600001490968884710BD200100202DE9F0476F
:103C700080460E4614461D464FF000097D480078E8
:103C8000002805DD46F2AE1028800020BDE8F08750
:103C90001EB1B6F5004F02D100E000BF04E045F6CA
:103CA000256028800020F1E700BF0CB100202060D3
:103CB00000BF00BFFCF7F0FA814600BF00BF6E48AE
:103CC0000068406CA8B36C480068406C401E6A49AC
:103CD0000968486468480068476C1CB16648006819
:103CE000006C2060FDF73CFE63490968096C401ACE
:103CF00061490968C1F8A4005F480068D0F8A800CD
:103D00005D490968D1F8A410884207D25A48006872
:103D1000D0F8A40058490968C1F8A80000BF00BF46
:103D20004846FCF7BDFA00BF00BF00202880384697
:103D3000ACE7FFE706F4004058B100BF00BF4846BB
:103D4000FCF7AEFA00BF00BF46F2B010288000209A
:103D50009CE74A48007800280BDD00BF00BF4846BA
:103D6000FCF79EFA00BF00BF46F663502880002093
:103D70008CE700BF41480078401C4049087000BFF4
:103D800000BF4846FCF78CFA00BF00BF00BF4346A7
:103D900007220021084601F0F5F900BF00BF00BF6F
:103DA000FCF77AFA814600BF00BF34480078401E15
:103DB0003249087000BF00BF4846FCF771FA00BFE7
:103DC00000BF00BFFFF788FA00BF00BFFCF764FA2E
:103DD000814600BF00BF2848006890F8350020B138
:103DE000012826D0032834D12CE0FCB122480068F9
:103DF000006C2060FDF7B4FD1F490968096C401A8A
:103E00001D490968C1F8A4001B480068D0F8A80043
:103E100019490968D1F8A410884207D216480068E9
:103E2000D0F8A40014490968C1F8A800002028802F
:103E300013E01CB110480068006C206046F2A91025
:103E400028800AE00CB10020206047F2D9202880A9
:103E500003E046F62E60288000BF00BF06480068D9
:103E6000476C00BF00BF4846FCF71AFA00BF00BF0E
:103E700038460BE738010020D801002080010020DF
:103E80002DE9F04705460E4617461C464FF0000A3E
:103E90002E480078002804DD47F259102080BDE844
:103EA000F0871EB946F2D5202080F8E71FB946F208
:103EB000D5202080F3E700BF00BFFCF7EDF9824674
:103EC00000BF00BF0DB922480568286868B900BF67
:103ED00000BF5046FCF7E4F900BF00BF002030608F
:103EE000386047F252102080D9E795F83C0000F086
:103EF000010068B900BF00BF5046FCF7D1F900BF10
:103F000000BF00203060386047F254102080C6E7C0
:103F100000BF00BF5046FCF7C3F900BF00BF4FF021
:103F20000008D5F8249003E009F1040908F101081C
:103F3000D9F800000028F7D0C6F80080A86BA0EBE5
:103F4000080038600020208000BFA8E7380100206A
:103F5000D8010020F0B50446DDE9055602EB8500E6
:103F600020F007004FF0000C071F3846C7F800C0CC
:103F70004FF4805C071F3846C7F800C04FF0150C9F
:103F8000071F3846C7F800C04FF0140C071F38460B
:103F9000C7F800C04FF0130C071F3846C7F800C021
:103FA0004FF0120C071F3846C7F800C04FF0110C35
:103FB000071F3846C7F800C04FF0100C071F3846DF
:103FC000C7F800C04FF0090C071F3846C7F800C0FB
:103FD0004FF0080C071F3846C7F800C04FF0070C19
:103FE000071F3846C7F800C04FF0060C071F3846B9
:103FF000C7F800C04FF0050C071F3846C7F800C0CF
:104000004FF0040C071F3846C7F800C04FF0030CF0
:10401000071F3846C7F800C04FF0020C071F38468C
:10402000C7F800C04FF0010C071F3846C7F800C0A2
:104030004FF0000C071F3846C7F800C04FF0807CD7
:10404000071F3846C7F800C0071F38463C60DFF836
:104050005CC1071F3846C7F800C04FF0123C071F6D
:104060003846C7F800C04FF0033C071F3846C7F872
:1040700000C04FF0023C071F3846C7F800C0071FBA
:1040800038463B60071F384639604FF0310C071F38
:104090003846C7F800C04FF0300C071F3846C7F845
:1040A00000C04FF0290C071F3846C7F800C04FF07A
:1040B000280C071F3846C7F800C04FF0270C071F11
:1040C0003846C7F800C04FF0260C071F3846C7F81F
:1040D00000C04FF0250C071F3846C7F800C04FF04E
:1040E000240C071F3846C7F800C04FF0230C071FE9
:1040F0003846C7F800C04FF0220C071F3846C7F8F3
:1041000000C04FF0210C071F3846C7F800C04FF021
:10411000200C071F3846C7F800C04FF0190C071FC6
:104120003846C7F800C04FF0180C071F3846C7F8CC
:1041300000C04FF0170C071F3846C7F800C04FF0FB
:10414000160C071F3846C7F800C04FF0113C071F78
:104150003846C7F800C04FF0103C071F3846C7F874
:1041600000C04FF0093C071F3846C7F800C04FF0A9
:10417000083C071F3846C7F800C04FF0073C071F30
:104180003846C7F800C04FF0063C071F3846C7F84E
:1041900000C04FF0053C071F3846C7F800C04FF07D
:1041A000043C071F3846C7F800C0F0BDCD630008C7
:1041B0007FB505460C461248854203D147F25B1095
:1041C00020807FBD0F48854203D147F25C102080DC
:1041D000F7E70D48007800280BDD002000900190E3
:1041E000034602462946CDE90204084800F086FC51
:1041F000E7E72146284602F057FB00BFE1E7000051
:104200006CC3002030C400203801002054535553A3
:1042100010B51D48006810B11B4800688047FDF7C5
:104220009FFB04461948006819490968884215D05F
:1042300016480068D0F89800201A14490968C1F897
:10424000940012480068D0F89C0010490968D1F821
:10425000941008440D490968C1F89C000C48006896
:10426000C0F8984009480068D0F8B40009490968C6
:10427000884205D20748006804490968C1F8B400BB
:1042800000200449086010BD2C010020D801002046
:10429000DC0100207C0100202DE9F04105460E469E
:1042A000144600273F480078002804DD47F27520B7
:1042B0002080BDE8F0813C480078002803DD46F608
:1042C00063502080F5E736B1022E05D0042E0AD0C7
:1042D000082E09D101E000BF00BF1DB947F27E20C2
:1042E0002080E6E704E003E045F625602080E0E773
:1042F00000BF00BF00BF00BFFBF7CEFF074600BFF7
:1043000000BF29480078401C2749087000BF00BF43
:104310003846FBF7C5FF00BF00BF00BF012023499F
:10432000096881F836002346324629461F4800684E
:1043300002F076FB2088A8B100BF00BF00BFFBF7EA
:10434000ABFF074600BF00BF17480078401E164964
:10435000087000BF00BF3846FBF7A2FF00BF00BFD8
:1043600000BFA6E71148006801F0F4F900BF00BFE4
:1043700000BFFBF791FF074600BF00BF0A48007867
:10438000401E0949087000BF00BF3846FBF788FF90
:1043900000BF00BF00BFFEF79FFF0020208000BFCE
:1043A00087E700003801002080010020D8010020AC
:1043B0002DE9FF5F05460E4617469846DDE90EA437
:1043C0000020009072480078002804DD47F2752034
:1043D0002080BDE8FF9F6F480078002803DD46F687
:1043E00063502080F5E70AF00E0BBBF1000F09D0F7
:1043F000BBF1020F07D0BBF1040F10D0BBF1080FC7
:104400000ED101E000BF00BFB8F1000F06D12FB9F7
:1044100026B91DB947F27E202080DAE704E003E0E8
:1044200045F625602080D4E700BF2AF01E0008B1C1
:10443000012000E0002003900398012803D145F6F5
:1044400025602080C5E7CAF3001002900298C0B929
:10445000B8F57A7F03D347F27B202080B9E73B2F62
:1044600003DD47F27A202080B3E73B2E03DD47F2DD
:1044700079202080ADE7632D12DD47F2782020807F
:10448000A7E742F20F70864203DD47F279202080D1
:104490009FE7B5F57A7F03DB47F27820208098E725
:1044A0003D48D0F800904FF4FA70B0FBF9F040446A
:1044B00000FB09F04FF47A71B0FBF1F14FF4616049
:1044C0006843C6EB061200EB8200384400FB09107B
:1044D00001900198002856D000BF00BF00BFFBF735
:1044E000DBFE009000BF00BF2A480078401C29492D
:1044F000087000BF00BF0098FBF7D2FE00BF00BFEE
:1045000000BF01202549096881F8360023465A4634
:1045100022480199006802F083FA2088A8B100BF00
:1045200000BF00BFFBF7B8FE009000BF00BF1948F6
:104530000078401E1749087000BF00BF0098FBF7C5
:10454000AFFE00BF00BF00BF43E71448006801F0A2
:1045500001F900BF00BF00BFFBF79EFE009000BF47
:1045600000BF0C480078401E0A49087000BF00BF19
:104570000098FBF795FE00BF00BF00BFFEF7ACFE42
:104580000020208002E047F27E20208000BF20E74C
:10459000380100208001002024A80008D801002054
:1045A00010B586B000F01EF8FDF7DAF9044605A84C
:1045B00000210091CDE9011403900748007800EB39
:1045C0004000064A02EB800100231A46044800F02E
:1045D00095FA06B010BD00006601002000C500205D
:1045E0005449434B10B50348006810B101480068B6
:1045F000804710BD30010020244825482548264822
:1046000026482748274828482848294829482A482A
:104610002A482B482B482C482C482D482D482E48FA
:104620002E482F482F4830483048314831483248CA
:10463000324833483348344834483548354836489A
:1046400036483748374838483848394839483A486A
:104650003A483B483B483C483C483D483D483E483A
:104660003E483F483F48404840484148414842480A
:1046700042484348434844484448454845484648DA
:1046800046484748474800BF7047000068A80008F0
:10469000D0A900086AA800086BA800086CA8000848
:1046A00070A8000874A8000871A800089CA8000859
:1046B0009DA800089EA80008A0A80008A2A80008BD
:1046C000A4A80008A6A80008A8A80008C8A8000870
:1046D000CAA80008CCA80008CEA80008D0A80008E6
:1046E000D2A80008D4A8000800A9000801A9000861
:1046F00002A9000804A9000806A9000807A90008E3
:1047000008A900080AA900080CA900080EA90008B9
:1047100010A9000812A9000814A9000844A900085B
:1047200045A9000846A9000847A9000848A90008AB
:104730004AA900084CA9000874A9000875A9000836
:1047400076A9000877A9000878A900087AA90008C6
:104750007CA9000880A9000881A9000882A9000896
:1047600083A9000884A9000885A9000886A9000873
:1047700087A9000888A900088AA900088BA9000851
:104780008CA900088EA9000890A9000891A900082A
:1047900094A90008C8A90008C9A90008CAA9000866
:1047A000CCA90008CEA900080021034A1160034AE1
:1047B000118001807047000050010020540100204A
:1047C0002DE9F04F85B00446894692469B46DDF8B8
:1047D00038800020009000BF00BFFBF75DFD009017
:1047E00000BF00BFBAF1000F0AD0BAF1010F0DD01F
:1047F000BAF5004F05D06FF40040504460B906E0B0
:1048000000BF206A40EA0900206214E000BF206A6D
:1048100020EA090020620EE000BF00BF0098FBF70D
:104820003FFD00BF00BF45F62560A8F8000000204E
:1048300005B0BDE8F08F00BFC4F824B004F1080053
:1048400001900198008958B900BF00BF0098FBF79C
:1048500027FD00BF00BF0020A8F80000206AE7E79E
:1048600000BF61480078401C5F49087000BF00BF6E
:104870000098FBF715FD00BF00BF00BF0198076857
:10488000BD687FE07868029095F8880000F00F001E
:1048900003900398012821D002282ED0042802D0AA
:1048A000082836D10EE0206AD5F8801000EA01060B
:1048B000D5F88000B04204D15A463146284600F06F
:1048C00097F859E0206AD5F8801000EA010626B171
:1048D0005A463146284600F08BF84DE0D5F8800066
:1048E000216A20EA0106D5F88000B04204D15A4678
:1048F0003146284600F07CF83EE0D5F88000216A79
:1049000020EA010626B15A463146284600F070F8E2
:1049100032E000BF00BF00BFFBF7BEFC009000BF4D
:1049200000BF31480078401E2F49087008460078C3
:10493000A0B92E480088002809DD00BF00BF0098FC
:10494000FBF7AEFC00BF00BF00F032FF0DE000BF80
:1049500000BF0098FBF7A4FC00BF06E000BF00BF4B
:104960000098FBF79DFC00BF00BF00BF43F6FF208F
:10497000A8F8000000205BE700BF029F0FB1BD68F0
:1049800000E00025002D7FF47DAF00BF00BF00BF19
:10499000FBF782FC009000BF00BF13480078401E68
:1049A0001149087000BF00BF0098FBF779FC00BFF9
:1049B00000BF00BF0AF4004008B9FEF78DFC00BF3D
:1049C00000BFFBF769FC009000BF00BF206A0490A5
:1049D00000BF00BF0098FBF763FC00BF00BF0020D2
:1049E000A8F80000049823E780010020440100207B
:1049F00070B504460E4615463434266500206070B6
:104A00002070E560A078343C082816D2DFE800F07A
:104A1000040508090706101100BF00BF00BF0DE024
:104A200000BF204601F024FC002084F8360005E099
:104A300000BF042084F8360000E000BF00BF20461D
:104A400000F05BFC70BD0000002400BF19E000BF57
:104A500000BFFBF721FC044600BF00BF0948006807
:104A6000401C0849086008480068401C0649086066
:104A700000BF00BF2046FBF713FC00BF00BFFEF7DE
:104A8000C3FAE4E7340100209801002010B58AB091
:104A9000044600200E4908600B2000210591CDE955
:104AA0000704069108460B4909680B4A12680B4B2C
:104AB0001B68CDE90132CDE903103F200023084AED
:104AC00008A100900C48FEF75FFE0AB010BD000080
:104AD00034010020CCA70008C8A70008C4A700081C
:104AE000494A000875432F4F532D494949204964CD
:104AF0006C65205461736B006CC300202DE9F84F86
:104B000004460D4616461F46DDE90BABDDF828903E
:104B1000DDF834800020009000BF00BFFBF7BCFB35
:104B2000009000BF00BF2B4800882B4909888842AD
:104B30003EDA28480088401C26490880274800881B
:104B40000988884203DA23480088244908802448D9
:104B50000068046022480068856021480068C660DB
:104B60001F48006807821E480068C0F814901C485F
:104B70000068A0F818A01A480068C0F81CB01848CF
:104B800000684068164908600120164908811648E7
:104B900008604860002000F07FFC1448007818B1DD
:104BA00012480078124908700020A8F8000008E0B8
:104BB00010480088401C0F49088044F25360A8F850
:104BC000000000BF00BF0098FBF76AFB00BF00BFFA
:104BD000BDE8F88F44010020D8A700084601002056
:104BE0003C01002000C5002030C4002066010020E8
:104BF00068010020480100203EB55948006800685F
:104C0000584A811A904279D00FDC5749084400284D
:104C10003ED056490844A8B155490844002860D000
:104C20005449084400286AD13FE05348084400280A
:104C300050D052490844002862D051490844002805
:104C4000F1D110E002A8464D00902D68EB69444D6B
:104C50002D682A8B424D2D686969414D2D68A868E1
:104C6000FFF7AEFD7AE002A93D480068C0693C4DFF
:104C7000CDE900012D682B8B394D2D682A8A384DDE
:104C80002D68E968364D2D68A86800F035FC65E0B0
:104C9000334B1B68DA69324B1B68198B304B1B682E
:104CA000986802AB00F04EFE58E002A92C4800685C
:104CB000C0692B4DCDE900012D682B8B284D2D6847
:104CC0002A8A274D2D68E968254D2D68A86801F0CE
:104CD000C9F943E022490968886802A901F0D6FAB7
:104CE0003CE01F4B1B68DA691D4B1B68198B1C4B82
:104CF0001B68986802AB01F075FB2FE007E02CE021
:104D000017490968886802A901F0CEFD26E01D490F
:104D1000097801EB41011C4A02EB810000F09EFD85
:104D20000F48006802AB0021C269184801F05AFB25
:104D300017480068401E164908600846006858B9C0
:104D4000144800680860FCF70BFE044602AB2246DC
:104D50000021114801F046FB00E000BF00BF3EBD4E
:104D6000400100205449434BADBAB2BE0DF90BFAD5
:104D7000F2F8F7FF0006F6FF00F7FDF700FFEFFF80
:104D800003FE0FFE6801002000C50020C4C80020FB
:104D9000D4010020D001002088C90020002700BFD6
:104DA0004CE0002648E000BF00BFFBF775FA07465D
:104DB00000BF00BF2248008888B90020214908812F
:104DC0000860486000F07AFB00BF00BF3846FBF780
:104DD00067FA00BF00BFFEF77FFA01262CE000BF94
:104DE00000BF3846FBF75CFA00BF00BFFCF7B8FD18
:104DF0000546FFF701FFFCF7B3FD441B12480068AE
:104E0000A04201D21048046000BF00BFFBF744FA83
:104E1000074600BF00BF0D48006840680B490860A6
:104E200007480088401E0649088000BF00BF38467A
:104E3000FBF736FA00BF00BF002EB4D0B1E7000088
:104E40004401002000C500204C010020400100204A
:104E5000F0B589B005460020314908803148006826
:104E600020B944F25260288009B0F0BD2E48008875
:104E7000022803DA44F254602880F5E700202B4929
:104E80000860284804682646203600270CE0284899
:104E900020600020A060E060208260612083666066
:104EA00020342036781C87B21F4800888742EEDB0A
:104EB000203C1C48066866601E4806601E48066066
:104EC00000201E4908801E4908801E48006818B945
:104ED00044F255602880C7E71B4800681B490968F1
:104EE000884203D244F256602880BDE703200021A7
:104EF0000591CDE90705069113480068144A126828
:104F0000104B1B68CDE90301CDE9013200910B463E
:104F1000104A11A11748FEF737FC00BFA4E70000B4
:104F200048010020D4A70008D8A700084C010020A1
:104F30004E4F4E453C01002040010020440100201E
:104F400046010020E0A70008E8A7000820A8000804
:104F5000E4A700089D4D000875432F4F532D494984
:104F60004920495352205175657565205461736B12
:104F70000000000030C400200021034A1160034AF1
:104F80001180018070470000580100205C01002062
:104F900070B502460B461046114610315E1EB5B282
:104FA000002408E00160002646600681C6601030DB
:104FB0001031661CB4B2AC42F4DB002606604660D9
:104FC0000681C66070BD000010B504461048006838
:104FD00018B945F21E70208010BD0E48008818B91F
:104FE00045F21D702080F7E70A48018808480068EC
:104FF000FFF7CEFF064800680749086005480088AB
:1050000088800020C8800881208000BFE4E700007D
:1050100004A80008FCA70008F4C4002010B501464D
:1050200048894B89002B17DD0A680C4B1B681360FD
:105030000A4C4B6823602346DB884C891B1B074CBA
:10504000E38023469B884C892344044CA38000239F
:105050004B818B810B604B6010BD0000F4C40020BD
:10506000018100224281828102604260704700001B
:105070002DE9F0410D46DDE90674B0F80AC0B0F83C
:105080000880C44505DB46F2935CA4F800C0BDE887
:10509000F081DFF8D4C0BCF804C0BCF1000F04D12B
:1050A00045F21D7CA4F800C0F1E7DFF8BCC0DCF8D5
:1050B0000010DFF8B480D1F800C0C8F800C0C446C2
:1050C000BCF804C0ACF1010CA8F804C0C446BCF89C
:1050D00006C00CF1010CA8F806C0C446BCF808C014
:1050E000B8F80680C44507DADFF87CC0BCF806C013
:1050F000DFF87480A8F808C0B0F80AC0BCF1000F4F
:1051000006D1016041604FF0010CA0F80AC017E021
:1051100003F0100CBCF1000F07D1066831604FF0AE
:10512000000CC1F800C0016004E0D0F804C0C1F870
:1051300000C04160B0F80AC00CF1010CA0F80AC030
:10514000B0F80CC0B0F80A80C44503DAB0F80AC061
:10515000A0F80CC04D600A81CF604FF0000CA4F89D
:1051600000C000BF93E70000F4C400200021034A00
:105170001160034A11800180704700006001002027
:10518000640100202DE9F04105460C4616461F46F5
:105190001548006880F8346000201349096881F8D8
:1051A000350039461048006800F092FE6CB104F1F9
:1051B0000808EC60012229460B48006800F016F848
:1051C0002946404600F066F806E0002006490968D6
:1051D000C88705490968086303480168204600F04C
:1051E00019F8BDE8F0810000D801002010B5C28791
:1051F000016300230AE000244C600C600C614C61E8
:105200000C83CC61886020315C1CA3B29342F2DB3A
:1052100010BD000030B548B14568C1F8C05000F17C
:105220000804226893681D6AC56113E091F8345040
:10523000022D02D0072D08D103E007A5C1F8C05008
:1052400007E007A5C1F8C05003E008A5C1F8C050A9
:1052500000BF00BF30BD00005461736B20510000DF
:105260005461736B2053656D000000002000000046
:1052700030B507A5C1F8C05000F1080422681AB182
:1052800093681D6AC56101E001A5C56130BD0000DC
:1052900020000000F0B58E6896F8375007893FB9B6
:1052A0000127078100274F600F600160416023E004
:1052B00007897F1C0781026806E0946894F83770BC
:1052C000AF4200DD02E05268002AF6D100BF32B9D9
:1052D00000274F6043680B60596041600CE017681D
:1052E0002FB9116000270F604A60016004E0136865
:1052F0000B604A6059601160F0BD2DE9F041044631
:10530000256BE68F0AE0D5F80C8008F108072946DE
:10531000384600F00AF82035701E86B2002EF2DC06
:105320000020E0872063BDE8F08110B50489012CDE
:1053300003D100240460446011E00C6824B94A6879
:105340000024146002600AE04C6824B90B68002451
:105350005C60436003E00B684A685A60136004892C
:10536000641E048100244C600C6010BD2DE9F843DC
:1053700006460C4617469846089D94F836000828BD
:1053800050D2DFE800F00405080906072B2C00BF07
:1053900000BF00BF47E000BF94F83400032807D1E6
:1053A00043463A4621463046009500F03FF803E078
:1053B000E765A4F86080256436B12046FFF79DFFBD
:1053C00021463046FFF754FF204600F051FF0020F1
:1053D0003434A070607004F8340924E000BF94F8FD
:1053E0003400032807D143463A462146304600950B
:1053F00000F01CF803E0E765A4F86080256420460F
:1054000001F0ECFB36B12046FFF777FF214630462E
:10541000FFF72EFF04203434A0700020607004F8E1
:10542000340900E000BF00BFBDE8F883F0B50446D2
:10543000059E086BCD8F0AE0C768A74204D10461BE
:1054400042610383C66104E020306F1EBDB2002DAF
:10545000F2DC00BFF0BD000070B50025074C03E092
:1054600005F12000C5B2241D20680028F8D020686E
:10547000FAF71DFF2844C5B2284670BD1001002070
:10548000002004E00021034A42F82010401C0228BA
:10549000F8D370471001002030B5420900F01F0317
:1054A0000121C3F11F04A140034C54F822400C43D6
:1054B000014D45F8224030BD1001002030B54209B1
:1054C00000F01F030121C3F11F04A140034C54F855
:1054D00022408C43014D45F8224030BD1001002090
:1054E0000021034A1160034A1180018070470000C7
:1054F0006C010020700100202DE9F04F85B00746B7
:105500008A4693461C460020029000BF00BF00BFA1
:10551000FAF7C2FE029000BF00BF48480078401C66
:105520004649087000BF00BF0298FAF7B9FE00BFF5
:1055300000BF00BF07F108063089002842D104F0FF
:10554000100010B94FF0000801E04FF01008DDE93D
:105550000E0143465A46CDE90001514607F12000AD
:10556000FFF786FD00BF00BF00BFFAF795FE02906F
:1055700000BF00BF31480078401E3049087008461F
:105580000078A0B92E480088002809DD00BF00BFC0
:105590000298FAF785FE00BF00BF00F009F90DE0A0
:1055A00000BF00BF0298FAF77BFE00BF06E000BF15
:1055B00000BF0298FAF774FE00BF00BF00BF05B03D
:1055C000BDE8F08F04F4007008B1358900E00125D2
:1055D000D6F8009011E0D9F808000390D9F804003B
:1055E00004900E985B465246009038460399FFF7A8
:1055F000BDFEDDF81090681E85B2002DEBD100BF16
:1056000000BF00BFFAF748FE029000BF00BF0B4882
:105610000078401E0949087000BF00BF0298FAF7E1
:105620003FFE00BF00BF00BF04F4004008B9FDF713
:1056300053FE00210F98018000BFC0E780010020C9
:105640004401002000210AE001EB4102054B03EB7D
:10565000820000220281026042604A1CD1B24029CD
:10566000F2D3704700C5002010B5044694F8370007
:10567000FFF712FF94F8370005490978884203D1F3
:10568000204600F027F802E0204600F003F810BDA5
:105690006601002010B590F8373003EB43030C4C43
:1056A00004EB83010B893BB901230B810023C36009
:1056B00003610860486009E00B895B1C0B810B6883
:1056C000C360002303610A681061086010BD000018
:1056D00000C5002010B590F8373003EB43030B4CA6
:1056E00004EB83010B893BB901230B810023C360C9
:1056F00003610860486008E00B895B1C0B81002394
:10570000C3604A680261D060486010BD00C50020D7
:1057100010B501460C8924B1012C03D0022C0CD108
:1057200001E000BF14E008684A6802610024C46018
:105730001461D0600A6048600AE008684A68C3687B
:1057400000241C61C4600261D0600B60486000BF2F
:1057500000BF10BD2DE9F041054695F8370000EB7C
:105760004000124901EB80042F69EE6887B946B901
:10577000002020812060606095F83700FFF79EFED2
:105780000EE02089401E208100203061266007E065
:105790002089401E2081FE600EB9676000E03761FD
:1057A00000202861E860BDE8F081000000C500200D
:1057B00010B5002400BFFAF76FFD044600BF0020BB
:1057C0000C4908700C480D49086008460068D0F87C
:1057D0009000401C0968C1F8900009480068401C0E
:1057E00007490860FBF723F800BF2046FAF758FD89
:1057F00000BF10BD6701002030C40020DC01002084
:10580000AC01002010B504480078012803D1FCF752
:10581000A7F80249086010BD800100207401002033
:1058200010B50A48007880B9FCF79AF80849096869
:10583000441A08480068A04201D20648046006489D
:105840000068A04201D20448046010BD800100201D
:1058500074010020780100207C01002070B505460D
:1058600000262E480078012800D070BD00BF00BF80
:10587000FAF712FD064600BF00BF2C683CB900BF16
:1058800000BF3046FAF70CFD00BF00BFEDE724482B
:10589000844207D100BF00BF3046FAF701FD00BFC8
:1058A00000BFE2E7A06D10B1A06D401EA065A06D25
:1058B00038B100BF00BF3046FAF7F2FC00BF00BFAE
:1058C000D3E72889022807DA00BF00BF3046FAF77D
:1058D000E7FC00BF00BFC8E712480078002807DDDA
:1058E00000BF00BF3046FAF7DBFC00BF00BFBCE7DB
:1058F0002846FFF70DFF2C68606D18B90A4800684C
:10590000A06501E0606DA06500BF00BF3046FAF7FA
:10591000C7FC00BF00BF00BFA7E700008801002050
:105920006CC3002080010020840100200021034A74
:105930001160034A11800180704700008C01002033
:10594000900100202DE9FF5F0446884691461D46E0
:105950000020019000BF00BFFAF79EFC019000BF3D
:1059600000BF04F10807388900284FD1042001281E
:1059700004D0022814D0042834D123E0206AFF2860
:105980000DD100BF00BF0198FAF78AFC00BF00BF2D
:1059900046F6C5502880002004B0BDE8F09F22E004
:1059A0004FF6FF71206A88420BD100BF00BF0198FB
:1059B000FAF776FC00BF00BF46F6C55028800020ED
:1059C000EAE710E0206A401C58B900BF00BF019808
:1059D000FAF766FC00BF00BF46F6C55028800020DD
:1059E000DAE700E000BF00BF206A401C2062D4F864
:1059F00020A0C4F8249000BF00BF0198FAF750FC23
:105A000000BF00BF002028805046C5E700BF2548E2
:105A10000078401C2349087000BF00BF0198FAF7C6
:105A20003FFC00BF00BF00BF08F4007008B13E8912
:105A300000E00126D7F800B011E0DBF80800029082
:105A4000DBF80400039000231A46CDF800902046AE
:105A50000299FFF78BFCDDF80CB0701E86B2002EA9
:105A6000EBD1D4F820A000BF00BF00BFFAF714FCB0
:105A7000019000BF00BF0B480078401E0949087024
:105A800000BF00BF0198FAF70BFC00BF00BF00BFCA
:105A900008F4004008B9FDF71FFC0020288050469C
:105AA0007AE700008001002086B00020009000BF4F
:105AB00006E0C3490968480001AA0021FEF7ECFB93
:105AC000C04800780128F4D101A8FDF73FFD002768
:105AD000BD480068BA490968884205D9BA480068D3
