:020000040800F2
:10000000789100204902000855270008D3230008F2
:10001000D9250008EF0B0008C58200080000000089
:10002000000000000000000000000000F97A000855
:10003000F91F00080000000057040008297C000890
:1000400063020008630200086302000863020008FC
:1000500063020008630200086302000863020008EC
:1000600063020008630200086302000863020008DC
:1000700063020008630200086302000839190008DF
:1000800063020008630200086302000863020008BC
:10009000F10C000863020008630200086302000814
:1000A000630200086302000863020008630200089C
:1000B000630200086302000863020008630200088C
:1000C000630200086302000863020008630200087C
:1000D00063020008630200080D7F00081D8000080D
:1000E000630200086302000863020008630200085C
:1000F000630200086302000863020008630200084C
:10010000630200086302000863020008630200083B
:10011000157D0008630200086302000863020008FE
:1001200071190008630200086302000863020008F6
:10013000630200086302000863020008630200080B
:100140007D0E0008630200086302000863020008D5
:1001500063020008630200086302000863020008EB
:1001600063020008630200086302000863020008DB
:1001700063020008630200086302000863020008CB
:10018000630200086302000800F002F800F04CF877
:100190000AA090E8000C82448344AAF10107DA45E2
:1001A00001D100F041F8AFF2090EBAE80F0013F0E8
:1001B000010F18BFFB1A43F001031847088F000016
:1001C000288F00000A4410F8014B14F00F0508BFF7
:1001D00010F8015B240908BF10F8014B6D1E05D013
:1001E00010F8013B6D1E01F8013BF9D1641E03D0EC
:1001F000641E01F8015BFBD19142E4D3704700001B
:100200000023002400250026103A28BF78C1FBD81F
:10021000520728BF30C148BF0B6070471FB508F0B8
:1002200043FE1FBD10B510BD00F0C8F81146FFF722
:10023000F5FF08F0C1FA00F0E6F803B4FFF7F2FFAB
:1002400003BC08F04EF80000094880470948004701
:10025000FEE7FEE7FEE7FEE7FEE7FEE7FEE7FEE776
:10026000FEE7FEE704480549054A064B70470000D3
:10027000457C000889010008788B002078910020D7
:10028000788D0020788D002072B6704762B6704776
:10029000EFF3108072B6704780F31088704730BF5C
:1002A000704720BF7047B0FA80F0704790FAA0F016
:1002B000B0FA80F0704790FAA0F07047704710B520
:1002C000203AC0F00B80B1E81850203AA0E818504E
:1002D000B1E81850A0E81850BFF4F5AF5FEA027C0F
:1002E00024BFB1E81850A0E8185044BF18C918C07E
:1002F000BDE810405FEA827C24BF51F8043B40F81F
:10030000043B08BF7047D20728BF31F8023B48BF03
:1003100011F8012B28BF20F8023B48BF00F8012B41
:1003200070474FF000020429C0F0128010F0030C57
:1003300000F01F80CCF1040CBCF1020F18BF00F8D4
:10034000012BA8BF20F8022BA1EB0C0100F011B883
:100350005FEAC17C24BF00F8012B00F8012B48BFE5
:1003600000F8012B704770477047704770474FF097
:10037000000200B5134694469646203922BFA0E8F5
:100380000C50A0E80C50B1F12001BFF4F7AF090701
:1003900028BFA0E80C5048BF0CC05DF804EB8900F2
:1003A00028BF40F8042B08BF704748BF20F8022B35
:1003B00011F0804F18BF00F8012B7047754600F010
:1003C0002BF8AE4605006946534620F007008546E7
:1003D00018B020B5FFF746FFBDE820404FF00006FB
:1003E0004FF000074FF000084FF0000B21F007011D
:1003F000AC46ACE8C009ACE8C009ACE8C009ACE860
:10040000C0098D46704710B50446AFF30080204602
:10041000BDE81040FFF711BF00487047148B002063
:1004200022484FF6FF710170002080F309882048B0
:10043000016881F308881F484FF08051016062B65F
:10044000FEE71C484FF080510160704719484FF09B
:1004500080510160704772B6EFF3098050B11EF011
:10046000100F08BF20ED108A203880E8F00F1249E5
:100470000968086000B5114880475DF804EB104832
:1004800010490A7802700C480F490A680260106827
:1004900090E8F00F20301EF0100F08BFB0EC108A6B
:1004A00080F309884EF0040E62B6704722ED00E03A
:1004B0008C01002004ED00E084010020D53B000801
:1004C00012010020130100208801002000B58DB02A
:1004D0000121042006F048FF0121080206F064FF14
:1004E0000E200B9003208DF8300000208DF8330093
:1004F0000BA9204801F0FEFE002007900A90099009
:100500004FF48030089007A800F044F800200190D4
:1005100001208DF808008DF8090000200390059057
:1005200003208DF8180001A9134800F061F8072393
:1005300001220B21104800F085F8072302220C212C
:100540000D4800F07FF8072303220D210A4800F030
:1005500079F80121084800F040F80121064800F030
:1005600031F80121044800F009F8034800F0C6F80A
:100570000DB000BD000802400020014021B182689A
:1005800042F00102826003E0826822F00102826090
:10059000704700000021084A1168084A1140D0E95C
:1005A00000231A4383681A43C3681A431143044A59
:1005B000C2F804137047000004230140E030FCFF40
:1005C0000020014021B1826842F48072826003E021
:1005D000826822F480728260704721B1826842F49E
:1005E0000072826003E0826822F4007282607047C9
:1005F00030B50246002000235068104C20400D7991
:100600000C6844EA05242043506090680C4C20405C
:10061000D1E903542C438D682C434D7944EA4504B9
:1006200020439060D06A20F470000C7D641EE4B218
:10063000234340EA0350D06230BD0000FFFEFFFCC0
:10064000FDF7FFC0F0B504460D4600200021092D3E
:1006500011DDE068A5F10A0606EB4607072606FA53
:1006600007F18843A5F10A0606EB460603FA06F1F0
:100670000843E0600CE0206905EB4507072606FA11
:1006800007F1884305EB450603FA06F108432061AC
:10069000072A0FDA606B561E06EB86071F2606FA3E
:1006A00007F18843561E06EB860605FA06F1084355
:1006B000606322E00D2A0FDA206BD61F06EB860757
:1006C0001F2606FA07F18843D61F06EB860605FAB1
:1006D00006F10843206310E0E06AA2F10D0606EB84
:1006E00086071F2606FA07F18843A2F10D0606EBDE
:1006F000860605FA06F10843E062F0BD816841F024
:10070000804181607047000010B5012006490870E3
:1007100000204870022200F0F7FA1423002211464C
:10072000104607F06BFF10BD4F00002010B50620EB
:100730001B490870002048708870C87008714871A3
:10074000062240F2012000F0DFFA142300221146B5
:10075000104607F053FF0622114940F2022000F034
:10076000D3FA142300221146104607F047FF062251
:100770000B4940F2032000F0C7FA1423002211466F
:10078000104607F03BFF062205494FF4017000F0C8
:10079000BBFA142300221146104607F02FFF10BDAC
:1007A0004F00002010B507201B490870002048703A
:1007B0008870C87008714871062240F2012000F06C
:1007C000A3FA142300221146104607F017FF062251
:1007D000114940F2022000F097FA1423002211463A
:1007E000104607F00BFF06220B4940F2032000F0F1
:1007F0008BFA142300221146104607F0FFFE062252
:1008000005494FF4017000F07FFA142300221146CD
:10081000104607F0F3FE10BD4F00002070B50446EF
:100820000D4600267F2C00DD7F2404F500760F2086
:1008300008490870002048708D70280AC87004228A
:10084000304600F061FA142300221146104607F0EA
:10085000D5FE70BD4F00002010B54B48C07A01286E
:1008600001D14A49C8714A484078012805D1484811
:10087000007810B901204549C8714448007820B17A
:100880000020424908700120C8714048807810B1AA
:1008900001203E4908713D48C07810B101203B4914
:1008A00008713948007B012801D13849087238485D
:1008B0000078012801D1354908723448407820B1C8
:1008C000002032494870012008723048807810B901
:1008D00000202E4908712D48C07810B900202B49FE
:1008E00008712C480078002841D12848C079012897
:1008F0000ED12648007901280AD100202349C87169
:1009000008720846407918B92348008807F0E2FDCC
:100910001E48007AB0B91D480079012812D11F483D
:100920000078012806D100201C4908701A48008868
:1009300007F0D0FD1A488079012803D116480088B5
:1009400007F0C8FD1148007A012802D00F4800794D
:10095000C0B90E48007910B9012010490870002074
:100960000A4948710E49887101F079FE0AE007488A
:10097000007A012802D00548007918B900200349FF
:100980000872887110BD0000C46400202B00002094
:10099000325D002016000020280000202A000020E0
:1009A0002100002001200149487070472B000020E1
:1009B00070B5274800792649C97840EA01202549C1
:1009C0000988884243D124480078801E81B220489B
:1009D00007F0BEFD04462512E6B21F480078801ECF
:1009E0001B49085CA84232D11B480078401E085CB5
:1009F000B0422CD108468078012818D108464079A9
:100A0000012806D0022807D0032808D004280CD1DA
:100A100008E006F04DFD09E006F04CFD06E006F0AA
:100A200069FD03E006F068FD00E000BF0FE0084844
:100A30008078022803D101200849088007E0044893
:100A4000807820B9044801780148FFF76AFC70BD3E
:100A5000365F00200600002034000020080000203F
:100A600070B53F480078801E81B23E4800F082FD9C
:100A70000446E5B2260A3A480078801E3949085CE7
:100A8000A84234D136480078401E085CB0422ED1CE
:100A900008464078042817D006DC01280BD002282D
:100AA0000CD003281CD10CE0052810D0062811D04A
:100AB000102815D111E006F04DFD17E006F0C4FD39
:100AC00014E006F05FFE11E006F0B8FE0EE006F05E
:100AD0002DFF0BE006F06AFF08E006F0B3FF05E02B
:100AE00020494878042107F099FD00BF36E01D48F1
:100AF000407804281DD006DC01280BD002280ED037
:100B000003282AD110E0052818D006281BD0102869
:100B100023D11DE00821012007F080FD1DE0082100
:100B2000022007F07BFD18E00821032007F076FD86
:100B300013E00821042007F071FD0EE008210520D4
:100B400007F06CFD09E00821062007F067FD04E0CE
:100B50000821102007F062FD00BF00BF70BD00003B
:100B60009C000020BE6800200EB500BF2AE0164899
:100B7000008800281DDD15480078D0B91448407958
:100B800068B1144890ED001A1348D0ED000A1348DC
:100B900090ED000A0C48008806F030F912E002A837
:100BA00000210A230A46CDE90010084603F0E2F8C6
:100BB00008E002A800210A230A46CDE900100846F1
:100BC00003F0D8F8D3E700000C0000201600002046
:100BD0002B00002064000020600000205C0000204A
:100BE0001FB5684606F0F0FB019804B010BD00BFC9
:100BF000FEE700002DE9F0418AB004460D46164696
:100C00001F46DDF840800121084606F0ADFB0121BA
:100C1000480606F0B9FB4FF4C050089002208DF84A
:100C2000240000208DF8260003208DF825000120E7
:100C30008DF8270008A92C4801F05CFB09220B2144
:100C4000294801F09FFB09220C21274801F09AFB5B
:100C500000208DF81A008DF81B008DF81C00012073
:100C60008DF81D0000208DF81E008DF81F008DF8F6
:100C700016808DF817408DF818608DF81950ADF872
:100C8000147005A9194800F03EFA00208DF80E00F6
:100C90008DF80F0001208DF810000020ADF8040041
:100CA000ADF80600ADF80800ADF80A00ADF80C008C
:100CB00001208DF8110001A800F098F9012202210D
:100CC0000A4800F017FA14208DF8000001208DF872
:100CD00001008DF802008DF80300684601F0B2FDB6
:100CE00000200AB0BDE8F08100000240006400402E
:100CF00010B586B0002401AA0021024800F08DFA48
:100D000006B010BD006400402DE9F04186B00546F4
:100D10008846164600240195029500208DF80C00A7
:100D20008DF80D008DF80E6000BF06E018F8041075
:100D30000DF10F000155601C84B2B442F6DB01A92D
:100D40000D4800F0E2FA0746002401E0601C84B27E
:100D50003946094800F06CFB18B940F6FF70844230
:100D6000F4DB40F6FF70844203DB012006B0BDE8EF
:100D7000F0810020FAE70000006400402DE9F04116
:100D80008AB004460D4616461F46DDF84080012114
:100D9000022006F0E9FA0121880606F0F5FA602043
:100DA000089002208DF8240000208DF826000320F2
:100DB0008DF8250001208DF8270008A92D4801F0A5
:100DC00099FA092205212B4801F0DCFA09220621B3
:100DD000284801F0D7FA00208DF81A008DF81B0082
:100DE0008DF81C0001208DF81D0000208DF81E00DC
:100DF0008DF81F008DF816808DF817408DF818605B
:100E00008DF81950ADF8147005A91B4800F07BF956
:100E10000E208DF80E0000208DF80F0001208DF8B7
:100E200010000020ADF80400ADF80600ADF8080091
:100E3000ADF80A00ADF80C0001208DF8110001A8F2
:100E400000F0D4F8012202210B4800F053F94020B1
:100E50008DF8000001208DF8010002208DF80200BD
:100E600001208DF80300684601F0ECFC00200AB078
:100E7000BDE8F081000402400068004010B58CB06D
:100E8000002407AA00214A4800F0C7F90798102853
:100E900016D100BF05E00DF12700005D454908555A
:100EA000641C9DF82600A042F5DC424800784149C8
:100EB000497840EA01204049088001203F490870F4
:100EC000079802281DD1002406E00DF12700005DDF
:100ED0003B4921F81400641C9DF82600A042F4DC74
:100EE000374800883749088035484088C0EB0010F3
:100EF00040003549098848430A2190FBF1F0334905
:100F000008800798012818D1002405E00DF127007A
:100F1000005D2F490855641C9DF82600A042F5DCB1
:100F20002B4801782B4803780822684601F00AF91B
:100F30001C2269462848FFF7C2F90798032818D1F0
:100F4000002405E00DF12700005D24490855641CCC
:100F50009DF82600A042F5DC204801781D48037862
:100F60000822684601F0EEF81C2269461C48FFF78B
:100F7000A6F90798042818D1002405E00DF12700F0
:100F8000005D18490855641C9DF82600A042F5DC58
:100F9000144801780F4803780822684601F0D2F817
:100FA0001C2269461048FFF78AF90CB010BD0000FA
:100FB00000680040F8610020480000204A0000203E
:100FC0004862002012000020100000200E000020C7
:100FD00008620020150000203463002028620020F1
:100FE0006C630020386200208863002010B5002167
:100FF000837A012202FA03F13D4A126842F00102AB
:101000003B4B1A603A4A1C3212688A43384B1C33F5
:101010001A60027BCAB9364A0C3212688A43344BD2
:101020000C331A604288C38842EA0343304A403294
:10103000847A42F834300288838842EA03432C4A97
:101040004032847A02EBC4025360027B012A19D138
:10105000274A0C3212680A43254B0C331A60428827
:10106000038842EA0343224A4032847A42F8343009
:10107000C288838842EA03431D4A4032847A02EBE5
:10108000C4025360C27A3AB9194A121D12688A43DF
:10109000174B1B1D1A6006E0154A121D12680A4301
:1010A000134B1B1D1A60028932B9114A143212689F
:1010B0008A430F4B14331A600289012A06D10C4A65
:1010C000143212680A430A4B14331A60427B012A15
:1010D00006D1074A1C3212680A43054B1C331A60BA
:1010E000034A126822F00102014B1A6010BD000091
:1010F000006600401AB143690B43436102E0436953
:101100008B434361704730B50246002000231468CA
:1011100024F002041460146844F00104146000E038
:101120005B1C546804F001041CB94FF6FF74A34221
:10113000F6D1546804F001040CB900206CE08C79FD
:10114000012C04D1146844F08004146003E0146896
:1011500024F080041460CC79012C04D1146844F08C
:101160004004146003E0146824F0400414600C7A16
:10117000012C04D1146844F02004146003E01468C6
:1011800024F0200414604C7A012C04D1146844F03B
:101190001004146003E0146824F0100414608C7AC6
:1011A000012C04D1146844F00804146003E01468AE
:1011B00024F008041460CC7A012C04D1146844F0A3
:1011C0000404146003E0146824F0040414608C78B0
:1011D000A407CD7844EA05640D7944EA05444D79C5
:1011E00044EA05540D886D1E2C43D461146824F024
:1011F00001041460002300E05B1C546804F0010447
:101200001CB14FF6FF74A342F6D1546804F00104F8
:101210000CB1002000E0012030BD10B500F5D873FE
:1012200003EB01131B6803F004031372137A53B921
:1012300000F5D87303EB01131B6840F2FF7404EA56
:101240005353136009E000F5D87303EB01131B68D7
:101250006FF0604404EAD303536000F5D87303EBE6
:1012600001131B6803F00203537200F5D87303EBFC
:1012700001135B6803F00F03937200F5D87303EB5F
:1012800001135B681B0AD37400F5D87303EB0113D9
:101290009B68D37200F5D87303EB01139B681C0A9B
:1012A000147300F5D87303EB01139B681C0C547383
:1012B00000F5D87303EB01139B681B0E937300F5C5
:1012C000D87303EB0113DB68D37300F5D87303EB1A
:1012D0000113DB681C0A147400F5D87303EB0113C7
:1012E000DB681C0C547400F5D87303EB0113DB6846
:1012F0001B0E937421B9C36843F02003C36003E05D
:10130000036943F02003036110BD10B502460020BD
:10131000936803F08063B3F1806F00D110E09368AD
:1013200003F00063B3F1006F01D1012008E093687E
:1013300003F08053B3F1805F01D1022000E004206C
:10134000042874D002F5C07303EB00131B6803F08C
:10135000010402F5C07303EB00131C600B7A7BB928
:101360004B7A0C8843EA445302F5C07404EB001432
:101370002468234302F5C07404EB0014236010E0DA
:101380000B7A4C6843EAC4034C7A234302F5C074D9
:1013900004EB00142468234302F5C07404EB00142A
:1013A00023608B7A03F00F038B7202F5C07303EB9B
:1013B00000135B6823F00F0402F5C07303EB001306
:1013C0005C6002F5C07303EB00135B688C7A234307
:1013D00002F5C07404EB001463608B7B1C064B7B2E
:1013E00044EA03440B7B44EA0323CC7A234302F50B
:1013F000C07404EB0014A3608B7C1C064B7C44EA95
:1014000003440B7C44EA0323CC7B234302F5C074E2
:1014100004EB0014E36002F5C07303EB00131B68D8
:1014200043F0010402F5C07303EB00131C6010BD10
:1014300010B50246002321B1012907D002290FD19E
:1014400009E090681D4C00EA04030BE090681C4C16
:1014500000EA040306E090681A4C00EA040301E085
:10146000002300BF00BF184C181BA34216D007DC96
:1014700083B16FF08060184470B1022818D111E078
:10148000B0F5007F10D0114C204448B1B0F5003FBA
:101490000ED10BE002230DE000230BE0002309E056
:1014A000002307E0012305E0012303E0012301E01D
:1014B000002300BF00BFD8B210BD0000030000042D
:1014C0000003000800000310000100080001FFF7FE
:1014D00010B500F01FF800F019F810BD10B5002489
:1014E00000BF00BFFEF7D4FE044600BF00BF1021BE
:1014F000054801F073F800BF00BF2046FEF7CCFEA0
:1015000000BF00BF10BD0000946F002010B5FFF7B2
:10151000E5FF10BD10B500200249086000F00AF890
:1015200010BD0000B80000200149086070470000AD
:10153000B800002010B5FFF753FB044608480068C8
:1015400040F080700649086000200649486008465F
:10155000006840F0010008602046FFF7E5FF10BD7D
:10156000FCED00E0001000E0014948687047000011
:10157000001000E030B502460B464FF6FF70002128
:1015800012E0555C684000240AE000F0010525B136
:1015900040104AF20105684000E04010651CACB202
:1015A000082CF2DB4D1CA9B29942EADB30BD0EB526
:1015B00000BF08E002A800210A230A46CDE9001076
:1015C000084602F0D7FBF5E72DE9FE4305460E4637
:1015D00000240027A046A146012D4ED137E05048F7
:1015E000848897B94F480089A04203DA304607F053
:1015F000BBF823E0032001F032F8042001F02FF8BB
:10160000304607F0C5F8012718E0B8F1000F10D1F7
:1016100044484089A04203DD304607F0B9F80DE0A8
:10162000032001F01CF8042001F019F84FF0010824
:1016300004E000F0E3FC4FF001090CE002A80021F7
:101640000A230A46CDE90010084602F093FB36480B
:10165000807C0228C3DB00BFB9F1000F03D000205B
:101660003249887002E0012030498870032000F080
:10167000F6FF042000F0F3FF4FE0022D4DD137E0DC
:101680002748848897B927480089A04203DA304662
:1016900007F06AF823E0042000F0E1FF032000F0E7
:1016A000DEFF304607F074F8012718E0B8F1000FAC
:1016B00010D11C484089A04203DD304607F068F88D
:1016C0000DE0042000F0CBFF032000F0C8FF4FF036
:1016D000010804E000F092FC4FF001090CE002A8C0
:1016E00000210A230A46CDE90010084602F042FB19
:1016F0000F48807C0228C3DB00BFB9F1000F03D084
:1017000000200A49C87002E001200849C87004207E
:1017100000F0A5FF032000F0A2FFBDE8FE8300005B
:10172000360000203C0000206C63002021000020D7
:10173000886300202DE9FE4305460E46002400275D
:10174000A046A146012D4ED137E05048448897B9B4
:101750004F484088A04203DA304607F0E5F823E01E
:10176000012000F07CFF022000F079FF304607F0F6
:10177000EFF8012718E0B8F1000F10D14448808835
:10178000A04203DD304607F0E3F80DE0012000F051
:1017900066FF022000F063FF4FF0010804E000F054
:1017A0002DFC4FF001090CE002A800210A230A4693
:1017B000CDE90010084602F0DDFA3648807C0228A8
:1017C000C3DB00BFB9F1000F03D00020324908701D
:1017D00002E0012030490870012000F040FF0220A3
:1017E00000F03DFF4FE0022D4DD137E027484488FF
:1017F00097B927484088A04203DA304607F094F8AA
:1018000023E0022000F02BFF012000F028FF3046EB
:1018100007F09EF8012718E0B8F1000F10D11C481E
:101820008088A04203DD304607F092F80DE00220E8
:1018300000F015FF012000F012FF4FF0010804E056
:1018400000F0DCFB4FF001090CE002A800210A23A4
:101850000A46CDE90010084602F08CFA0F48807C59
:101860000228C3DB00BFB9F1000F03D000200A49F2
:10187000487002E0012008494870022000F0EFFEA5
:10188000012000F0ECFEBDE8FE83000036000020E1
:101890003C00002034630020210000205063002021
:1018A0000EB50025002400BF3BE01E48007858B16B
:1018B00001201D490860601CC4B2052C04D1002021
:1018C00008601849087000241848007868B10120A1
:1018D00015490860601CC4B20A2C06D100200860BB
:1018E00010490870002411490870681CC5B20A2DFF
:1018F00005D100200E49086001200E494870142DC2
:1019000006D101200A49086000200A4948700025D4
:1019100002A8002132230A46CDE90010084602F051
:1019200029FAC2E74A0000208C0240421F00002032
:10193000A0824042C464002010B50A490A4800F061
:101940001FF968B1012240F22661084806F0F6FB53
:101950000449054800F03EF80021034800F054F81F
:1019600010BD00002080002070600240004C00404C
:1019700070B500261349144800F002F908B3012499
:1019800019E0002509E005EB4500104901EB400096
:1019900030F814000644681CC5B21E2DF3DB1E206F
:1019A000B6FBF0F01421B0FBF1F0094921F8140066
:1019B0000026601CC4B2032CE3DB0249024800F09D
:1019C00009F870BD208000101064024030610020D2
:1019D000360000200246094B9A4201D2084801E035
:1019E0000648103801F000531BB1064B0B40C36092
:1019F00002E0044B0B40836070470000106402401B
:101A0000006002407D0F7D0F21B1026842F00102AB
:101A1000026003E0026822F00102026070470000E9
:101A2000016821F0010101600021016041608160D5
:101A3000C1600161212141614A49884204D13D21AF
:101A4000484A103A91608CE046491831884205D1E5
:101A50004FF47461434A103A916082E04149303159
:101A6000884205D14FF474113E4A103A916078E0F3
:101A70003C494831884205D14FF07461394A103AE7
:101A800091606EE037496031884204D13649354A69
:101A9000103AD16065E033497831884204D1334946
:101AA000304A103AD1605CE02E499031884204D12E
:101AB0002F492C4A103AD16053E02A49A831884274
:101AC00005D14FF03D51274A103AD16049E02949EC
:101AD000884204D13D21274A083A116041E0254956
:101AE0001831884205D14FF47461224A083A1160D6
:101AF00037E020493031884205D14FF474111D4A36
:101B0000083A11602DE01B494831884205D14FF059
:101B10007461184A083A116023E01649603188421E
:101B200004D11149134A121F11601AE0114978318A
:101B3000884204D10D490F4A121F116011E00D496E
:101B40009031884204D10A490A4A121F116008E004
:101B50000849A831884204D14FF03D51054A121F6F
:101B600011607047106002403D000020400F0020CF
:101B700000003D20106402400146486880B2704772
:101B800070B50246002000240025124EB24201D258
:101B9000114B01E00F4B103B104E0E4036B11E268C
:101BA00006EAD124166806EA040502E0566906F042
:101BB000800501F000560EB15C6800E01C68084E1C
:101BC000344004EA010616B10DB1012000E0002006
:101BD00070BD000010640240006002403C0F3C0FEA
:101BE0007D0F7D0F10B501F080034BB122B1436929
:101BF00043F08003436103E0436923F080034361C2
:101C000080290BD02AB1036801F01E04234303602E
:101C100004E0036801F01E04A343036010BD00004C
:101C200010B500220268134B1A40CC680B6823439E
:101C30004C6923438C692343CC6923430C6A2343B7
:101C40004C6A23438C6A23434C6B23438C6B2343A2
:101C50001A430260426922F00702D1E90B342343A0
:101C60001A4342610B6943604B6883608B68C360B1
:101C700010BD00003F801CF04160704700B58FB080
:101C80000121480505F070FB00213348FFF7BCFE39
:101C90003148FFF7C5FE4FF0006000902F480190DB
:101CA0002F48029040200390FA20049000200590D5
:101CB0004FF4806006900020079008904FF48070E9
:101CC000099000200B9003200C9000040A90002043
:101CD0000D900E9069462048FFF7A2FF00211E4894
:101CE000FFF792FE012210211B48FFF77BFF002126
:101CF00019481838FFF788FE17481838FFF790FE84
:101D00004FF00060009015480190164802900020A6
:101D10000390FA200490002005904FF48060069014
:101D20000020079008904FF48070099000200B90DD
:101D300003200C9000040A9000200D900E9069463C
:101D400005481838FFF76CFF012103481838FFF7E2
:101D50005BFE0FB000BD0000A060024004440040E4
:101D600030600020365F002000B591B001214805A9
:101D700005F0FAFA00213A48FFF746FE3848FFF727
:101D80004FFE4FF0006001903648029036480390B5
:101D900040200490FA200590002006904FF48060C7
:101DA00007900020089009904FF480700A9000205E
:101DB0000C9003200D9000040B9000200E900F90CB
:101DC00001A92748FFF72CFF00212548FFF71CFE3B
:101DD000012210212248FFF705FF0021204830385A
:101DE000FFF712FE1E483038FFF71AFE4FF0006072
:101DF00001901C4802901D48039000200490FA2096
:101E00000590002006904FF4806007900020089015
:101E100009904FF480700A9000200C9003200D90E0
:101E200000040B9000200E900F9001A90C48303850
:101E3000FFF7F6FE01210A483038FFF7E5FD0E20D6
:101E40008DF8400002208DF8410005208DF84200F9
:101E500001208DF8430010A800F0F4FC11B000BD83
:101E600058600240044800403C5E0020425D002073
:101E700000B591B00121480505F076FA00213A48F5
:101E8000FFF7C2FD3848FFF7CBFD4FF0006001902F
:101E9000364802903648039040200490FA2005907E
:101EA000002006904FF48060079000200890099071
:101EB0004FF480700A9000200C9003200D900004D5
:101EC0000B9000200E900F9001A92748FFF7A8FE65
:101ED00000212548FFF798FD012210212248FFF735
:101EE00081FE002120483038FFF78EFD1E48303833
:101EF000FFF796FD4FF0006001901C4802901D48CE
:101F0000039000200490FA200590002006904FF4E2
:101F1000806007900020089009904FF480700A902C
:101F200000200C9003200D9000040B9000200E90D8
:101F30000F9001A90C483038FFF772FE01210A48C2
:101F40003038FFF761FD0F208DF8400003208DF839
:101F5000410001208DF842008DF8430010A800F0E8
:101F600071FC11B000BD000070600240044C0040E4
:101F7000C4670020BE68002000B58FB0012188052D
:101F800005F0F2F900211948FFF73EFD1748FFF769
:101F900047FD00200090164801901648029000204E
:101FA00003905A200490002005904FF48060069022
:101FB000400007900890C010099000200B9003206B
:101FC0000C9000040A9000200D900E90694607487E
:101FD000FFF726FE012210210448FFF703FE01212E
:101FE0000248FFF711FD0FB000BD00001064024071
:101FF0004C20014030610020704700001CB50020DB
:102000000090019049484088494908800846008866
:1020100048490988401A00902DE045480088454904
:10202000098888420BDD009C002C01DB214600E082
:102030006142414A1278514388B206F075FC3C482F
:1020400000883C49098888420BDA009C002C01DB9F
:10205000214600E06142384A1278514388B206F0C6
:1020600077FC324840883249088008460088314968
:102070000988401A00900098002801DB014600E022
:1020800041420229C9DC012000F0E9FA022000F0F7
:10209000E6FA26488088264948800846408825492F
:1020A000C988401A01902DE0214840882149C988FB
:1020B00088420BDD019C002C01DB214600E06142DF
:1020C0001D4A1278514388B206F04EFB18484088EA
:1020D0001849C98888420BDA019C002C01DB214693
:1020E00000E06142144A1278514388B206F050FB76
:1020F0000E4880880E494880084640880D49C988A6
:10210000401A01900198002801DB014600E041429D
:102110000229C9DC032000F0A2FA042000F09FFA93
:10212000012006490870064908701CBD36000020D1
:102130001A0000203C000020200000201E0000208B
:102140001F0000202DE9FF4F87B0884691469A4630
:102150000024D3466FEA0800C5B20026002700BF5E
:1021600000208DF800008DF811008DF81200059008
:102170008DF8180000240CE045FA04F000F001008E
:1021800028B19DF81200401CC0B28DF81200601CEE
:10219000C4B2082CF0DB00240AE045FA04F000F099
:1021A000010010B9701CC6B200E00824601CC4B263
:1021B000082CF2DB00240AE005FA04F000F08000AD
:1021C00010B9781CC7B200E00824601CC4B2082C07
:1021D000F2DB344611E045FA04F000F0010050B99A
:1021E0009DF800100DF1010044549DF80000401CC2
:1021F000C0B28DF80000601CC4B2C7F10800A04254
:10220000E9DC9DF8000000281FDD01208DF8110099
:102210009DF80000012818DD002411E00DF10100F7
:10222000611C415C005D081A012800D106E09DF8A0
:102230001100401CC0B28DF8110000BF601CC4B278
:102240009DF80000401EA042E8DC9DF8120018B97D
:1022500001208DF818003DE09DF8000000282FDDDA
:102260009DF81100012835D1BBF1020F10D1344681
:102270000BE045FA04F000F0010018B10120A04085
:10228000854300E00824601CC4B2082CF1DB67E73A
:10229000BBF1010F10D13C460BE005FA04F000F051
:1022A000800018B180202041854300E00824601C94
:1022B000C4B2082CF1DB53E701208DF8180009E0C7
:1022C0009DF81200484502DCB81B059002E0012091
:1022D0008DF818001C2269460548FDF7F0FF1C2206
:1022E00069460798FDF7EBFF0BB0BDE8F08F0000E3
:1022F00018630020F0B50A4600210023002400BF27
:102300003DE0012505FA01F3156805EA03049C4246
:1023100034D105684F000326BE40B54305601579EA
:102320004E00B5400668354305601579012D02D091
:102330001579022D16D185684F000326BE40B5439E
:10234000856055794E00B54086683543856045689F
:1023500001268E40B5434560456896798E40B6B2F9
:1023600035434560C5684F000326BE40B543C56090
:10237000D5794E00B540C6683543C560491C102963
:10238000BFD3F0BDF0B5002300244D07ED0E02FAD7
:1023900005F3CE1000F1200555F826504E07F70E34
:1023A0000F26BE40B543CF1000F1200646F8275057
:1023B000CE1000F1200555F8265045EA0304CE1052
:1023C00000F1200545F82640F0BD418370470183A8
:1023D000704700BFFEE7000010B501461B4A1268B7
:1023E000521A1A4B9A601A469268DB68D21A00EEAB
:1023F000102AB8EEC00A154AD2ED050A20EE200ACE
:1024000092ED061AD2ED020AF8EEE00A01EE200A79
:1024100092680E4BDB68022404FB13220B4B1B69F2
:102420001A4400EE902AF8EEE00A084A92ED071AE4
:1024300001EE200ABDEEC00A10EE100AD268034B6E
:102440001A611A469268DA6010BD000068620020C6
:1024500010B501461B4A1268521A1A4B9A601A4666
:102460009268DB68D21A00EE102AB8EEC00A154A4C
:10247000D2ED050A20EE200A92ED061AD2ED020AEC
:10248000F8EEE00A01EE200A92680E4BDB680224A7
:1024900004FB13220B4B1B691A4400EE902AF8EE42
:1024A000E00A084A92ED071A01EE200ABDEEC00AC2
:1024B00010EE100AD268034B1A611A469268DA606D
:1024C00010BD0000886200201CB50121022004F02C
:1024D0004BFF0121102004F047FF4FF440700090A3
:1024E00001208DF8040000208DF8060003208DF8EF
:1024F000050001208DF8070069460F48FFF7FAFE36
:102500004FF440710C48FFF762FF03200090012058
:102510008DF8040000208DF8060003208DF80500DA
:1025200001208DF8070069460448FFF7E3FE032108
:102530000248FFF74CFF1CBD00040240001002409F
:1025400000BF00F07EF8FFF759FD35E01B4800782A
:1025500060B31B4800880A281CDD1A48807980B1C6
:10256000002019490870194890ED001A1848D0ED5C
:10257000000A184890ED000A1148008804F056FD42
:102580001AE0002000F06BF80F480078A0B9FFF7C0
:1025900035FD11E001200B4988710B48007808B91E
:1025A000FFF72CFD002000F05AF805E0142300226C
:1025B0001146104606F022F8C8E700001600002079
:1025C0000E0000202B0000201E00002080000020B4
:1025D0007C0000207800002000BFFEE730B50546F3
:1025E0000C4622460021284600F001F830BD2DE9B6
:1025F000F04105460B4694460027002402E03F02C6
:102600001F43641C042CFAD3604605F003062946D8
:1026100046B1344603E001F8013B401E641C08B19A
:10262000042CF8D30A4601E080C2001F0428FBD224
:10263000114602E001F8013B401E0028FAD1BDE836
:10264000F08110B5642302220021084605F0D6FF70
:10265000FEF75AF8FEF76AF8FEF7A4F810BD10B5B9
:102660000446002C06DD052C04DA00212046FEF786
:10267000D5F810E07CB900210120FEF7CFF8002149
:102680000220FEF7CBF800210320FEF7C7F8002157
:102690000420FEF7C3F810BD70B505460C460026B1
:1026A00004B908E014480088844203D9124800881D
:1026B000464200E06642012D06D0022D09D0032DCE
:1026C0000CD0042D14D10EE031460120FEF7A6F8FF
:1026D0000FE031460220FEF7A1F80AE03146032060
:1026E000FEF79CF805E031460420FEF797F800E07D
:1026F00000BF00BF70BD00000A00002070B5044696
:102700000D4613480088854201D911480588012CDF
:1027100006D0022C09D0032C0CD0042C14D10EE0CE
:1027200029460120FEF77AF80FE029460220FEF73D
:1027300075F80AE029460320FEF770F805E02946FF
:102740000420FEF76BF800E000BF00BF70BD000082
:102750000A000020704708B50A208DF8000000200C
:102760008DF8010001208DF802008DF80300684605
:1027700000F068F817208DF8000000208DF80100A7
:1027800002208DF8020001208DF80300684600F059
:1027900059F828208DF8000000208DF80100032052
:1027A0008DF8020001208DF80300684600F04AF819
:1027B00034208DF8000001208DF8010000208DF8F4
:1027C000020001208DF80300684600F03BF8262047
:1027D0008DF8000002208DF8010000208DF8020025
:1027E00001208DF80300684600F02CF838208DF8A1
:1027F000000000208DF801008DF8020001208DF806
:102800000300684600F01EF827208DF80000022023
:102810008DF801008DF8020001208DF80300684654
:1028200000F010F847208DF8000003208DF801001B
:1028300002208DF8020001208DF80300684600F0A8
:1028400001F808BD70B5002100230F22C4781CB325
:10285000174C246804F4E064C4F5E064C4F3072171
:10286000C1F10404E3B20A4144789C40E1B28478A7
:10287000144021430C07210E0E4C05786155047855
:1028800004F01F050124AC4005786D11AD0005F181
:10289000E025C5F8004109E0047804F01F05012493
:1028A000AC40054D0678761145F8264070BD000015
:1028B0000CED00E000E400E080E100E002490143AB
:1028C000024A1160704700000000FA050CED00E0BC
:1028D0001548164816481748174818481848194800
:1028E00019481A481A481B481B481C481C481D48D0
:1028F0001D481E481E481F481F48204820482148A0
:10290000214822482248234823482448244825486F
:10291000254826482648274827482848284829483F
:10292000294800BF70470000548F0008B48E00088B
:10293000B88E0008BC8E0008C08E0008C48E000847
:10294000C88E0008CC8E0008D08E0008D48E0008F7
:10295000D88E0008DC8E0008E08E0008E48E0008A7
:10296000E88E0008EC8E0008F08E0008F48E000857
:10297000F88E0008FC8E0008008F0008048F000805
:10298000088F00080C8F0008108F0008148F0008B3
:10299000188F00081C8F0008208F0008248F000863
:1029A000288F00082C8F0008308F0008348F000813
:1029B000388F00083C8F0008408F0008448F0008C3
:1029C000488F00084C8F0008508F000810B503484E
:1029D000006810B101480068804710BDD000002099
:1029E00070B5044600F0C2F8002048490870484914
:1029F00008704849087048490860484908604849D3
:102A000008704849087048490870484908604849B2
:102A100008604849086048490870484800680A2129
:102A2000B0FBF1F0464908604648006858B1464896
:102A3000056845B14348066803E0761E002028601B
:102A40002D1D002EF9D10020404908604049086042
:102A500040490860404908604049086040490860B2
:102A6000404908604049087002F0ECF902F0CCFAE5
:102A7000204601F07BFB208800B170BD204601F0AC
:102A80005DFF208800B1F8E7204601F07FFF208835
:102A900000B1F2E7204602F04BF8208800B1ECE7E5
:102AA000204602F0FFF9208800B1E6E7204602F058
:102AB0001FFC208800B1E0E7204602F041FF20889B
:102AC00000B1DAE7204601F0A5FE208800B1D4E786
:102AD000204601F0BDFC208800B1CEE7204603F07F
:102AE0009FFE208800B1C8E7204602F06DFE2088D6
:102AF00000B1C2E7204603F0EFFE208800B1BCE73A
:102B000001F05CFAFFF7E4FE00BFB6E7E400002046
:102B1000E50000202C010020840100208801002015
:102B200012010020130100201401002020010020C8
:102B3000240100202801002034010020148F000807
:102B400030010020E48E0008E08E0008C400002060
:102B5000C8000020CC000020D0000020D4000020BD
:102B6000D8000020DC000020620100200648006838
:102B70000649096800EB81000549086008460068BD
:102B800020F0070008607047E08E0008E48E00081F
:102B90008C01002008480078012800D070470748C1
:102BA0000078FA2800DBF9E704480078401C034964
:102BB000087000BFF2E70000E5000020E4000020FC
:102BC00010B500242D480078012800D010BD00BFAA
:102BD000FDF75EFB044600BF2948007828B900BF16
:102BE0002046FDF759FB00BFF0E725480078401E5E
:102BF0002349087008460078002805DD00BF2046FC
:102C0000FDF74AFB00BFE1E71E480078002805DD1C
:102C100000BF2046FDF740FB00BFD7E702F0FEF8FB
:102C2000194908700846007800EB4000174951F830
:102C3000200017490860084600681649096888425C
:102C400005D100BF2046FDF727FB00BFBEE71048B7
:102C50000068D0F89000401C0D490968C1F8900048
:102C60000D480068401C0C490860FDF7EFFB00BFF1
:102C70002046FDF711FB00BF00BFA7E7E5000020DD
:102C8000E40000202C01002013010020C885002052
:102C900088010020840100205801002010B5002484
:102CA0001F480078002800DD10BD1E48007800286D
:102CB00000DDF9E700BFFDF7EBFA044600BF02F0C4
:102CC000ADF8194908700846007800EB4000174934
:102CD00051F820001649086008460068154909683F
:102CE000884205D100BF2046FDF7D6FA00BFDBE7DA
:102CF0000F480068D0F89000401C0D490968C1F8E1
:102D000090000D480068401C0B490860FDF799FBD6
:102D100000BF2046FDF7C0FA00BF00BFC4E70000B7
:102D2000E40000202C01002013010020C8850020B1
:102D300088010020840100205801002070B504465D
:102D4000002518480078002803DD46F662502080F0
:102D500070BD15480078012803D045F689602080B1
:102D6000F6E712480078FA2803DB45F209202080B4
:102D7000EEE700BF00BFFDF78BFA054600BF00BFBE
:102D80000A480078401C0949087002F01DFA00BF8B
:102D900000BF2846FDF780FA00BF00BF002020805A
:102DA00000BFD5E7E4000020E50000202C01002052
:102DB0002DE9F04105460C461646002700BF00BF2E
:102DC000FDF766FA074600BF00BF012D03D00020C3
:102DD0000D49087002E001200B49087014B10B483E
:102DE000046006E00A4800680A21B0FBF1F00749D8
:102DF000086000BF00BF3846FDF74EFA00BF00BFB5
:102E000000203080BDE8F081340100203001002036
:102E1000148F000870B5044600252048007800286B
:102E200003DD46F66550208070BD1D4800780128FE
:102E300003D045F689602080F6E71A48007818B973
:102E400046F664502080EFE700BF00BFFDF720FA90
:102E5000054600BF00BF13480078401E11490870A6
:102E60000846007800280ADD00BF00BF2846FDF7AD
:102E700013FA00BF00BF46F663502080D4E702F08B
:102E8000B1F900BF00BF2846FDF706FA00BF00BF3A
:102E9000FFF704FF0020208000BFC5E7E40000200A
:102EA000E50000202C01002010B5044612480078EF
:102EB000E8B901F0B3FF11490870084600781049DD
:102EC00008700E48007800EB40000E4951F82000D1
:102ED0000D490860084600680C4908600120064951
:102EE0000870FDF79DFA43F69920208002E045F630
:102EF0008A60208010BD0000E50000201301002042
:102F000012010020C88500208801002084010020D3
:102F10002DE9F04107464FF0000800BF00BFFDF764
:102F2000B7F9804600BF00BF00203D4908603D4919
:102F300008803D4908803D4908603D4908603D4999
:102F400008603D4908603D49088100BF00BF404618
:102F5000FDF7A2F900BF00BF00BF00BFFDF798F961
:102F6000804600BF00BF3648046800BF00BF40462F
:102F7000FDF792F900BF00BF21E000BF00BFFDF7E1
:102F800087F9804600BF00BF00207834E0632060EE
:102F90002063A061A082E0826062A062FEF7E4FA92
:102FA0002062783C04F164060020B081D4F8BC4073
:102FB00000BF00BF4046FDF76FF900BF00BF002C07
:102FC000DBD100BF00BFFDF763F9804600BF00BF43
:102FD0001C48056800BF00BF4046FDF75DF900BF13
:102FE00000BF12E000BF00BFFDF752F9804600BFEE
:102FF00000BF05F120060020B081AD6900BF00BF11
:103000004046FDF749F900BF00BF002DEAD103F0AB
:10301000E3FA03F05DFD00203880BDE8F081000098
:10302000F8000020F200002042010020540100209E
:10303000680100207401002024010020BC850020CC
:103040005C01002018010020F8B5044600266946FE
:10305000324800F08FFDBDF8000018B1BDF8000047
:103060002080F8BD6A460021022000F0F7FDBDF87F
:10307000000018B1BDF800002080F2E700BF00BFDB
:10308000FDF706F9064600BF00BF0020244908608E
:1030900000BF00BF3046FDF7FFF800BF00BF0025AE
:1030A0002048006820490968884205D91D48006801
:1030B0001D490968B0FBF1F525B91A4800680A21D5
:1030C000B0FBF1F56A460021284600F0C7FD6946CD
:1030D000124800F063FABDF8000018B1BDF8000016
:1030E0002080BEE700BF00BFFDF7D2F8064600BF54
:1030F00000BF00200D490860094800680C490860BD
:1031000001200C49087000BF00BF3046FDF7C4F82D
:1031100000BF00BF0020208000BFA2E7508A00202F
:1031200044010020148F0008FC8E00085401002088
:10313000480100205001002010B50348006810B17C
:1031400001480068804710BDD40000202DE9FF4FE2
:1031500087B004469046DDE91BA5DDE91496179F6C
:103160000020039087480078002805DD47F24A10C8
:1031700028800BB0BDE8F08F1CB947F2AD10288055
:10318000F7E7B8F1000F03D147F24F102880F0E7BE
:103190001EB946F62F602880EBE77B48006887421F
:1031A00003D246F630602880E3E71698B84203D38E
:1031B00046F631602880DCE7B9F1400F03D346F2D0
:1031C00073202880D5E7B9F1000F06D16F488442FB
:1031D00003D046F273202880CBE7B9F13F0F06D128
:1031E0006B48844203D046F273202880C1E7204612
:1031F00002F0B6FB002028800AF0010090B10AF02E
:10320000020078B105960020069008E0002105989C
:1032100001600598001D05900698401C06900698D0
:10322000B842F3D3169806EB80000490CDE9007AFB
:1032300032464046049B0A9900F06EFB0590C4F8A4
:1032400028800A98E0620898206284F837900598F0
:1032500020600498A06019986065199818B94D48C5
:103260000068A06501E01998A0651A986060666220
:10327000A763A4F83CA04FF0000B08E0002104F184
:103280007C0040F82B100BF1010000F0FF0BBBF1AC
:10329000000FF3D004F16400189901F0C3FB20463D
:1032A00000F082F800BF00BF00BFFCF7F1FF039001
:1032B00000BF00BF38480078401C3749087000BF85
:1032C00000BF0398FCF7E8FF00BF00BF00BF94F801
:1032D000370001F0C3FD204601F0DEFE204602F07B
:1032E000F5FA2E480088401C2C4908802C480078AC
:1032F00001282DD000BF00BF00BFFCF7C9FF03901D
:1033000000BF00BF24480078401E234908700846CB
:103310000078A0B923480088002809DD00BF00BF5D
:103320000398FCF7B9FF00BF00BF01F023FF0DE0D9
:1033300000BF00BF0398FCF7AFFF00BF06E000BF6F
:1033400000BF0398FCF7A8FF00BF00BF00BF10E755
:1033500000BF00BF00BFFCF79BFF039000BF00BF92
:103360000D480078401E0C49087000BF00BF03984C
:10337000FCF792FF00BF00BF00BFFFF78FFC00BF4C
:10338000F7E60000E4000020108F0008F884002019
:1033900034840020300100202C0100206001002036
:1033A000E5000020F000002010B504460348006846
:1033B00018B1204601490968884710BDC4000020A3
:1033C00070B504460D46002667480078002803DDE6
:1033D00047F24E10288070BD6448844203D147F202
:1033E0004C102880F7E76248844203D147F24D1021
:1033F0002880F0E77CB900BF00BFFCF749FF064614
:1034000000BF00BF5B48046800BF00BF3046FCF748
:1034100043FF00BF00BF00BF00BF00BFFCF738FF85
:10342000064600BF00BF54480078401C524908704F
:1034300000BF00BF3046FCF72FFF00BF00BF00BF3A
:1034400094F8360008282DD2DFE800F004090E10A9
:10345000080A0F11204601F05FFE54E053E000BF60
:10346000204603F09DF84EE000BF00BF00BF20469D
:1034700003F096F894F83400082810D2DFE800F042
:1034800004070508090A0B0600BF00BF08E000BFDB
:1034900000BF00BF00BF204601F011FC00E000BFEC
:1034A00000BF30E000BF00BF00BFFCF7F1FE0646E2
:1034B00000BF00BF30480078401E2F490870084602
:1034C0000078A0B92D480088002809DD00BF00BFA2
:1034D0003046FCF7E1FE00BF00BF01F04BFE0DE0FF
:1034E00000BF00BF3046FCF7D7FE00BF06E000BFBC
:1034F00000BF3046FCF7D0FE00BF00BF00BF46F65D
:103500002D60288067E700BF04F1640001F068FACD
:10351000204600F037F8204602F0F0F918480088FD
:10352000401E17490880204602F01AFAFF2084F84E
:10353000360000BF00BF00BFFCF7AAFE064600BF72
:1035400000BF0D480078401E0B49087000BF00BF47
:103550003046FCF7A1FE00BF00BF00BF002028805E
:10356000FFF79CFB00BF36E7E40000203484002016
:10357000F8840020840100202C010020F0000020AD
:103580006001002010B504460348006818B12046C9
:1035900001490968884710BDC80000207FB504466E
:1035A0000D46002600BF00BFFCF772FE064600BFB6
:1035B00000BF1CB11548006884420AD100BF00BF9B
:1035C0003046FCF769FE00BF00BF47F25710288065
:1035D0007FBD00BF00BF3046FCF75EFE00BF00BFEE
:1035E0000B48007800280BDD002000900190034676
:1035F00002462146CDE90205064800F061FFE7E7F3
:103600002946204602F024FB00BFE1E784010020A8
:10361000E40000205452455310B5044603480068A6
:1036200018B1204601490968884710BDCC00002028
:103630002DE9F04780460E4614461D464FF000091E
:103640007D480078002805DD46F2AE102880002075
:10365000BDE8F0871EB1B6F5004F02D100E000BF13
:1036600004E045F6256028800020F1E700BF0CB19A
:103670000020206000BF00BFFCF70AFE814600BFAB
:1036800000BF6E480068406CA8B36C480068406C8E
:10369000401E6A490968486468480068476C1CB164
:1036A00066480068006C2060FDF75EFF63490968AA
:1036B000096C401A61490968C1F8A4005F480068B4
:1036C000D0F8A8005D490968D1F8A410884207D253
:1036D0005A480068D0F8A40058490968C1F8A80001
:1036E00000BF00BF4846FCF7D7FD00BF00BF002069
:1036F00028803846ACE7FFE706F4004058B100BF29
:1037000000BF4846FCF7C8FD00BF00BF46F2B0103E
:10371000288000209CE74A48007800280BDD00BF85
:1037200000BF4846FCF7B8FD00BF00BF46F6635037
:10373000288000208CE700BF41480078401C4049A9
:10374000087000BF00BF4846FCF7A6FD00BF00BFE1
:1037500000BF434607220021084601F0F5F900BFEB
:1037600000BF00BFFCF794FD814600BF00BF344896
:103770000078401E3249087000BF00BF4846FCF781
:103780008BFD00BF00BF00BFFFF788FA00BF00BF7E
:10379000FCF77EFD814600BF00BF2848006890F816
:1037A000350020B1012826D0032834D12CE0FCB10B
:1037B00022480068006C2060FDF7D6FE1F490968AA
:1037C000096C401A1D490968C1F8A4001B4800682B
:1037D000D0F8A80019490968D1F8A410884207D286
:1037E00016480068D0F8A40014490968C1F8A80078
:1037F0000020288013E01CB110480068006C206095
:1038000046F2A91028800AE00CB10020206047F29F
:10381000D920288003E046F62E60288000BF00BF34
:1038200006480068476C00BF00BF4846FCF734FDFF
:1038300000BF00BF38460BE7E400002084010020F1
:103840002C0100202DE9F04705460E4617461C4680
:103850004FF0000A2E480078002804DD47F2591086
:103860002080BDE8F0871EB946F2D5202080F8E719
:103870001FB946F2D5202080F3E700BF00BFFCF758
:1038800007FD824600BF00BF0DB9224805682868C1
:1038900068B900BF00BF5046FCF7FEFC00BF00BF88
:1038A00000203060386047F252102080D9E795F848
:1038B0003C0000F0010068B900BF00BF5046FCF7B3
:1038C000EBFC00BF00BF00203060386047F25410AE
:1038D0002080C6E700BF00BF5046FCF7DDFC00BFFC
:1038E00000BF4FF00008D5F8249003E009F1040967
:1038F00008F10108D9F800000028F7D0C6F80080C8
:10390000A86BA0EB080038600020208000BFA8E76B
:10391000E400002084010020F0B50446DDE90556EE
:1039200002EB850020F007004FF0000C071F38461F
:10393000C7F800C04FF4805C071F3846C7F800C0C6
:103940004FF0150C071F3846C7F800C04FF0140C95
:10395000071F3846C7F800C04FF0130C071F384642
:10396000C7F800C04FF0120C071F3846C7F800C058
:103970004FF0110C071F3846C7F800C04FF0100C6D
:10398000071F3846C7F800C04FF0090C071F38461C
:10399000C7F800C04FF0080C071F3846C7F800C032
:1039A0004FF0070C071F3846C7F800C04FF0060C51
:1039B000071F3846C7F800C04FF0050C071F3846F0
:1039C000C7F800C04FF0040C071F3846C7F800C006
:1039D0004FF0030C071F3846C7F800C04FF0020C29
:1039E000071F3846C7F800C04FF0010C071F3846C4
:1039F000C7F800C04FF0000C071F3846C7F800C0DA
:103A00004FF0807C071F3846C7F800C0071F3846B4
:103A10003C60DFF85CC1071F3846C7F800C04FF0B4
:103A2000123C071F3846C7F800C04FF0033C071F81
:103A30003846C7F800C04FF0023C071F3846C7F8A9
:103A400000C0071F38463B60071F384639604FF0FB
:103A5000310C071F3846C7F800C04FF0300C071F65
:103A60003846C7F800C04FF0290C071F3846C7F882
:103A700000C04FF0280C071F3846C7F800C04FF0B1
:103A8000270C071F3846C7F800C04FF0260C071F49
:103A90003846C7F800C04FF0250C071F3846C7F856
:103AA00000C04FF0240C071F3846C7F800C04FF085
:103AB000230C071F3846C7F800C04FF0220C071F21
:103AC0003846C7F800C04FF0210C071F3846C7F82A
:103AD00000C04FF0200C071F3846C7F800C04FF059
:103AE000190C071F3846C7F800C04FF0180C071F05
:103AF0003846C7F800C04FF0170C071F3846C7F804
:103B000000C04FF0160C071F3846C7F800C04FF032
:103B1000113C071F3846C7F800C04FF0103C071F84
:103B20003846C7F800C04FF0093C071F3846C7F8B1
:103B300000C04FF0083C071F3846C7F800C04FF0E0
:103B4000073C071F3846C7F800C04FF0063C071F68
:103B50003846C7F800C04FF0053C071F3846C7F885
:103B600000C04FF0043C071F3846C7F800C0F0BD46
:103B7000915D00087FB505460C461248854203D189
:103B800047F25B1020807FBD0F48854203D147F28A
:103B90005C102080F7E70D48007800280BDD00203E
:103BA00000900190034602462946CDE902040848E8
:103BB00000F086FCE7E72146284602F057FB00BFED
:103BC000E1E7000034840020F8840020E4000020B5
:103BD0005453555310B51D48006810B11B48006878
:103BE0008047FDF7C1FC0446194800681949096877
:103BF000884215D016480068D0F89800201A144959
:103C00000968C1F8940012480068D0F89C00104977
:103C10000968D1F8941008440D490968C1F89C005E
:103C20000C480068C0F8984009480068D0F8B40013
:103C300009490968884205D20748006804490968AB
:103C4000C1F8B40000200449086010BDD80000206D
:103C50008401002088010020280100202DE9F04186
:103C600005460E46144600273F480078002804DD2C
:103C700047F275202080BDE8F0813C48007800289C
:103C800003DD46F663502080F5E736B1022E05D0FD
:103C9000042E0AD0082E09D101E000BF00BF1DB9D3
:103CA00047F27E202080E6E704E003E045F6256049
:103CB0002080E0E700BF00BF00BF00BFFCF7E8FACC
:103CC000074600BF00BF29480078401C27490870FC
:103CD00000BF00BF3846FCF7DFFA00BF00BF00BFDF
:103CE00001202349096881F83600234632462946D7
:103CF0001F48006802F076FB2088A8B100BF00BF13
:103D000000BFFCF7C5FA074600BF00BF17480078A0
:103D1000401E1649087000BF00BF3846FCF7BCFAC9
:103D200000BF00BF00BFA6E71148006801F0F4F92A
:103D300000BF00BF00BFFCF7ABFA074600BF00BFE3
:103D40000A480078401E0949087000BF00BF384685
:103D5000FCF7A2FA00BF00BF00BFFEF79FFF0020E4
:103D6000208000BF87E70000E40000202C01002035
:103D7000840100202DE9FF5F05460E461746984650
:103D8000DDE90EA40020009072480078002804DDD0
:103D900047F275202080BDE8FF9F6F48007800281B
:103DA00003DD46F663502080F5E70AF00E0BBBF109
:103DB000000F09D0BBF1020F07D0BBF1040F10D0E8
:103DC000BBF1080F0ED101E000BF00BFB8F1000F3A
:103DD00006D12FB926B91DB947F27E202080DAE737
:103DE00004E003E045F625602080D4E700BF2AF018
:103DF0001E0008B1012000E0002003900398012874
:103E000003D145F625602080C5E7CAF30010029073
:103E10000298C0B9B8F57A7F03D347F27B2020809F
:103E2000B9E73B2F03DD47F27A202080B3E73B2E32
:103E300003DD47F279202080ADE7632D12DD47F2E4
:103E400078202080A7E742F20F70864203DD47F218
:103E5000792020809FE7B5F57A7F03DB47F2782051
:103E6000208098E73D48D0F800904FF4FA70B0FBFE
:103E7000F9F0404400FB09F04FF47A71B0FBF1F126
:103E80004FF461606843C6EB061200EB82003844D1
:103E900000FB091001900198002856D000BF00BF18
:103EA00000BFFCF7F5F9009000BF00BF2A4800787A
:103EB000401C2949087000BF00BF0098FCF7ECF9CE
:103EC00000BF00BF00BF01202549096881F8360006
:103ED00023465A4622480199006802F083FA208856
:103EE000A8B100BF00BF00BFFCF7D2F9009000BF2F
:103EF00000BF19480078401E1749087000BF00BF76
:103F00000098FCF7C9F900BF00BF00BF43E71448A1
:103F1000006801F001F900BF00BF00BFFCF7B8F96D
:103F2000009000BF00BF0C480078401E0A4908708E
:103F300000BF00BF0098FCF7AFF900BF00BF00BF93
:103F4000FEF7ACFE0020208002E047F27E202080B9
:103F500000BF20E7E40000202C010020148F00089F
:103F60008401002010B586B000F01EF8FDF7FCFAC1
:103F7000044605A800210091CDE9011403900748EB
:103F8000007800EB4000064A02EB800100231A464D
:103F9000044800F095FA06B010BD000012010020A0
:103FA000C88500205449434B10B50348006810B140
:103FB00001480068804710BDDC00002024482548E7
:103FC0002548264826482748274828482848294879
:103FD00029482A482A482B482B482C482C482D4849
:103FE0002D482E482E482F482F4830483048314819
:103FF00031483248324833483348344834483548E9
:1040000035483648364837483748384838483948B8
:1040100039483A483A483B483B483C483C483D4888
:104020003D483E483E483F483F4840484048414858
:104030004148424842484348434844484448454828
:104040004548464846484748474800BF7047000033
:10405000588F0008C09000085A8F00085B8F000836
:104060005C8F0008608F0008648F0008618F000873
:104070008C8F00088D8F00088E8F0008908F0008AD
:10408000928F0008948F0008968F0008988F000880
:10409000B88F0008BA8F0008BC8F0008BE8F0008D8
:1040A000C08F0008C28F0008C48F0008F08F00087E
:1040B000F18F0008F28F0008F48F0008F68F0008D7
:1040C000F78F0008F88F0008FA8F0008FC8F0008AF
:1040D000FE8F00080090000802900008049000087D
:1040E000349000083590000836900008379000089A
:1040F000389000083A9000083C900008649000084E
:1041000065900008669000086790000868900008B5
:104110006A9000086C900008709000087190000888
:104120007290000873900008749000087590000861
:104130007690000877900008789000087A90000840
:104140007B9000087C9000087E900008809000081A
:104150008190000884900008B8900008B990000889
:10416000BA900008BC900008BE9000080021034AE5
:104170001160034A1180018070470000FC0000209C
:10418000000100202DE9F04F85B004468946924693
:104190009B46DDF838800020009000BF00BFFCF790
:1041A00077F8009000BF00BFBAF1000F0AD0BAF153
:1041B000010F0DD0BAF5004F05D06FF40040504408
:1041C00060B906E000BF206A40EA0900206214E0FE
:1041D00000BF206A20EA090020620EE000BF00BF95
:1041E0000098FCF759F800BF00BF45F62560A8F815
:1041F0000000002005B0BDE8F08F00BFC4F824B077
:1042000004F1080001900198008958B900BF00BF6F
:104210000098FCF741F800BF00BF0020A8F800009C
:10422000206AE7E700BF61480078401C5F490870DA
:1042300000BF00BF0098FCF72FF800BF00BF00BF11
:1042400001980768BD687FE07868029095F888005B
:1042500000F00F0003900398012821D002282ED0EF
:10426000042802D0082836D10EE0206AD5F8801044
:1042700000EA0106D5F88000B04204D15A46314622
:10428000284600F097F859E0206AD5F8801000EA37
:10429000010626B15A463146284600F08BF84DE01B
:1042A000D5F88000216A20EA0106D5F88000B042E6
:1042B00004D15A463146284600F07CF83EE0D5F855
:1042C0008000216A20EA010626B15A463146284676
:1042D00000F070F832E000BF00BF00BFFBF7D8FF6E
:1042E000009000BF00BF31480078401E2F49087081
:1042F00008460078A0B92E480088002809DD00BFD4
:1043000000BF0098FBF7C8FF00BF00BF00F032FFFE
:104310000DE000BF00BF0098FBF7BEFF00BF06E046
:1043200000BF00BF0098FBF7B7FF00BF00BF00BF92
:1043300043F6FF20A8F8000000205BE700BF029FC3
:104340000FB1BD6800E00025002D7FF47DAF00BFF8
:1043500000BF00BFFBF79CFF009000BF00BF1348E9
:104360000078401E1149087000BF00BF0098FBF79D
:1043700093FF00BF00BF00BF0AF4004008B9FEF77A
:104380008DFC00BF00BFFBF783FF009000BF00BFA4
:10439000206A049000BF00BF0098FBF77DFF00BFBC
:1043A00000BF0020A8F80000049823E72C0100209B
:1043B000F000002070B504460E46154634342665DC
:1043C000002060702070E560A078343C082816D288
:1043D000DFE800F0040508090706101100BF00BF60
:1043E00000BF0DE000BF204601F024FC002084F84F
:1043F000360005E000BF042084F8360000E000BF6E
:1044000000BF204600F05BFC70BD0000002400BF30
:1044100019E000BF00BFFBF73BFF044600BF00BF31
:1044200009480068401C0849086008480068401CAA
:104430000649086000BF00BF2046FBF72DFF00BF04
:1044400000BFFEF7C3FAE4E7E000002044010020CB
:1044500010B58AB0044600200E4908600B200021E8
:104460000591CDE90704069108460B4909680B4AF6
:1044700012680B4B1B68CDE90132CDE903103F20D8
:104480000023084A08A100900C48FEF75FFE0AB01E
:1044900010BD0000E0000020BC8E0008B88E0008AF
:1044A000B48E00080D44000875432F4F532D494921
:1044B000492049646C65205461736B00348400208A
:1044C0002DE9F84F04460D4616461F46DDE90BABB5
:1044D000DDF82890DDF834800020009000BF00BF98
:1044E000FBF7D6FE009000BF00BF2B4800882B4989
:1044F000098888423EDA28480088401C26490880FE
:10450000274800880988884203DA2348008824491C
:1045100008802448006804602248006885602148BB
:104520000068C6601F48006807821E480068C0F81F
:1045300014901C480068A0F818A01A480068C0F839
:104540001CB01848006840681649086001201649E8
:104550000881164808604860002000F07FFC14487D
:10456000007818B112480078124908700020A8F8A5
:10457000000008E010480088401C0F49088044F201
:104580005360A8F8000000BF00BF0098FBF784FE4E
:1045900000BF00BFBDE8F88FF0000020C88E000803
:1045A000F2000020E8000020C8850020F8840020E8
:1045B0001201002014010020F40000203EB55948EB
:1045C00000680068584A811A904279D00FDC574938
:1045D000084400283ED056490844A8B1554908442B
:1045E000002860D05449084400286AD13FE053486D
:1045F0000844002850D052490844002862D051494C
:1046000008440028F1D110E002A8464D00902D6822
:10461000EB69444D2D682A8B424D2D686969414DE7
:104620002D68A868FFF7AEFD7AE002A93D48006852
:10463000C0693C4DCDE900012D682B8B394D2D68AB
:104640002A8A384D2D68E968364D2D68A86800F033
:1046500035FC65E0334B1B68DA69324B1B68198BFC
:10466000304B1B68986802AB00F04EFE58E002A980
:104670002C480068C0692B4DCDE900012D682B8BBB
:10468000284D2D682A8A274D2D68E968254D2D680B
:10469000A86801F0C9F943E022490968886802A9BD
:1046A00001F0D6FA3CE01F4B1B68DA691D4B1B6812
:1046B000198B1C4B1B68986802AB01F075FB2FE04F
:1046C00007E02CE017490968886802A901F0CEFDCF
:1046D00026E01D49097801EB41011C4A02EB8100EB
:1046E00000F09EFD0F48006802AB0021C269184827
:1046F00001F05AFB17480068401E1649086008463A
:10470000006858B9144800680860FCF72DFF04469B
:1047100002AB22460021114801F046FB00E000BF39
:1047200000BF3EBDEC0000205449434BADBAB2BEC1
:104730000DF90BFAF2F8F7FF0006F6FF00F7FDF7A8
:1047400000FFEFFF03FE0FFE14010020C8850020CC
:104750008C890020800100207C010020508A0020EC
:10476000002700BF4CE0002648E000BF00BFFBF779
:104770008FFD074600BF00BF2248008888B900208F
:10478000214908810860486000F07AFB00BF00BF43
:104790003846FBF781FD00BF00BFFEF77FFA012618
:1047A0002CE000BF00BF3846FBF776FD00BF00BF1E
:1047B000FCF7DAFE0546FFF701FFFCF7D5FE441BC8
:1047C00012480068A04201D21048046000BF00BF38
:1047D000FBF75EFD074600BF00BF0D48006840685C
:1047E0000B49086007480088401E0649088000BF42
:1047F00000BF3846FBF750FD00BF00BF002EB4D00D
:10480000B1E70000F0000020C8850020F80000207B
:10481000EC000020F0B589B0054600203149088041
:104820003148006820B944F25260288009B0F0BDD8
:104830002E480088022803DA44F254602880F5E705
:1048400000202B49086028480468264620360027A7
:104850000CE0284820600020A060E06020826061B9
:104860002083666020342036781C87B21F48008879
:104870008742EEDB203C1C48066866601E480660E6
:104880001E48066000201E4908801E4908801E48F8
:10489000006818B944F255602880C7E71B480068D3
:1048A0001B490968884203D244F256602880BDE75C
:1048B000032000210591CDE9070506911348006802
:1048C000144A1268104B1B68CDE90301CDE901328F
:1048D00000910B46104A11A11748FEF737FC00BFA4
:1048E000A4E70000F4000020C48E0008C88E000871
:1048F000F80000204E4F4E45E8000020EC0000205C
:10490000F0000020F2000020D08E0008D88E0008B1
:10491000108F0008D48E00086147000875432F4FA0
:10492000532D4949492049535220517565756520D9
:104930005461736B00000000F88400200021034ADA
:104940001160034A118001807047000004010020BB
:104950000801002070B502460B4610461146103182
:104960005E1EB5B2002408E00160002646600681A4
:10497000C66010301031661CB4B2AC42F4DB0026C5
:10498000066046600681C66070BD000010B5044632
:104990001048006818B945F21E70208010BD0E48FE
:1049A000008818B945F21D702080F7E70A48018891
:1049B00008480068FFF7CEFF06480068074908600E
:1049C0000548008888800020C8800881208000BFBA
:1049D000E4E70000F48E0008EC8E0008BC8500209F
:1049E00010B5014648894B89002B17DD0A680C4B2E
:1049F0001B6813600A4C4B6823602346DB884C8994
:104A00001B1B074CE38023469B884C892344044CA2
:104A1000A38000234B818B810B604B6010BD000095
:104A2000BC850020018100224281828102604260B7
:104A3000704700002DE9F0410D46DDE90674B0F83D
:104A40000AC0B0F80880C44505DB46F2935CA4F8C0
:104A500000C0BDE8F081DFF8D4C0BCF804C0BCF1F0
:104A6000000F04D145F21D7CA4F800C0F1E7DFF887
:104A7000BCC0DCF80010DFF8B480D1F800C0C8F882
:104A800000C0C446BCF804C0ACF1010CA8F804C0D6
:104A9000C446BCF806C00CF1010CA8F806C0C44618
:104AA000BCF808C0B8F80680C44507DADFF87CC057
:104AB000BCF806C0DFF87480A8F808C0B0F80AC0D7
:104AC000BCF1000F06D1016041604FF0010CA0F86D
:104AD0000AC017E003F0100CBCF1000F07D1066804
:104AE00031604FF0000CC1F800C0016004E0D0F864
:104AF00004C0C1F800C04160B0F80AC00CF1010C5C
:104B0000A0F80AC0B0F80CC0B0F80A80C44503DAB7
:104B1000B0F80AC0A0F80CC04D600A81CF604FF019
:104B2000000CA4F800C000BF93E70000BC85002083
:104B30000021034A1160034A118001807047000080
:104B40000C010020100100202DE9F04105460C4623
:104B500016461F461548006880F834600020134947
:104B6000096881F8350039461048006800F092FE67
:104B70006CB104F10808EC60012229460B4800687A
:104B800000F016F82946404600F066F806E00020DE
:104B900006490968C8870549096808630348016828
:104BA000204600F019F8BDE8F081000084010020E3
:104BB00010B5C287016300230AE000244C600C603A
:104BC0000C614C610C83CC61886020315C1CA3B209
:104BD0009342F2DB10BD000030B548B14568C1F822
:104BE000C05000F10804226893681D6AC56113E093
:104BF00091F83450022D02D0072D08D103E007A50B
:104C0000C1F8C05007E007A5C1F8C05003E008A5EF
:104C1000C1F8C05000BF00BF30BD00005461736BCD
:104C2000205100005461736B2053656D000000003B
:104C30002000000030B507A5C1F8C05000F10804FD
:104C400022681AB193681D6AC56101E001A5C561BA
:104C500030BD000020000000F0B58E6896F8375097
:104C600007893FB90127078100274F600F60016066
:104C7000416023E007897F1C0781026806E0946891
:104C800094F83770AF4200DD02E05268002AF6D196
:104C900000BF32B900274F6043680B605960416024
:104CA0000CE017682FB9116000270F604A6001609F
:104CB00004E013680B604A6059601160F0BD2DE993
:104CC000F0410446256BE68F0AE0D5F80C8008F128
:104CD00008072946384600F00AF82035701E86B2CB
:104CE000002EF2DC0020E0872063BDE8F08110B5E3
:104CF0000489012C03D100240460446011E00C6895
:104D000024B94A680024146002600AE04C6824B99F
:104D10000B6800245C60436003E00B684A685A60DB
:104D200013600489641E048100244C600C6010BD73
:104D30002DE9F84306460C4617469846089D94F818
:104D40003600082850D2DFE800F0040508090607FD
:104D50002B2C00BF00BF00BF47E000BF94F8340019
:104D6000032807D143463A4621463046009500F0D5
:104D70003FF803E0E765A4F86080256436B120467B
:104D8000FFF79DFF21463046FFF754FF204600F015
:104D900051FF00203434A070607004F8340924E01E
:104DA00000BF94F83400032807D143463A46214611
:104DB0003046009500F01CF803E0E765A4F8608039
:104DC0002564204601F0ECFB36B12046FFF777FF63
:104DD00021463046FFF72EFF04203434A070002017
:104DE000607004F8340900E000BF00BFBDE8F8833C
:104DF000F0B50446059E086BCD8F0AE0C768A74250
:104E000004D1046142610383C66104E020306F1E57
:104E1000BDB2002DF2DC00BFF0BD000070B5002572
:104E2000074C03E005F12000C5B2241D20680028CE
:104E3000F8D02068FBF737FA2844C5B2284670BD81
:104E4000BC000020002004E00021034A42F82010AA
:104E5000401C0228F8D37047BC00002030B542093E
:104E600000F01F030121C3F11F04A140034C54F8BB
:104E700022400C43014D45F8224030BDBC000020CB
:104E800030B5420900F01F030121C3F11F04A14006
:104E9000034C54F822408C43014D45F8224030BD6C
:104EA000BC0000200021034A1160034A11800180E8
:104EB00070470000180100201C0100202DE9F04F70
:104EC00085B007468A4693461C460020029000BFE4
:104ED00000BF00BFFBF7DCF9029000BF00BF4848ED
:104EE0000078401C4649087000BF00BF0298FBF7DD
:104EF000D3F900BF00BF00BF07F1080630890028C2
:104F000042D104F0100010B94FF0000801E04FF05A
:104F10001008DDE90E0143465A46CDE9000151462D
:104F200007F12000FFF786FD00BF00BF00BFFBF7C1
:104F3000AFF9029000BF00BF31480078401E3049F1
:104F4000087008460078A0B92E480088002809DDBE
:104F500000BF00BF0298FBF79FF900BF00BF00F041
:104F600009F90DE000BF00BF0298FBF795F900BFFB
:104F700006E000BF00BF0298FBF78EF900BF00BF3C
:104F800000BF05B0BDE8F08F04F4007008B13589AA
:104F900000E00125D6F8009011E0D9F80800039050
:104FA000D9F8040004900E985B46524600903846AB
:104FB0000399FFF7BDFEDDF81090681E85B2002D45
:104FC000EBD100BF00BF00BFFBF762F9029000BF4A
:104FD00000BF0B480078401E0949087000BF00BFA1
:104FE0000298FBF759F900BF00BF00BF04F400406E
:104FF00008B9FDF753FE00210F98018000BFC0E7FC
:105000002C010020F000002000210AE001EB410209
:10501000054B03EB820000220281026042604A1CC1
:10502000D1B24029F2D37047C885002010B504469C
:1050300094F83700FFF712FF94F837000549097814
:10504000884203D1204600F027F802E0204600F015
:1050500003F810BD1201002010B590F8373003EBB3
:1050600043030C4C04EB83010B893BB901230B81F7
:105070000023C36003610860486009E00B895B1C82
:105080000B810B68C360002303610A68106108602C
:1050900010BD0000C885002010B590F8373003EB34
:1050A00043030B4C04EB83010B893BB901230B81B8
:1050B0000023C36003610860486008E00B895B1C43
:1050C0000B810023C3604A680261D060486010BD54
:1050D000C885002010B501460C8924B1012C03D0ED
:1050E000022C0CD101E000BF14E008684A6802619C
:1050F0000024C4601461D0600A6048600AE0086857
:105100004A68C36800241C61C4600261D0600B60FF
:10511000486000BF00BF10BD2DE9F041054695F87D
:10512000370000EB4000124901EB80042F69EE6864
:1051300087B946B9002020812060606095F837006B
:10514000FFF79EFE0EE02089401E20810020306186
:10515000266007E02089401E2081FE600EB967604E
:1051600000E0376100202861E860BDE8F0810000C0
:10517000C885002010B5002400BFFBF789F804465D
:1051800000BF00200C4908700C480D490860084613
:105190000068D0F89000401C0968C1F890000948E8
:1051A0000068401C07490860FBF74BF900BF204628
:1051B000FBF772F800BF10BD13010020F884002037
:1051C000880100205801002010B50448007801280B
:1051D00003D1FCF7C9F90249086010BD2C01002079
:1051E0002001002010B50A48007880B9FCF7BCF90E
:1051F00008490968441A08480068A04201D20648D4
:10520000046006480068A04201D20448046010BD52
:105210002C01002020010020240100202801002072
:1052200070B5054600262E480078012800D070BDD4
:1052300000BF00BFFBF72CF8064600BF00BF2C687C
:105240003CB900BF00BF3046FBF726F800BF00BFE7
:10525000EDE72448844207D100BF00BF3046FBF78A
:105260001BF800BF00BFE2E7A06D10B1A06D401EAB
:10527000A065A06D38B100BF00BF3046FBF70CF849
:1052800000BF00BFD3E72889022807DA00BF00BFAC
:105290003046FBF701F800BF00BFC8E712480078AE
:1052A000002807DD00BF00BF3046FAF7F5FF00BF5A
:1052B00000BFBCE72846FFF70DFF2C68606D18B9EA
:1052C0000A480068A06501E0606DA06500BF00BFEE
:1052D0003046FAF7E1FF00BF00BF00BFA7E70000BC
:1052E00034010020348400202C01002030010020F3
:1052F0000021034A1160034A1180018070470000B9
:10530000380100203C0100202DE9FF5F044688465B
:1053100091461D460020019000BF00BFFAF7B8FF7C
:10532000019000BF00BF04F10807388900284FD161
:105330000420012804D0022814D0042834D123E00A
:10534000206AFF280DD100BF00BF0198FAF7A4FF23
:1053500000BF00BF46F6C5502880002004B0BDE85D
:10536000F09F22E04FF6FF71206A88420BD100BF08
:1053700000BF0198FAF790FF00BF00BF46F6C55086
:1053800028800020EAE710E0206A401C58B900BFDE
:1053900000BF0198FAF780FF00BF00BF46F6C55076
:1053A00028800020DAE700E000BF00BF206A401C30
:1053B0002062D4F820A0C4F8249000BF00BF019858
:1053C000FAF76AFF00BF00BF002028805046C5E7FB
:1053D00000BF25480078401C2349087000BF00BF6B
:1053E0000198FAF759FF00BF00BF00BF08F4007032
:1053F00008B13E8900E00126D7F800B011E0DBF8E3
:1054000008000290DBF80400039000231A46CDF850
:10541000009020460299FFF78BFCDDF80CB0701E5F
:1054200086B2002EEBD1D4F820A000BF00BF00BF91
:10543000FAF72EFF019000BF00BF0B480078401E16
:105440000949087000BF00BF0198FAF725FF00BFA7
:1054500000BF00BF08F4004008B9FDF71FFC0020A2
:10546000288050467AE700002C01002086B00020FA
:10547000009000BF06E0C3490968480001AA002166
:10548000FEF7ECFBC04800780128F4D101A8FDF735
:105490003FFD0027BD480068BA490968884205D920
:1054A000BA480068B7490968B0FBF1F727B9B748AF
:1054B00000680A21B0FBF1F762E1FCF755F880467D
:1054C00000BF00BFFAF7E4FE009000BF00BFB04885
:1054D0000068B04908600020AD49086000BF00BF07
:1054E0000098FAF7D9FE00BF00BFAB480068A94991
:1054F0000968884248D9A8480068A849884205D266
:1055000042F2107003900120029023E0A24800684C
:10551000A349884205D24FF47A7003900A20029082
:1055200018E09D4800689F49884203D26420039098
:1055300002900FE0984800689B49884205D20A20F3
:1055400003904FF47A70029004E00120039042F23D
:1055500010700290904801680298B1FBF0FA8D49F2
:10556000039809684843B0FBFAF042F21071081A38
:105570008E4908808E4800880988884208DA8B485E
:1055800000888B49088003E042F210708749088048
:10559000FDF7D2FD002500BF00BFFAF779FE0090AD
:1055A00000BF00BF8348046800BF00BF0098FAF73F
:1055B00073FE00BF00BF5AE000BF00BF00BFFAF794
:1055C00067FE009000BF00BF7B480078401C7A490E
:1055D000087000BF00BF0098FAF75EFE00BF00BF72
:1055E00000BF54F89C0F6060002044F89C0900BF85
:1055F00000BF00BFFAF74CFE009000BF00BF6E482E
:105600000078401E6C49087008460078A0B96B48C5
:105610000088002809DD00BF00BF0098FAF73CFEB3
:1056200000BF00BFFFF7A6FD0DE000BF00BF009860
:10563000FAF732FE00BF06E000BF00BF0098FAF79D
:105640002BFE00BF00BF00BFD4F8A000054400BF80
:1056500000BFFAF71DFE009000BF00BFD4F8BC40A9
:1056600000BF00BF0098FAF717FE00BF00BF002C74
:10567000A2D145B34948854205D242F21070059047
:105680004FF0010B1BE04648854205D24FF47A707B
:1056900005904FF00A0B12E04248854203D2642085
:1056A000059083460BE04048854204D20A200590CD
:1056B0004FF47A7B03E00120059042F2107BB5FBAA
:1056C000FBF0049003E0002005900120049000BF4F
:1056D00000BFFAF7DDFD009000BF00BF3548046849
:1056E00000BF00BF0098FAF7D7FD00BF00BF2BE056
:1056F000D4F8A000059948430499B0FBF1F086B2B4
:1057000042F21070864200D90646A4F88C60B4F8C4
:105710008E00B04201DAA4F88E6001AB04F1AC0255
:10572000111D2046FEF78EF800BF00BFFAF7B0FD4E
:10573000009000BF00BFD4F8BC4000BF00BF00987D
:10574000FAF7AAFD00BF00BF002CD1D11C48007899
:10575000012805D100201A49087001A8FDF7D8FBDF
:10576000FBF702FFA0EB080916480068484502D283
:105770001448C0F8009001AA00213846FEF76EFADE
:105780009BE60000FC8E000850010020148F0008EA
:10579000440100204C01002048010020801A06002E
:1057A00000093D00005A62020084D7174001002022
:1057B000420100205C0100202C010020F0000020AC
:1057C0003E0100205401002010B58AB0044600209C
:1057D0001F4908601F4908601F4908601F49087079
:1057E0001F4908701F48006820B946F62B602080CA
:1057F0000AB010BD1C4800681C490968884203D2E1
:1058000046F62C602080F3E7194800783F2803D340
:1058100046F62A602080EBE7032000210591CDE9C0
:1058200007040691084610490968124A12680D4B90
:105830001B68CDE90132CDE903100D480078002343
:105840000D4A0EA100901248FDF780FC00BFCFE783
:10585000440100204C01002048010020500100209C
:105860003E010020008F0008088F0008108F0008FC
:10587000F88E0008048F00086D54000875432F4F00
:10588000532D4949492053746174205461736B004E
:10589000C888002038B504460D4685B16B46022203
:1058A0002946204600F09EFDBDF8000018B90320EF
:1058B00084F8360006E0022084F8360002E0022078
:1058C00084F836002046FFF727FC38BD0021C0F8D9
:1058D000B8100949096819B90021C0F8BC1007E0DF
:1058E00005490968C0F8BC1003490968C1F8B80047
:1058F00001490860704700005C010020D0F8B82022
:10590000D0F8BC104AB90D4B196011B10023C1F891
:10591000B8300023C0F8BC300FE029B90023C2F82A
:10592000BC30C0F8B83008E0C2F8BC10C1F8B820EC
:105930000023C0F8BC30C0F8B83070475C010020CC
:105940000021044A1160044A1180044A1160018058
:10595000704700005C010020600100205801002019
:1059600070B5044600202060A0606060E0602061A7
:105970006061A061E06129A0206200206062A062F5
:10598000E0622064E065A4F86000002104F1640096
:10599000FFF748F8002044F8740F6060E060A082D0
:1059A0002061743C002506E0002104F17C0040F8F1
:1059B0002510681CC5B2002DF6D0002034342061BB
:1059C00020676067606084F85600E067A067208108
:1059D0004FF0004060610020A061E06120626062E1
:1059E000A4F85800A4F85A00E0652066FBF7BCFD57
:1059F000064666660020A066C4F8800020706070CD
:105A0000A0704020E0700020C4F88400C4F8880032
:105A100004A0C4F88C00343C70BD00003F54617396
:105A20006B000000200000002DE9FC4704460F46F3
:105A300090469946DDE90A654FF0000A00BF00BFB5
:105A400000BFFAF725FC824600BF00BF7648007809
:105A5000401C7549087000BF00BF5046FAF71CFC97
:105A600000BF00BF00BF0CB9704804680020288048
:105A700094F8360008287DD2DFE800F004053E3FA8
:105A80000607404100BF00BF00BF4B4642463946B3
:105A900004F16400CDE90065FEF7CCFF00BF00BF54
:105AA00000BFFAF7F5FB824600BF00BF5E480078F2
:105AB000401E5D49087008460078A0B95C4800881F
:105AC000002809DD00BF00BF5046FAF7E5FB00BF24
:105AD00000BFFFF74FFB0DE000BF00BF5046FAF7D5
