:020000040800F2
:1000000090900020490200085D280008C3240008E1
:10001000E1260008BF0C000865840008000000000D
:10002000000000000000000000000000317C00081B
:10003000B5200008000000001F050008617D0008D1
:1000400063020008630200086302000863020008FC
:1000500063020008630200086302000863020008EC
:1000600063020008630200086302000863020008DC
:10007000630200086302000863020008651A0008B2
:1000800063020008630200086302000863020008BC
:10009000C10D000863020008630200086302000843
:1000A000630200086302000863020008630200089C
:1000B000630200086302000863020008630200088C
:1000C000630200086302000863020008630200087C
:1000D000630200086302000845800008558100089B
:1000E000630200086302000863020008630200085C
:1000F000630200086302000863020008630200084C
:10010000630200086302000863020008630200083B
:100110004D7E0008630200086302000863020008C5
:100120009D1A0008630200086302000863020008C9
:10013000630200086302000863020008630200080B
:100140004D0F000863020008630200086302000804
:1001500063020008630200086302000863020008EB
:1001600063020008630200086302000863020008DB
:1001700063020008630200086302000863020008CB
:10018000630200086302000800F002F800F04CF877
:100190000AA090E8000C82448344AAF10107DA45E2
:1001A00001D100F041F8AFF2090EBAE80F0013F0E8
:1001B000010F18BFFB1A43F0010318471492000007
:1001C000349200000A4410F8014B14F00F0508BFE8
:1001D00010F8015B240908BF10F8014B6D1E05D013
:1001E00010F8013B6D1E01F8013BF9D1641E03D0EC
:1001F000641E01F8015BFBD19142E4D3704700001B
:100200000023002400250026103A28BF78C1FBD81F
:10021000520728BF30C148BF0B6070471FB508F0B8
:10022000C1FF1FBD10B510BD00F02CF91146FFF73E
:10023000F5FF08F01BFC00F04AF903B4FFF7F2FFEA
:1002400003BC08F01EF90000094880470948004730
:10025000FEE7FEE7FEE7FEE7FEE7FEE7FEE7FEE776
:10026000FEE7FEE704480549054A064B70470000D3
:100270007D7D000889010008908A00209090002070
:10028000908C0020908C002072B6704762B6704748
:10029000EFF3108072B6704780F31088704730BF5C
:1002A000704720BF7047B0FA80F0704790FAA0F016
:1002B000B0FA80F0704790FAA0F07047704710B520
:1002C000431C02E010F8011B71B18107FAD14FF015
:1002D000013202C88C1A8C4314EAC211F9D0C01A38
:1002E0000A0603D0C01E10BDC01A10BD0A0401D0FA
:1002F000801E10BD0902FCD0401E10BD032A40F232
:10030000308010F0030C00F0158011F8013BBCF1B7
:10031000020F624498BF11F801CB00F8013B38BFCF
:1003200011F8013BA2F1040298BF00F801CB38BFDD
:1003300000F8013B11F0030300F02580083AC0F0FB
:10034000088051F8043B083A51F804CBA0E80810A3
:10035000F5E7121D5CBF51F8043B40F8043BAFF3D6
:100360000080D20724BF11F8013B11F801CB48BF30
:1003700011F8012B24BF00F8013B00F801CB48BF66
:1003800000F8012B704710B5203AC0F00B80B1E89F
:100390001850203AA0E81850B1E81850A0E81850BA
:1003A000BFF4F5AF5FEA027C24BFB1E81850A0E8C3
:1003B000185044BF18C918C0BDE810405FEA827CDD
:1003C00024BF51F8043B40F8043B08BF7047D207F4
:1003D00028BF31F8023B48BF11F8012B28BF20F895
:1003E000023B48BF00F8012B70474FF00002042980
:1003F000C0F0128010F0030C00F01F80CCF1040C50
:10040000BCF1020F18BF00F8012BA8BF20F8022B87
:10041000A1EB0C0100F011B85FEAC17C24BF00F829
:10042000012B00F8012B48BF00F8012B70477047E3
:100430007047704770474FF0000200B5134694466E
:100440009646203922BFA0E80C50A0E80C50B1F12C
:100450002001BFF4F7AF090728BFA0E80C5048BF40
:100460000CC05DF804EB890028BF40F8042B08BFDE
:10047000704748BF20F8022B11F0804F18BF00F8DA
:10048000012B7047754600F02BF8AE460500694613
:10049000534620F00700854618B020B5FFF7E2FE6E
:1004A000BDE820404FF000064FF000074FF0000875
:1004B0004FF0000B21F00701AC46ACE8C009ACE8F6
:1004C000C009ACE8C009ACE8C0098D46704710B55A
:1004D0000446AFF300802046BDE81040FFF7ADBEF4
:1004E000004870472C8A002022484FF6FF710170A7
:1004F000002080F309882048016881F308881F489C
:100500004FF08051016062B6FEE71C484FF0805109
:100510000160704719484FF080510160704772B612
:10052000EFF3098050B11EF0100F08BF20ED108AC4
:10053000203880E8F00F12490968086000B51148BA
:1005400080475DF804EB104810490A7802700C48A7
:100550000F490A680260106890E8F00F20301EF022
:10056000100F08BFB0EC108A80F309884EF0040E1B
:1005700062B6704722ED00E01402002004ED00E0B6
:100580000C020020DD3C00089A0100209B010020A5
:100590001002002000B58DB00121042006F080FF7C
:1005A0000121080206F09CFF0E200B9003208DF81D
:1005B000300000208DF833000BA9204801F012FF15
:1005C000002007900A9009904FF48030089007A807
:1005D00000F044F80020019001208DF808008DF80B
:1005E000090000200390059003208DF8180001A950
:1005F000134800F061F8072301220B21104800F096
:1006000085F8072302220C210D4800F07FF807230C
:1006100003220D210A4800F079F80121084800F072
:1006200040F80121064800F031F80121044800F0AB
:1006300009F8034800F0C6F80DB000BD00080240FC
:100640000020014021B1826842F00102826003E093
:10065000826822F001028260704700000021084A8F
:100660001168084A1140D0E900231A4383681A43ED
:10067000C3681A431143044AC2F8041370470000C8
:1006800004230140E030FCFF0020014021B18268DA
:1006900042F48072826003E0826822F48072826099
:1006A000704721B1826842F40072826003E0826880
:1006B00022F400728260704730B5024600200023A9
:1006C0005068104C20400D790C6844EA0524204302
:1006D000506090680C4C2040D1E903542C438D6845
:1006E0002C434D7944EA450420439060D06A20F4BD
:1006F00070000C7D641EE4B2234340EA0350D062D4
:1007000030BD0000FFFEFFFCFDF7FFC0F0B5044662
:100710000D4600200021092D11DDE068A5F10A0633
:1007200006EB4607072606FA07F18843A5F10A06F5
:1007300006EB460603FA06F10843E0600CE0206988
:1007400005EB4507072606FA07F1884305EB450642
:1007500003FA06F108432061072A0FDA606B561E80
:1007600006EB86071F2606FA07F18843561E06EB9E
:10077000860605FA06F10843606322E00D2A0FDAC7
:10078000206BD61F06EB86071F2606FA07F1884363
:10079000D61F06EB860605FA06F10843206310E033
:1007A000E06AA2F10D0606EB86071F2606FA07F19E
:1007B0008843A2F10D0606EB860605FA06F108430A
:1007C000E062F0BD816841F08041816070470000C7
:1007D00010B501200649087000204870022200F080
:1007E000FBFA142300221146104607F0D7FF10BD74
:1007F000D700002010B506201B4908700020487063
:100800008870C87008714871062240F2012000F01B
:10081000E3FA142300221146104607F0BFFF062218
:10082000114940F2022000F0D7FA142300221146A9
:10083000104607F0B3FF06220B4940F2032000F0F8
:10084000CBFA142300221146104607F0A7FF062218
:1008500005494FF4017000F0BFFA1423002211463D
:10086000104607F09BFF10BDD700002010B50720F1
:100870001B490870002048708870C8700871487162
:10088000062240F2012000F0A7FA142300221146AC
:10089000104607F083FF0622114940F2022000F0C3
:1008A0009BFA142300221146104607F077FF062218
:1008B0000B4940F2032000F08FFA14230022114666
:1008C000104607F06BFF062205494FF4017000F057
:1008D00083FA142300221146104607F05FFF10BD73
:1008E000D700002070B504460D4600267F2C00DDA1
:1008F0007F2404F500760F20084908700020487016
:100900008D70280AC8700422304600F065FA14235E
:1009100000221146104607F041FF70BDD7000020AD
:1009200010B54B48C07A012801D14A49C8714A48DC
:100930004078012805D14848007810B90120454980
:10094000C8714448007820B1002042490870012055
:10095000C8714048807810B101203E4908713D4877
:10096000C07810B101203B4908713948007B01284B
:1009700001D13849087238480078012801D1354939
:1009800008723448407820B1002032494870012074
:1009900008723048807810B900202E4908712D481F
:1009A000C07810B900202B4908712C480078002825
:1009B00041D12848C07901280ED126480079012864
:1009C0000AD100202349C87108720846407918B935
:1009D0002348008807F04EFE1E48007AB0B91D4833
:1009E0000079012812D11F480078012806D1002083
:1009F0001C4908701A48008807F03CFE1A488079A4
:100A0000012803D11648008807F034FE1148007A07
:100A1000012802D00F480079C0B90E48007910B9FA
:100A200001201049087000200A4948710E49887158
:100A300001F099FE0AE00748007A012802D0054833
:100A4000007918B9002003490872887110BD0000B0
:100A5000DC6300202B000020BE5D0020160000207B
:100A6000280000202A0000202100002010B50020CE
:100A700001F079FE01200149487010BD2B000020D3
:100A800070B5274800792649C97840EA01202549F0
:100A90000988884243D124480078801E81B22048CA
:100AA00007F026FE04462512E6B21F480078801E95
:100AB0001B49085CA84232D11B480078401E085CE4
:100AC000B0422CD108468078012818D108464079D8
:100AD000012806D0022807D0032808D004280CD10A
:100AE00008E006F081FD09E006F080FD06E006F072
:100AF0009DFD03E006F09CFD00E000BF0FE008480C
:100B00008078022803D101200849088007E00448C2
:100B1000807820B9044801780148FFF766FC70BD71
:100B20004E5E002006000020BC00002008000020CF
:100B300070B53F480078801E81B23E4800F096FDB7
:100B40000446E5B2260A3A480078801E3949085C16
:100B5000A84234D136480078401E085CB0422ED1FD
:100B600008464078042817D006DC01280BD002285C
:100B70000CD003281CD10CE0052810D0062811D079
:100B8000102815D111E006F081FD17E006F0F8FD00
:100B900014E006F093FE11E006F0ECFE0EE006F025
:100BA00061FF0BE006F09EFF08E006F0E7FF05E0BE
:100BB00020494878042107F001FE00BF36E01D48B7
:100BC000407804281DD006DC01280BD002280ED066
:100BD00003282AD110E0052818D006281BD0102899
:100BE00023D11DE00821012007F0E8FD1DE00821C8
:100BF000022007F0E3FD18E00821032007F0DEFDE6
:100C000013E00821042007F0D9FD0EE0082105209B
:100C100007F0D4FD09E00821062007F0CFFD04E02D
:100C20000821102007F0CAFD00BF00BF70BD000002
:100C300024010020D66700200EB500BF2AE0164828
:100C4000008800281DDD15480078D0B91448407987
:100C500068B1144890ED001A1348D0ED000A13480B
:100C600090ED000A0C48008806F04CF912E002A84A
:100C700000210A230A46CDE90010084603F0FEF8D9
:100C800008E002A800210A230A46CDE90010084620
:100C900003F0F4F8D3E700000C0000201600002059
:100CA0002B000020EC000020E8000020E4000020E1
:100CB0001FB5684606F024FC019804B010BD00BFC3
:100CC000FEE700002DE9F0418AB004460D461646C5
:100CD0001F46DDF840800121084606F0E1FB0121B6
:100CE000480606F0EDFB4FF4C050089002208DF846
:100CF000240000208DF8260003208DF82500012017
:100D00008DF8270008A92C4801F06CFB09220B2163
:100D1000294801F0AFFB09220C21274801F0AAFB6A
:100D200000208DF81A008DF81B008DF81C000120A2
:100D30008DF81D0000208DF81E008DF81F008DF825
:100D400016808DF817408DF818608DF81950ADF8A1
:100D5000147005A9194800F052FA00208DF80E0011
:100D60008DF80F0001208DF810000020ADF8040070
:100D7000ADF80600ADF80800ADF80A00ADF80C00BB
:100D800001208DF8110001A800F0ACF90122022128
:100D90000A4800F02BFA14208DF8000001208DF88D
:100DA00001008DF802008DF80300684601F0CEFDC9
:100DB00000200AB0BDE8F08100000240006400405D
:100DC00010B586B0002401AA0021024800F0A1FA63
:100DD00006B010BD006400402DE9F04186B0054624
:100DE0008846164600240195029500208DF80C00D7
:100DF0008DF80D008DF80E6000BF06E018F80410A5
:100E00000DF10F000155601C84B2B442F6DB01A95C
:100E10000D4800F0F6FA0746002401E0601C84B299
:100E20003946094800F080FB18B940F6FF7084424B
:100E3000F4DB40F6FF70844203DB012006B0BDE81E
:100E4000F0810020FAE70000006400402DE9F04145
:100E50008AB004460D4616461F46DDF84080012143
:100E6000022006F01DFB0121880606F029FB602008
:100E7000089002208DF8240000208DF82600032021
:100E80008DF8250001208DF8270008A92D4801F0D4
:100E9000A9FA092205212B4801F0ECFA09220621C2
:100EA000284801F0E7FA00208DF81A008DF81B00A1
:100EB0008DF81C0001208DF81D0000208DF81E000B
:100EC0008DF81F008DF816808DF817408DF818608A
:100ED0008DF81950ADF8147005A91B4800F08FF972
:100EE0000E208DF80E0000208DF80F0001208DF8E7
:100EF00010000020ADF80400ADF80600ADF80800C1
:100F0000ADF80A00ADF80C0001208DF8110001A821
:100F100000F0E8F8012202210B4800F067F94020B8
:100F20008DF8000001208DF8010002208DF80200EC
:100F300001208DF80300684601F008FD00200AB08A
:100F4000BDE8F081000402400068004010B58CB09C
:100F5000002407AA0021544800F0DBF90798102864
:100F600016D100BF05E00DF12700005D4F4908557F
:100F7000641C9DF82600A042F5DC4C4800784B49E3
:100F8000497840EA01204A4908800120494908700F
:100F90000798022831D1002406E00DF12700005DFA
:100FA000454921F81400641C9DF82600A042F4DC99
:100FB00041480088032820D03F48008804281CD0DE
:100FC0003D4800883D4908803B480088092803D0F7
:100FD000394800880A2803D10020394908800CE0EC
:100FE00035484088C0EB0010400036490988484326
:100FF0000A2190FBF1F0324908800798012818D1A6
:10100000002405E00DF12700005D2F490855641C00
:101010009DF82600A042F5DC2B4801782B48037888
:101020000822684601F0F0F81C2269462848FFF7BC
:10103000AAF90798032818D1002405E00DF127002C
:10104000005D24490855641C9DF82600A042F5DC8B
:10105000204801781D4803780822684601F0D4F83A
:101060001C2269461C48FFF78EF90798042818D1FE
:10107000002405E00DF12700005D18490855641CA7
:101080009DF82600A042F5DC144801780F4803784B
:101090000822684601F0B8F81C2269461048FFF79C
:1010A00072F90CB010BD0000006800401061002013
:1010B000D0000020D200002060610020120000203B
:1010C0000E000020100000202061002015000020EC
:1010D0004C620020406100208462002050610020AA
:1010E000A062002010B50021837A012202FA03F1E8
:1010F0003D4A126842F001023B4B1A603A4A1C32E8
:1011000012688A43384B1C331A60027BCAB9364ACC
:101110000C3212688A43344B0C331A604288C388FD
:1011200042EA0343304A4032847A42F8343002883B
:10113000838842EA03432C4A4032847A02EBC40299
:101140005360027B012A19D1274A0C3212680A43E4
:10115000254B0C331A604288038842EA0343224A33
:101160004032847A42F83430C288838842EA0343AA
:101170001D4A4032847A02EBC4025360C27A3AB903
:10118000194A121D12688A43174B1B1D1A6006E08C
:10119000154A121D12680A43134B1B1D1A6002895F
:1011A00032B9114A143212688A430F4B14331A6051
:1011B0000289012A06D10C4A143212680A430A4BEA
:1011C00014331A60427B012A06D1074A1C32126886
:1011D0000A43054B1C331A60034A126822F00102CD
:1011E000014B1A6010BD0000006600401AB143694F
:1011F0000B43436102E043698B434361704730B561
:10120000024600200023146824F0020414601468CD
:1012100044F00104146000E05B1C546804F0010415
:101220001CB94FF6FF74A342F6D1546804F00104D0
:101230000CB900206CE08C79012C04D1146844F0C6
:101240008004146003E0146824F080041460CC79F6
:10125000012C04D1146844F04004146003E01468C5
:1012600024F0400414600C7A012C04D1146844F07A
:101270002004146003E0146824F0200414604C7A05
:10128000012C04D1146844F01004146003E01468C5
:1012900024F0100414608C7A012C04D1146844F0FA
:1012A0000804146003E0146824F008041460CC7A85
:1012B000012C04D1146844F00404146003E01468A1
:1012C00024F0040414608C78A407CD7844EA056403
:1012D0000D7944EA05444D7944EA05540D886D1EA4
:1012E0002C43D461146824F001041460002300E04E
:1012F0005B1C546804F001041CB14FF6FF74A34258
:10130000F6D1546804F001040CB1002000E0012083
:1013100030BD10B500F5D87303EB01131B6803F063
:1013200004031372137A53B900F5D87303EB011356
:101330001B6840F2FF7404EA5353136009E000F5A0
:10134000D87303EB01131B686FF0604404EAD30306
:10135000536000F5D87303EB01131B6803F002031D
:10136000537200F5D87303EB01135B6803F00F03AE
:10137000937200F5D87303EB01135B681B0AD374F7
:1013800000F5D87303EB01139B68D37200F5D87393
:1013900003EB01139B681C0A147300F5D87303EB6D
:1013A00001139B681C0C547300F5D87303EB0113F5
:1013B0009B681B0E937300F5D87303EB0113DB6876
:1013C000D37300F5D87303EB0113DB681C0A1474A4
:1013D00000F5D87303EB0113DB681C0C547400F5A3
:1013E000D87303EB0113DB681B0E937421B9C36838
:1013F00043F02003C36003E0036943F0200303616B
:1014000010BD10B502460020936803F08063B3F16D
:10141000806F00D110E0936803F00063B3F1006FB8
:1014200001D1012008E0936803F08053B3F1805F9D
:1014300001D1022000E00420042874D002F5C0731A
:1014400003EB00131B6803F0010402F5C07303EB08
:1014500000131C600B7A7BB94B7A0C8843EA445327
:1014600002F5C07404EB00142468234302F5C07431
:1014700004EB0014236010E00B7A4C6843EAC403C9
:101480004C7A234302F5C07404EB00142468234310
:1014900002F5C07404EB001423608B7A03F00F0391
:1014A0008B7202F5C07303EB00135B6823F00F042B
:1014B00002F5C07303EB00135C6002F5C07303EB2D
:1014C00000135B688C7A234302F5C07404EB0014AC
:1014D00063608B7B1C064B7B44EA03440B7B44EA32
:1014E0000323CC7A234302F5C07404EB0014A360F9
:1014F0008B7C1C064B7C44EA03440B7C44EA0323AC
:10150000CC7B234302F5C07404EB0014E36002F5C6
:10151000C07303EB00131B6843F0010402F5C073B2
:1015200003EB00131C6010BD10B50246002321B16F
:10153000012907D002290FD109E090681D4C00EA6B
:1015400004030BE090681C4C00EA040306E090687A
:101550001A4C00EA040301E0002300BF00BF184C4E
:10156000181BA34216D007DC83B16FF080601844CB
:1015700070B1022818D111E0B0F5007F10D0114CE5
:10158000204448B1B0F5003F0ED10BE002230DE03E
:1015900000230BE0002309E0002307E0012305E01E
:1015A000012303E0012301E0002300BF00BFD8B204
:1015B00010BD000003000004000300080000031039
:1015C000000100080001FFF710B500F01FF800F05F
:1015D00019F810BD10B5002400BF00BFFEF758FE7B
:1015E000044600BF00BF1021054801F07BF800BF92
:1015F00000BF2046FEF750FE00BF00BF10BD000038
:10160000AC6E002010B5FFF7E5FF10BD10B500204F
:101610000249086000F00AF810BD000040010020F7
:1016200001490860704700004001002010B5FFF735
:101630003FFB04460848006840F080700649086097
:101640000020064948600846006840F00100086034
:101650002046FFF7E5FF10BDFCED00E0001000E0C4
:101660000149486870470000001000E030B50246AC
:101670000B464FF6FF70002112E0555C68400024D5
:101680000AE000F0010525B140104AF2010568406A
:1016900000E04010651CACB2082CF2DB4D1CA9B276
:1016A0009942EADB30BD0EB500BF08E002A8002178
:1016B0000A230A46CDE90010084602F0DFFBF5E7F1
:1016C0002DE9FE4305460E4600240027A046A1460C
:1016D000012D4ED137E05048848897B94F48008992
:1016E000A04203DA304607F099F923E0032001F025
:1016F0003AF8042001F037F8304607F0A3F9012743
:1017000018E0B8F1000F10D144484089A04203DD31
:10171000304607F097F90DE0032001F024F804208B
:1017200001F021F84FF0010804E000F0C5FC4FF093
:1017300001090CE002A800210A230A46CDE90010A5
:10174000084602F09BFB3648807C0228C3DB00BFC2
:10175000B9F1000F03D000203249887002E0012067
:1017600030498870032000F0FEFF042000F0FBFFEA
:101770004FE0022D4DD137E02748848897B927489C
:101780000089A04203DA304607F048F923E004203C
:1017900000F0E9FF032000F0E6FF304607F052F9C1
:1017A000012718E0B8F1000F10D11C484089A04271
:1017B00003DD304607F046F90DE0042000F0D3FFCA
:1017C000032000F0D0FF4FF0010804E000F074FCAB
:1017D0004FF001090CE002A800210A230A46CDE9D6
:1017E0000010084602F04AFB0F48807C0228C3DB49
:1017F00000BFB9F1000F03D000200A49C87002E011
:1018000001200849C870042000F0ADFF032000F05B
:10181000AAFFBDE8FE830000BE000020C400002037
:101820008462002021000020A06200202DE9FE43F8
:1018300005460E4600240027A046A146012D4ED1A4
:1018400037E05048448897B94F484088A04203DAAF
:10185000304607F0C3F923E0012000F084FF0220A6
:1018600000F081FF304607F0CDF9012718E0B8F10C
:10187000000F10D144488088A04203DD304607F0B5
:10188000C1F90DE0012000F06EFF022000F06BFFB7
:101890004FF0010804E000F00FFC4FF001090CE0EC
:1018A00002A800210A230A46CDE90010084602F0EA
:1018B000E5FA3648807C0228C3DB00BFB9F1000F8F
:1018C00003D000203249087002E00120304908703E
:1018D000012000F048FF022000F045FF4FE0022DFC
:1018E0004DD137E02748448897B927484088A0421F
:1018F00003DA304607F072F923E0022000F033FFEC
:10190000012000F030FF304607F07CF9012718E095
:10191000B8F1000F10D11C488088A04203DD30468A
:1019200007F070F90DE0022000F01DFF012000F02B
:101930001AFF4FF0010804E000F0BEFB4FF0010970
:101940000CE002A800210A230A46CDE9001008464F
:1019500002F094FA0F48807C0228C3DB00BFB9F183
:10196000000F03D000200A49487002E00120084916
:101970004870022000F0F7FE012000F0F4FEBDE800
:10198000FE830000BE000020C40000204C62002046
:1019900021000020686200200EB5002400250026EA
:1019A000002700BF00F008FD43E0701C86B2B6F5CA
:1019B000966F02DD00F000FD00261E4988884988E8
:1019C000C21700EB9272B1EBA20F07DA781CC7B214
:1019D000642F03DD18A007F07BF900271D4800786D
:1019E00058B101201C490860681CC5B2052D04D1FE
:1019F00000200860174908700025601CC4B20A2C3A
:101A000005D1002015490860012015494870142CA3
:101A100006D10120114908600020114948700024B6
:101A200002A8002132230A46CDE90010084602F040
:101A300025FABAE7B4000020B5E7C1BFC9D9D3DAA7
:101A4000CBC4B7D6D6AED2BB2CC7EBBCB0CAB1B3F1
:101A5000E4B5E700D20000208C024042A082404260
:101A6000DC63002010B50A490A4800F01FF968B18C
:101A7000012240F22661084806F030FC044905487E
:101A800000F03EF80021034800F054F810BD0000BB
:101A90002080002070600240004C004070B500269D
:101AA0001349144800F002F908B3012419E0002595
:101AB00009E005EB4500104901EB400030F8140047
:101AC0000644681CC5B21E2DF3DB1E20B6FBF0F0E9
:101AD0001421B0FBF1F0094921F814000026601C24
:101AE000C4B2032CE3DB0249024800F009F870BDE0
:101AF000208000101064024048600020BE000020DA
:101B00000246094B9A4201D2084801E006481038C3
:101B100001F000531BB1064B0B40C36002E0044BC5
:101B20000B40836070470000106402400060024078
:101B30007D0F7D0F21B1026842F00102026003E0D7
:101B4000026822F00102026070470000016821F083
:101B5000010101600021016041608160C16001619B
:101B6000212141614A49884204D13D21484A103A25
:101B700091608CE046491831884205D14FF4746178
:101B8000434A103A916082E041493031884205D1A0
:101B90004FF474113E4A103A916078E03C49483164
:101BA000884205D14FF07461394A103A91606EE075
:101BB00037496031884204D13649354A103AD160FC
:101BC00065E033497831884204D13349304A103ACC
:101BD000D1605CE02E499031884204D12F492C4AD3
:101BE000103AD16053E02A49A831884205D14FF01C
:101BF0003D51274A103AD16049E02949884204D131
:101C00003D21274A083A116041E0254918318842B0
:101C100005D14FF47461224A083A116037E0204937
:101C20003031884205D14FF474111D4A083A1160D1
:101C30002DE01B494831884205D14FF07461184AA4
:101C4000083A116023E016496031884204D11149F5
:101C5000134A121F11601AE011497831884204D1E9
:101C60000D490F4A121F116011E00D499031884251
:101C700004D10A490A4A121F116008E00849A83134
:101C8000884204D14FF03D51054A121F1160704740
:101C9000106002403D000020400F002000003D2069
:101CA000106402400146486880B2704770B5024631
:101CB000002000240025124EB24201D2114B01E057
:101CC0000F4B103B104E0E4036B11E2606EAD124B3
:101CD000166806EA040502E0566906F0800501F080
:101CE00000560EB15C6800E01C68084E344004EAFF
:101CF000010616B10DB1012000E0002070BD00000A
:101D000010640240006002403C0F3C0F7D0F7D0FCD
:101D100010B501F080034BB122B1436943F0800359
:101D2000436103E0436923F08003436180290BD0C2
:101D30002AB1036801F01E042343036004E0036832
:101D400001F01E04A343036010BD000010B5002283
:101D50000268134B1A40CC680B6823434C69234339
:101D60008C692343CC6923430C6A23434C6A234385
:101D70008C6A23434C6B23438C6B23431A430260CE
:101D8000426922F00702D1E90B3423431A4342612E
:101D90000B6943604B6883608B68C36010BD0000B3
:101DA0003F801CF04160704700B58FB001214805AD
:101DB00005F076FB00213348FFF7BCFE3148FFF702
:101DC000C5FE4FF0006000902F4801902F48029010
:101DD00040200390FA200490002005904FF480608A
:101DE00006900020079008904FF480700990002022
:101DF0000B9003200C9000040A9000200D900E9090
:101E000069462048FFF7A2FF00211E48FFF792FE17
:101E1000012210211B48FFF77BFF002119481838C9
:101E2000FFF788FE17481838FFF790FE4FF0006064
:101E30000090154801901648029000200390FA2067
:101E40000490002005904FF48060069000200790D9
:101E500008904FF48070099000200B9003200C90A4
:101E600000040A9000200D900E906946054818382D
:101E7000FFF76CFF012103481838FFF75BFE0FB036
:101E800000BD0000A060024004440040485F002004
:101E90004E5E002000B591B00121480505F000FB21
:101EA00000211F48FFF746FE1D48FFF74FFE4FF089
:101EB000006001901B4802901B4803900020049092
:101EC00080200590002006904FF48060079000204D
:101ED000089009904FF480700A9000200C90032025
:101EE0000D9000040B9000200E900F9001A90C485B
:101EF000FFF72CFF01210A48FFF71CFE0E208DF88A
:101F0000400002208DF8410005208DF8420001209C
:101F10008DF8430010A800F019FD11B000BD0000BD
:101F20002860024004480040CE5D002000B591B01A
:101F30000121480505F0B4FA00213A48FFF7FAFDFF
:101F40003848FFF703FE4FF00060019036480290DA
:101F50003648039040200490FA2005900020069017
:101F60004FF4806007900020089009904FF4807033
:101F70000A9000200C9003200D9000040B9000208C
:101F80000E900F9001A92748FFF7E0FE0021254899
:101F9000FFF7D0FD012210212248FFF7B9FE0021F2
:101FA00020483038FFF7C6FD1E483038FFF7CEFD19
:101FB0004FF0006001901C4802901D4803900020E3
:101FC0000490FA200590002006904FF4806007905E
:101FD0000020089009904FF480700A9000200C9027
:101FE00003200D9000040B9000200E900F9001A98B
:101FF0000C483038FFF7AAFE01210A483038FFF7B5
:1020000099FD0F208DF8400003208DF8410001203C
:102010008DF842008DF8430010A800F097FC11B035
:1020200000BD000070600240044C0040DC660020EF
:10203000D667002000B58FB00121880505F030FA81
:1020400000211948FFF776FD1748FFF77FFD0020B4
:1020500000901648019016480290002003905A20E4
:102060000490002005904FF4806006904000079097
:102070000890C010099000200B9003200C900004E1
:102080000A9000200D900E9069460748FFF75EFE0B
:10209000012210210448FFF73BFE01210248FFF70F
:1020A00049FD0FB000BD0000106402404C2001400B
:1020B00048600020704700001CB50020009001908F
:1020C0004B4840884B490880084600884A4909889F
:1020D000401A00900120494908602DE045480088D9
:1020E0004549098888420BDD009C002C01DB214614
:1020F00000E06142424A1278514388B206F06EFD18
:102100003C4800883C49098888420BDA009C002C36
:1021100001DB214600E06142394A1278514388B21E
:1021200006F070FD32484088324908800846008831
:1021300031490988401A00900098002801DB0146C7
:1021400000E041420229C9DC012000F00CFB022022
:1021500000F009FB264880882649488008464088C8
:102160002549C988401A01902DE02248408822491B
:10217000C98888420BDD019C002C01DB214600E070
:1021800061421F4A1278514388B206F047FC194851
:1021900040881949C98888420BDA019C002C01DB70
:1021A000214600E06142164A1278514388B206F097
:1021B00049FC0F4880880F494880084640880E49EE
:1021C000C988401A01900198002801DB014600E00F
:1021D00041420229C9DC032000F0C5FA042000F0C6
:1021E000C2FA0120074908700020044908601CBD9C
:1021F000BE0000201A000020C40000208C024042D3
:10220000200000201E0000202DE9FF4F87B08846E7
:1022100091469A460024D3466FEA0800C5B20026CC
:10222000002700BF00208DF800008DF811008DF808
:10223000120005908DF8180000240CE045FA04F017
:1022400000F0010028B19DF81200401CC0B28DF8CA
:102250001200601CC4B2082CF0DB00240AE045FA2E
:1022600004F000F0010010B9701CC6B200E00824B0
:10227000601CC4B2082CF2DB00240AE005FA04F06A
:1022800000F0800010B9781CC7B200E00824601C80
:10229000C4B2082CF2DB344611E045FA04F000F039
:1022A000010050B99DF800100DF1010044549DF853
:1022B0000000401CC0B28DF80000601CC4B2C7F121
:1022C0000800A042E9DC9DF8000000281FDD012085
:1022D0008DF811009DF80000012818DD002411E0A0
:1022E0000DF10100611C415C005D081A012800D15C
:1022F00006E09DF81100401CC0B28DF8110000BF2F
:10230000601CC4B29DF80000401EA042E8DC9DF8AD
:10231000120018B901208DF818003DE09DF800006A
:1023200000282FDD9DF81100012835D1BBF1020FE7
:1023300010D134460BE045FA04F000F0010018B16A
:102340000120A040854300E00824601CC4B2082C92
:10235000F1DB67E7BBF1010F10D13C460BE005FA5A
:1023600004F000F0800018B180202041854300E097
:102370000824601CC4B2082CF1DB53E701208DF85F
:10238000180009E09DF81200484502DCB81B0590D2
:1023900002E001208DF818001C2269460548FDF76F
:1023A000F2FF1C2269460798FDF7EDFF0BB0BDE870
:1023B000F08F00003062002010B50722074908485E
:1023C00006F01CF8642300221146104606F0E6F9D8
:1023D00007220249024806F011F810BD340000201F
:1023E00000480040F0B50A4600210023002400BF49
:1023F0003DE0012505FA01F3156805EA03049C4256
:1024000034D105684F000326BE40B54305601579F9
:102410004E00B5400668354305601579012D02D0A0
:102420001579022D16D185684F000326BE40B543AD
:10243000856055794E00B5408668354385604568AE
:1024400001268E40B5434560456896798E40B6B208
:1024500035434560C5684F000326BE40B543C5609F
:10246000D5794E00B540C6683543C560491C102972
:10247000BFD3F0BDF0B5002300244D07ED0E02FAE6
:1024800005F3CE1000F1200555F826504E07F70E43
:102490000F26BE40B543CF1000F1200646F8275066
:1024A000CE1000F1200555F8265045EA0304CE1061
:1024B00000F1200545F82640F0BD418370470183B7
:1024C000704700BFFEE7000010B501461B4A1268C6
:1024D000521A1A4B9A601A469268DB68D21A00EEBA
:1024E000102AB8EEC00A154AD2ED050A20EE200ADD
:1024F00092ED061AD2ED020AF8EEE00A01EE200A89
:1025000092680E4BDB68022404FB13220B4B1B6901
:102510001A4400EE902AF8EEE00A084A92ED071AF3
:1025200001EE200ABDEEC00A10EE100AD268034B7D
:102530001A611A469268DA6010BD000080610020BE
:1025400010B501461B4A1268521A1A4B9A601A4675
:102550009268DB68D21A00EE102AB8EEC00A154A5B
:10256000D2ED050A20EE200A92ED061AD2ED020AFB
:10257000F8EEE00A01EE200A92680E4BDB680224B6
:1025800004FB13220B4B1B691A4400EE902AF8EE51
:10259000E00A084A92ED071A01EE200ABDEEC00AD1
:1025A00010EE100AD268034B1A611A469268DA607C
:1025B00010BD0000A06100201CB50121022004F024
:1025C0006FFF0121102004F06BFF4FF4407000906A
:1025D00001208DF8040000208DF8060003208DF8FE
:1025E000050001208DF8070069460F48FFF7FAFE45
:1025F0004FF440710C48FFF762FF03200090012068
:102600008DF8040000208DF8060003208DF80500E9
:1026100001208DF8070069460448FFF7E3FE032117
:102620000248FFF74CFF1CBD0004024000100240AE
:1026300000BF00F08AF8FFF73FFD40E02048007837
:1026400090B32048008832281FDD1F480088E0B181
:102650001E48807980B100201D4908701D4890ED0A
:10266000001A1D48D0ED000A1C4890ED000A1548DC
:10267000008804F05FFD22E0002000F074F81448A8
:102680000078E0B9FFF718FD19E0002000F06BF8C2
:102690000F48007808B9FFF70FFD0C48007920B902
:1026A00000200A4988710AE003E001200749887187
:1026B00005E0142300221146104606F06FF8BDE72E
:1026C000160000200E000020120000202B00002029
:1026D0001E0000200801002004010020000100204D
:1026E00000BFFEE730B505460C46224600212846CD
:1026F00000F001F830BD2DE9F04105460B46944647
:102700000027002402E03F021F43641C042CFAD37C
:10271000604605F00306294646B1344603E001F859
:10272000013B401E641C08B1042CF8D30A4601E0AA
:1027300080C2001F0428FBD2114602E001F8013BD1
:10274000401E0028FAD1BDE8F08110B564230222B2
:102750000021084606F022F8FEF73AF8FEF74AF89C
:10276000FEF784F810BD10B50446002C06DD052CDC
:1027700004DA00212046FEF7B5F810E07CB900210C
:102780000120FEF7AFF800210220FEF7ABF8002190
:102790000320FEF7A7F800210420FEF7A3F810BDE0
:1027A00070B505460C46002604B908E014480088B8
:1027B000844203D912480088464200E06642012D57
:1027C00006D0022D09D0032D0CD0042D14D10EE01B
:1027D00031460120FEF786F80FE031460220FEF771
:1027E00081F80AE031460320FEF77CF805E0314627
:1027F0000420FEF777F800E000BF00BF70BD0000C6
:102800000A00002070B504460D4613480088854232
:1028100001D911480588012C06D0022C09D0032CBF
:102820000CD0042C14D10EE029460120FEF75AF8F2
:102830000FE029460220FEF755F80AE0294603205A
:10284000FEF750F805E029460420FEF74BF800E0BB
:1028500000BF00BF70BD00000A000020704708B52F
:102860000A208DF8000000208DF8010001208DF86D
:1028700002008DF80300684600F068F817208DF814
:10288000000000208DF8010002208DF802000120D8
:102890008DF80300684600F059F828208DF80000F4
:1028A00000208DF8010003208DF8020001208DF832
:1028B0000300684600F04AF834208DF8000001203B
:1028C0008DF8010000208DF8020001208DF8030032
:1028D000684600F03BF826208DF8000002208DF8B5
:1028E000010000208DF8020001208DF803006846E9
:1028F00000F02CF838208DF8000000208DF8010041
:102900008DF8020001208DF80300684600F01EF8E3
:1029100027208DF8000002208DF801008DF80200BC
:1029200001208DF80300684600F010F847208DF86C
:10293000000003208DF8010002208DF80200012024
:102940008DF80300684600F001F808BD70B500215D
:1029500000230F22C4781CB3174C246804F4E064ED
:10296000C4F5E064C4F30721C1F10404E3B20A41F1
:1029700044789C40E1B28478144021430C07210E36
:102980000E4C05786155047804F01F050124AC4015
:1029900005786D11AD0005F1E025C5F8004109E0AD
:1029A000047804F01F050124AC40054D067876112B
:1029B00045F8264070BD00000CED00E000E400E0AA
:1029C00080E100E002490143024A116070470000C3
:1029D0000000FA050CED00E01548164816481748A7
:1029E000174818481848194819481A481A481B48DF
:1029F0001B481C481C481D481D481E481E481F48AF
:102A00001F4820482048214821482248224823487E
:102A1000234824482448254825482648264827484E
:102A20002748284828482948294800BF70470000FF
:102A300060920008C0910008C4910008C891000885
:102A4000CC910008D0910008D4910008D8910008DA
:102A5000DC910008E0910008E4910008E89100088A
:102A6000EC910008F0910008F4910008F89100083A
:102A7000FC910008009200080492000808920008E7
:102A80000C92000810920008149200081892000896
:102A90001C92000820920008249200082892000846
:102AA0002C920008309200083492000838920008F6
:102AB0003C920008409200084492000848920008A6
:102AC0004C92000850920008549200085892000856
:102AD0005C92000810B50348006810B10148006816
:102AE000804710BD5801002070B5044600F0C2F8C0
:102AF000002048490870484908704849087048490A
:102B000008604849086048490870484908704849C1
:102B100008704849086048490860484908604849C1
:102B20000870484800680A21B0FBF1F04649086087
:102B30004648006858B14648056845B143480668AC
:102B400003E0761E002028602D1D002EF9D1002004
:102B500040490860404908604049086040490860B1
:102B60004049086040490860404908604049087091
:102B700002F0ECF902F0CCFA204601F07BFB208851
:102B800000B170BD204601F05DFF208800B1F8E77C
:102B9000204601F07FFF208800B1F2E7204602F0D6
:102BA0004BF8208800B1ECE7204602F0FFF92088BE
:102BB00000B1E6E7204602F01FFC208800B1E0E704
:102BC000204602F041FF208800B1DAE7204601F0FC
:102BD000A5FE208800B1D4E7204601F0BDFC208886
:102BE00000B1CEE7204603F09FFE208800B1C8E781
:102BF000204602F06DFE208800B1C2E7204603F0B7
:102C0000EFFE208800B1BCE701F05CFAFFF7E4FEBC
:102C100000BFB6E76C0100206D010020B401002068
:102C20000C020020100200209A0100209B010020CD
:102C30009C010020A8010020AC010020B001002070
:102C4000BC01002020920008B8010020F09100088B
:102C5000EC9100084C01002050010020540100209C
:102C6000580100205C010020600100206401002068
:102C7000EA010020064800680649096800EB810067
:102C8000054908600846006820F0070008607047A2
:102C9000EC910008F0910008140200200848007828
:102CA000012800D0704707480078FA2800DBF9E7D0
:102CB00004480078401C0349087000BFF2E7000098
:102CC0006D0100206C01002010B500242D48007813
:102CD000012800D010BD00BFFDF7DAFA044600BF9E
:102CE0002948007828B900BF2046FDF7D5FA00BF73
:102CF000F0E725480078401E234908700846007810
:102D0000002805DD00BF2046FDF7C6FA00BFE1E759
:102D10001E480078002805DD00BF2046FDF7BCFAFC
:102D200000BFD7E702F0FEF819490870084600789E
:102D300000EB4000174951F8200017490860084689
:102D4000006816490968884205D100BF2046FDF792
:102D5000A3FA00BFBEE710480068D0F89000401CFE
:102D60000D490968C1F890000D480068401C0C49E5
:102D70000860FDF7CFFB00BF2046FDF78DFA00BFCE
:102D800000BFA7E76D0100206C010020B401002006
:102D90009B010020E0840020100200200C02002093
:102DA000E001002010B500241F480078002800DD55
:102DB00010BD1E480078002800DDF9E700BFFDF7D0
:102DC00067FA044600BF02F0ADF8194908700846DA
:102DD000007800EB4000174951F8200016490860C0
:102DE0000846006815490968884205D100BF204699
:102DF000FDF752FA00BFDBE70F480068D0F89000FB
:102E0000401C0D490968C1F890000D480068401C3D
:102E10000B490860FDF779FB00BF2046FDF73CFA3F
:102E200000BF00BFC4E700006C010020B401002017
:102E30009B010020E0840020100200200C020020F2
:102E4000E001002070B504460025184800780028ED
:102E500003DD46F66250208070BD154800780128D9
:102E600003D045F689602080F6E712480078FA28FA
:102E700003DB45F209202080EEE700BF00BFFDF72D
:102E800007FA054600BF00BF0A480078401C094900
:102E9000087002F01DFA00BF00BF2846FDF7FCF9DC
:102EA00000BF00BF0020208000BFD5E76C010020DC
:102EB0006D010020B40100202DE9F04105460C46CB
:102EC0001646002700BF00BFFDF7E2F9074600BF26
:102ED00000BF012D03D000200D49087002E0012041
:102EE0000B49087014B10B48046006E00A480068FA
:102EF0000A21B0FBF1F00749086000BF00BF384667
:102F0000FDF7CAF900BF00BF00203080BDE8F081A6
:102F1000BC010020B80100202092000870B50446D2
:102F2000002520480078002803DD46F66550208003
:102F300070BD1D480078012803D045F689602080C7
:102F4000F6E71A48007818B946F664502080EFE793
:102F500000BF00BFFDF79CF9054600BF00BF134846
:102F60000078401E114908700846007800280ADDE4
:102F700000BF00BF2846FDF78FF900BF00BF46F62F
:102F800063502080D4E702F0B1F900BF00BF2846AB
:102F9000FDF782F900BF00BFFFF704FF002020808B
:102FA00000BFC5E76C0100206D010020B4010020C6
:102FB00010B5044612480078E8B901F0B3FF114992
:102FC000087008460078104908700E48007800EB39
:102FD00040000E4951F820000D490860084600687D
:102FE0000C490860012006490870FDF77DFA43F698
:102FF0009920208002E045F68A60208010BD000004
:103000006D0100209B0100209A010020E084002037
:10301000100200200C0200202DE9F04107464FF07D
:10302000000800BF00BFFDF733F9804600BF00BFB6
:1030300000203D4908603D4908803D4908803D49E0
:1030400008603D4908603D4908603D4908603D49C8
:10305000088100BF00BF4046FDF71EF900BF00BF5A
:1030600000BF00BFFDF714F9804600BF00BF36481F
:10307000046800BF00BF4046FDF70EF900BF00BF67
:1030800021E000BF00BFFDF703F9804600BF00BF8D
:1030900000207834E06320602063A061A082E08299
:1030A0006062A062FEF7DCFA2062783C04F16406FC
:1030B0000020B081D4F8BC4000BF00BF4046FDF7FF
:1030C000EBF800BF00BF002CDBD100BF00BFFDF755
:1030D000DFF8804600BF00BF1C48056800BF00BF86
:1030E0004046FDF7D9F800BF00BF12E000BF00BFA7
:1030F000FDF7CEF8804600BF00BF05F12006002096
:10310000B081AD6900BF00BF4046FDF7C5F800BF04
:1031100000BF002DEAD103F0E3FA03F05DFD0020CB
:103120003880BDE8F0810000800100207A01002095
:10313000CA010020DC010020F0010020FC01002079
:10314000AC010020D4840020E4010020A001002074
:10315000F8B5044600266946324800F08FFDBDF8F8
:10316000000018B1BDF800002080F8BD6A460021BB
:10317000022000F0F7FDBDF8000018B1BDF8000016
:103180002080F2E700BF00BFFDF782F8064600BFCF
:1031900000BF00202449086000BF00BF3046FDF793
:1031A0007BF800BF00BF002520480068204909685F
:1031B000884205D91D4800681D490968B0FBF1F532
:1031C00025B91A4800680A21B0FBF1F56A460021CA
:1031D000284600F0C7FD6946124800F063FABDF8C2
:1031E000000018B1BDF800002080BEE700BF00BF9E
:1031F000FDF74EF8064600BF00BF00200D490860ED
:10320000094800680C49086001200C49087000BF9B
:1032100000BF3046FDF740F800BF00BF002020800F
:1032200000BFA2E768890020CC010020209200089E
:1032300008920008DC010020D0010020D801002005
:1032400010B50348006810B101480068804710BD00
:103250005C0100202DE9FF4F87B004469046DDE970
:103260001BA5DDE91496179F00200390874800787E
:10327000002805DD47F24A1028800BB0BDE8F08F2A
:103280001CB947F2AD102880F7E7B8F1000F03D161
:1032900047F24F102880F0E71EB946F62F602880CD
:1032A000EBE77B480068874203D246F6306028800F
:1032B000E3E71698B84203D346F631602880DCE78E
:1032C000B9F1400F03D346F273202880D5E7B9F156
:1032D000000F06D16F48844203D046F27320288045
:1032E000CBE7B9F13F0F06D16B48844203D046F2D9
:1032F00073202880C1E7204602F0B6FB002028801A
:103300000AF0010090B10AF0020078B105960020A1
:10331000069008E00021059801600598001D0590C1
:103320000698401C06900698B842F3D3169806EB10
:1033300080000490CDE9007A32464046049B0A9909
:1033400000F06EFB0590C4F828800A98E0620898A7
:10335000206284F83790059820600498A06019983E
:103360006065199818B94D480068A06501E0199882
:10337000A0651A9860606662A763A4F83CA04FF04D
:10338000000B08E0002104F17C0040F82B100BF149
:10339000010000F0FF0BBBF1000FF3D004F164005B
:1033A000189901F0C3FB204600F082F800BF00BF6F
:1033B00000BFFCF76DFF039000BF00BF38480078E6
:1033C000401C3749087000BF00BF0398FCF764FF3A
:1033D00000BF00BF00BF94F8370001F0C3FD2046D6
:1033E00001F0DEFE204602F0F5FA2E480088401C6F
:1033F0002C4908802C48007801282DD000BF00BF40
:1034000000BFFCF745FF039000BF00BF24480078D1
:10341000401E2349087008460078A0B92348008858
:10342000002809DD00BF00BF0398FCF735FF00BF8F
:1034300000BF01F023FF0DE000BF00BF0398FCF7C1
:103440002BFF00BF06E000BF00BF0398FCF724FF7E
:1034500000BF00BF00BF10E700BF00BF00BFFCF708
:1034600017FF039000BF00BF0D480078401E0C49B5
:10347000087000BF00BF0398FCF70EFF00BF00BF3D
:1034800000BFFFF78FFC00BFF7E600006C010020D3
:103490001C920008108400204C830020B8010020FA
:1034A000B4010020E80100206D0100207801002017
:1034B00010B504460348006818B120460149096860
:1034C000884710BD4C01002070B504460D4600260B
:1034D00067480078002803DD47F24E10288070BD51
:1034E0006448844203D147F24C102880F7E76248D1
:1034F000844203D147F24D102880F0E77CB900BF29
:1035000000BFFCF7C5FE064600BF00BF5B4804686D
:1035100000BF00BF3046FCF7BFFE00BF00BF00BFCA
:1035200000BF00BFFCF7B4FE064600BF00BF544812
:103530000078401C5249087000BF00BF3046FCF7BD
:10354000ABFE00BF00BF00BF94F8360008282DD2A4
:10355000DFE800F004090E10080A0F11204601F000
:103560005FFE54E053E000BF204603F09DF84EE0BC
:1035700000BF00BF00BF204603F096F894F8340067
:10358000082810D2DFE800F004070508090A0B0636
:1035900000BF00BF08E000BF00BF00BF00BF204663
:1035A00001F011FC00E000BF00BF30E000BF00BF31
:1035B00000BFFCF76DFE064600BF00BF3048007834
:1035C000401E2F49087008460078A0B92D48008891
:1035D000002809DD00BF00BF3046FCF75DFE00BFDC
:1035E00000BF01F04BFE0DE000BF00BF3046FCF70E
:1035F00053FE00BF06E000BF00BF3046FCF74CFEA4
:1036000000BF00BF00BF46F62D60288067E700BFFF
:1036100004F1640001F068FA204600F037F8204613
:1036200002F0F0F918480088401E1749088020462B
:1036300002F01AFAFF2084F8360000BF00BF00BF76
:10364000FCF726FE064600BF00BF0D480078401E6E
:103650000B49087000BF00BF3046FCF71DFE00BFDD
:1036600000BF00BF00202880FFF79CFB00BF36E7AB
:103670006C0100204C830020108400200C020020EC
:10368000B401002078010020E801002010B50446B4
:103690000348006818B1204601490968884710BDF1
:1036A000500100207FB504460D46002600BF00BF34
:1036B000FCF7EEFD064600BF00BF1CB115480068D0
:1036C00084420AD100BF00BF3046FCF7E5FD00BFD1
:1036D00000BF47F2571028807FBD00BF00BF3046B3
:1036E000FCF7DAFD00BF00BF0B48007800280BDDB7
:1036F000002000900190034602462146CDE90205D4
:10370000064800F061FFE7E72946204602F024FB67
:1037100000BFE1E70C0200206C0100205452455329
:1037200010B504460348006818B1204601490968ED
:10373000884710BD540100202DE9F04780460E4611
:1037400014461D464FF000097D480078002805DD2D
:1037500046F2AE1028800020BDE8F0871EB1B6F515
:10376000004F02D100E000BF04E045F6256028804C
:103770000020F1E700BF0CB10020206000BF00BFB7
:10378000FCF786FD814600BF00BF6E480068406CB4
:10379000A8B36C480068406C401E6A4909684864D8
:1037A00068480068476C1CB166480068006C20607F
:1037B000FDF756FF63490968096C401A61490968B9
:1037C000C1F8A4005F480068D0F8A8005D49096806
:1037D000D1F8A410884207D25A480068D0F8A40053
:1037E00058490968C1F8A80000BF00BF4846FCF767
:1037F00053FD00BF00BF002028803846ACE7FFE73C
:1038000006F4004058B100BF00BF4846FCF744FD35
:1038100000BF00BF46F2B010288000209CE74A4855
:10382000007800280BDD00BF00BF4846FCF734FDE0
:1038300000BF00BF46F66350288000208CE700BF21
:1038400041480078401C4049087000BF00BF48460E
:10385000FCF722FD00BF00BF00BF43460722002146
:10386000084601F0F5F900BF00BF00BFFCF710FDEE
:10387000814600BF00BF34480078401E32490870BE
:1038800000BF00BF4846FCF707FD00BF00BF00BFF8
:10389000FFF788FA00BF00BFFCF7FAFC814600BFC3
:1038A00000BF2848006890F8350020B1012826D0D4
:1038B000032834D12CE0FCB122480068006C206061
:1038C000FDF7CEFE1F490968096C401A1D490968B9
:1038D000C1F8A4001B480068D0F8A800194909687D
:1038E000D1F8A410884207D216480068D0F8A40086
:1038F00014490968C1F8A8000020288013E01CB111
:1039000010480068006C206046F2A91028800AE088
:103910000CB10020206047F2D920288003E046F651
:103920002E60288000BF00BF06480068476C00BFBB
:1039300000BF4846FCF7B0FC00BF00BF38460BE7AD
:103940006C0100200C020020B40100202DE9F0479A
:1039500005460E4617461C464FF0000A2E480078D2
:10396000002804DD47F259102080BDE8F0871EB919
:1039700046F2D5202080F8E71FB946F2D5202080F6
:10398000F3E700BF00BFFCF783FC824600BF00BF27
:103990000DB922480568286868B900BF00BF5046C5
:1039A000FCF77AFC00BF00BF00203060386047F2AF
:1039B00052102080D9E795F83C0000F0010068B96A
:1039C00000BF00BF5046FCF767FC00BF00BF0020EF
:1039D0003060386047F254102080C6E700BF00BF57
:1039E0005046FCF759FC00BF00BF4FF00008D5F867
:1039F000249003E009F1040908F10108D9F8000056
:103A00000028F7D0C6F80080A86BA0EB080038604B
:103A10000020208000BFA8E76C0100200C020020DD
:103A2000F0B50446DDE9055602EB850020F00700FD
:103A30004FF0000C071F3846C7F800C04FF4805CF9
:103A4000071F3846C7F800C04FF0150C071F38464F
:103A5000C7F800C04FF0140C071F3846C7F800C065
:103A60004FF0130C071F3846C7F800C04FF0120C78
:103A7000071F3846C7F800C04FF0110C071F384623
:103A8000C7F800C04FF0100C071F3846C7F800C039
:103A90004FF0090C071F3846C7F800C04FF0080C5C
:103AA000071F3846C7F800C04FF0070C071F3846FD
:103AB000C7F800C04FF0060C071F3846C7F800C013
:103AC0004FF0050C071F3846C7F800C04FF0040C34
:103AD000071F3846C7F800C04FF0030C071F3846D1
:103AE000C7F800C04FF0020C071F3846C7F800C0E7
:103AF0004FF0010C071F3846C7F800C04FF0000C0C
:103B0000071F3846C7F800C04FF0807C071F3846B3
:103B1000C7F800C0071F38463C60DFF85CC1071FCC
:103B20003846C7F800C04FF0123C071F3846C7F8A8
:103B300000C04FF0033C071F3846C7F800C04FF0E5
:103B4000023C071F3846C7F800C0071F38463B60D5
:103B5000071F384639604FF0310C071F3846C7F849
:103B600000C04FF0300C071F3846C7F800C04FF0B8
:103B7000290C071F3846C7F800C04FF0280C071F54
:103B80003846C7F800C04FF0270C071F3846C7F863
:103B900000C04FF0260C071F3846C7F800C04FF092
:103BA000250C071F3846C7F800C04FF0240C071F2C
:103BB0003846C7F800C04FF0230C071F3846C7F837
:103BC00000C04FF0220C071F3846C7F800C04FF066
:103BD000210C071F3846C7F800C04FF0200C071F04
:103BE0003846C7F800C04FF0190C071F3846C7F811
:103BF00000C04FF0180C071F3846C7F800C04FF040
:103C0000170C071F3846C7F800C04FF0160C071FE7
:103C10003846C7F800C04FF0113C071F3846C7F8B8
:103C200000C04FF0103C071F3846C7F800C04FF0E7
:103C3000093C071F3846C7F800C04FF0083C071F73
:103C40003846C7F800C04FF0073C071F3846C7F892
:103C500000C04FF0063C071F3846C7F800C04FF0C1
:103C6000053C071F3846C7F800C04FF0043C071F4B
:103C70003846C7F800C0F0BD995E00087FB505461C
:103C80000C461248854203D147F25B1020807FBD6D
:103C90000F48854203D147F25C102080F7E70D48BA
:103CA000007800280BDD00200090019003460246BA
:103CB0002946CDE90204084800F086FCE7E72146E2
:103CC000284602F057FB00BFE1E700004C830020CC
:103CD000108400206C0100205453555310B51D482A
:103CE000006810B11B4800688047FDF7B9FC044626
:103CF0001948006819490968884215D016480068B3
:103D0000D0F89800201A14490968C1F894001248A4
:103D10000068D0F89C0010490968D1F89410084454
:103D20000D490968C1F89C000C480068C0F898402B
:103D300009480068D0F8B40009490968884205D2EA
:103D40000748006804490968C1F8B4000020044924
:103D5000086010BD600100200C020020100200204D
:103D6000B00100202DE9F04105460E46144600271B
:103D70003F480078002804DD47F275202080BDE828
:103D8000F0813C480078002803DD46F6635020802F
:103D9000F5E736B1022E05D0042E0AD0082E09D13F
:103DA00001E000BF00BF1DB947F27E202080E6E79A
:103DB00004E003E045F625602080E0E700BF00BF97
:103DC00000BF00BFFCF764FA074600BF00BF2948E8
:103DD0000078401C2749087000BF00BF3846FCF738
:103DE0005BFA00BF00BF00BF01202349096881F8CA
:103DF00036002346324629461F48006802F076FB0B
:103E00002088A8B100BF00BF00BFFCF741FA0746F9
:103E100000BF00BF17480078401E1649087000BF59
:103E200000BF3846FCF738FA00BF00BF00BFA6E766
:103E30001148006801F0F4F900BF00BF00BFFCF7B3
:103E400027FA074600BF00BF0A480078401E09490C
:103E5000087000BF00BF3846FCF71EFA00BF00BF65
:103E600000BFFEF79FFF0020208000BF87E7000013
:103E70006C010020B40100200C0200202DE9FF5F3E
:103E800005460E4617469846DDE90EA40020009030
:103E900072480078002804DD47F275202080BDE8D4
:103EA000FF9F6F480078002803DD46F663502080AE
:103EB000F5E70AF00E0BBBF1000F09D0BBF1020FC2
:103EC00007D0BBF1040F10D0BBF1080F0ED101E0F9
:103ED00000BF00BFB8F1000F06D12FB926B91DB938
:103EE00047F27E202080DAE704E003E045F6256013
:103EF0002080D4E700BF2AF01E0008B1012000E0B6
:103F0000002003900398012803D145F62560208006
:103F1000C5E7CAF3001002900298C0B9B8F57A7FDD
:103F200003D347F27B202080B9E73B2F03DD47F224
:103F30007A202080B3E73B2E03DD47F279202080F2
:103F4000ADE7632D12DD47F278202080A7E742F22B
:103F50000F70864203DD47F2792020809FE7B5F598
:103F60007A7F03DB47F27820208098E73D48D0F83D
:103F700000904FF4FA70B0FBF9F0404400FB09F0F8
:103F80004FF47A71B0FBF1F14FF461606843C6EB16
:103F9000061200EB8200384400FB091001900198E2
:103FA000002856D000BF00BF00BFFCF771F9009099
:103FB00000BF00BF2A480078401C2949087000BF94
:103FC00000BF0098FCF768F900BF00BF00BF0120E8
:103FD0002549096881F8360023465A462248019946
:103FE000006802F083FA2088A8B100BF00BF00BFBC
:103FF000FCF74EF9009000BF00BF19480078401E42
:104000001749087000BF00BF0098FCF745F900BFD2
:1040100000BF00BF43E71448006801F001F900BF8A
:1040200000BF00BFFCF734F9009000BF00BF0C4890
:104030000078401E0A49087000BF00BF0098FCF7D6
:104040002BF900BF00BF00BFFEF7ACFE00202080B0
:1040500002E047F27E20208000BF20E76C010020B4
:10406000B4010020209200080C02002010B586B098
:1040700000F01EF8FDF7F4FA044605A800210091AF
:10408000CDE9011403900748007800EB4000064A90
:1040900002EB800100231A46044800F095FA06B0AE
:1040A00010BD00009A010020E08400205449434BD9
:1040B00010B50348006810B101480068804710BD82
:1040C00064010020244825482548264826482748DA
:1040D000274828482848294829482A482A482B4858
:1040E0002B482C482C482D482D482E482E482F4828
:1040F0002F483048304831483148324832483348F8
:1041000033483448344835483548364836483748C7
:10411000374838483848394839483A483A483B4897
:104120003B483C483C483D483D483E483E483F4867
:104130003F48404840484148414842484248434837
:104140004348444844484548454846484648474807
:10415000474800BF7047000064920008CC930008F5
:104160006692000867920008689200086C92000846
:10417000709200086D9200089892000899920008C9
:104180009A9200089C9200089E920008A092000853
:10419000A2920008A4920008C4920008C6920008E7
:1041A000C8920008CA920008CC920008CE9200087B
:1041B000D0920008FC920008FD920008FE920008D0
:1041C000009300080293000803930008049300087A
:1041D00006930008089300080A9300080C9300084F
:1041E0000E930008109300084093000841930008C4
:1041F0004293000843930008449300084693000844
:1042000048930008709300087193000872930008A7
:10421000739300087493000876930008789300085D
:104220007C9300087D9300087E9300087F9300082C
:10423000809300088193000882930008839300080C
:1042400084930008869300088793000888930008E9
:104250008A9300088C9300088D93000890930008BF
:10426000C4930008C5930008C6930008C8930008CB
:10427000CA9300080021034A1160034A118001809B
:104280007047000084010020880100202DE9F04FD4
:1042900085B00446894692469B46DDF8388000206A
:1042A000009000BF00BFFBF7F3FF009000BF00BF0E
:1042B000BAF1000F0AD0BAF1010F0DD0BAF5004FD4
:1042C00005D06FF40040504460B906E000BF206A9A
:1042D00040EA0900206214E000BF206A20EA0900D9
:1042E00020620EE000BF00BF0098FBF7D5FF00BFC3
:1042F00000BF45F62560A8F80000002005B0BDE825
:10430000F08F00BFC4F824B004F1080001900198B8
:10431000008958B900BF00BF0098FBF7BDFF00BF80
:1043200000BF0020A8F80000206AE7E700BF61484E
:104330000078401C5F49087000BF00BF0098FBF781
:10434000ABFF00BF00BF00BF01980768BD687FE0FA
:104350007868029095F8880000F00F0003900398A9
:10436000012821D002282ED0042802D0082836D1D6
:104370000EE0206AD5F8801000EA0106D5F880002A
:10438000B04204D15A463146284600F097F859E029
:10439000206AD5F8801000EA010626B15A46314657
:1043A000284600F08BF84DE0D5F88000216A20EA1D
:1043B0000106D5F88000B04204D15A46314628465D
:1043C00000F07CF83EE0D5F88000216A20EA010682
:1043D00026B15A463146284600F070F832E000BF58
:1043E00000BF00BFFBF754FF009000BF00BF314883
:1043F0000078401E2F49087008460078A0B92E4862
:104400000088002809DD00BF00BF0098FBF744FFCB
:1044100000BF00BF00F032FF0DE000BF00BF0098FA
:10442000FBF73AFF00BF06E000BF00BF0098FBF7B4
:1044300033FF00BF00BF00BF43F6FF20A8F8000015
:1044400000205BE700BF029F0FB1BD6800E00025C0
:10445000002D7FF47DAF00BF00BF00BFFBF718FF4A
:10446000009000BF00BF13480078401E114908703B
:1044700000BF00BF0098FBF70FFF00BF00BF00BFE9
:104480000AF4004008B9FEF78DFC00BF00BFFBF73F
:10449000FFFE009000BF00BF206A049000BF00BF75
:1044A0000098FBF7F9FE00BF00BF0020A8F800004D
:1044B000049823E7B40100207801002070B5044679
:1044C0000E46154634342665002060702070E56085
:1044D000A078343C082816D2DFE800F0040508096B
:1044E0000706101100BF00BF00BF0DE000BF20464F
:1044F00001F024FC002084F8360005E000BF042011
:1045000084F8360000E000BF00BF204600F05BFCEE
:1045100070BD0000002400BF19E000BF00BFFBF722
:10452000B7FE044600BF00BF09480068401C0849A8
:10453000086008480068401C0649086000BF00BFCA
:104540002046FBF7A9FE00BF00BFFEF7C3FAE4E771
:1045500068010020CC01002010B58AB0044600207C
:104560000E4908600B2000210591CDE90704069152
:1045700008460B4909680B4A12680B4B1B68CDE9CA
:104580000132CDE903103F200023084A08A1009022
:104590000C48FEF75FFE0AB010BD00006801002065
:1045A000C8910008C4910008C09100081545000892
:1045B00075432F4F532D4949492049646C65205458
:1045C00061736B004C8300202DE9F84F04460D46C3
:1045D00016461F46DDE90BABDDF82890DDF8348088
:1045E0000020009000BF00BFFBF752FE009000BF0C
:1045F00000BF2B4800882B49098888423EDA2848AA
:104600000088401C2649088027480088098888427D
:1046100003DA23480088244908802448006804609D
:1046200022480068856021480068C6601F4800680D
:1046300007821E480068C0F814901C480068A0F863
:1046400018A01A480068C0F81CB0184800684068F4
:10465000164908600120164908811648086048601C
:10466000002000F07FFC1448007818B11248007850
:10467000124908700020A8F8000008E010480088DF
:10468000401C0F49088044F25360A8F8000000BFA6
:1046900000BF0098FBF700FE00BF00BFBDE8F88F29
:1046A00078010020D49100087A01002070010020D8
:1046B000E0840020108400209A0100209C0100204A
:1046C0007C0100203EB5594800680068584A811AAC
:1046D000904279D00FDC5749084400283ED0564913
:1046E0000844A8B155490844002860D054490844FA
:1046F00000286AD13FE053480844002850D052496E
:104700000844002862D0514908440028F1D110E043
:1047100002A8464D00902D68EB69444D2D682A8B08
:10472000424D2D686969414D2D68A868FFF7AEFDBF
:104730007AE002A93D480068C0693C4DCDE900011E
:104740002D682B8B394D2D682A8A384D2D68E968E4
:10475000364D2D68A86800F035FC65E0334B1B68CA
:10476000DA69324B1B68198B304B1B68986802ABB7
:1047700000F04EFE58E002A92C480068C0692B4D9D
:10478000CDE900012D682B8B284D2D682A8A274DF5
:104790002D68E968254D2D68A86801F0C9F943E046
:1047A00022490968886802A901F0D6FA3CE01F4B4B
:1047B0001B68DA691D4B1B68198B1C4B1B689868BA
:1047C00002AB01F075FB2FE007E02CE01749096808
:1047D000886802A901F0CEFD26E01D49097801EBA9
:1047E00041011C4A02EB810000F09EFD0F48006869
:1047F00002AB0021C269184801F05AFB1748006853
:10480000401E164908600846006858B914480068F8
:104810000860FCF725FF044602AB22460021114840
:1048200001F046FB00E000BF00BF3EBD7401002068
:104830005449434BADBAB2BE0DF90BFAF2F8F7FF8B
:104840000006F6FF00F7FDF700FFEFFF03FE0FFE87
:104850009C010020E0840020A488002008020020A1
:104860000402002068890020002700BF4CE00026D9
:1048700048E000BF00BFFBF70BFD074600BF00BFCD
:104880002248008888B900202149088108604860D2
:1048900000F07AFB00BF00BF3846FBF7FDFC00BF0D
:1048A00000BFFEF77FFA01262CE000BF00BF3846AC
:1048B000FBF7F2FC00BF00BFFCF7D2FE0546FFF796
:1048C00001FFFCF7CDFE441B12480068A04201D254
:1048D0001048046000BF00BFFBF7DAFC074600BFCA
:1048E00000BF0D48006840680B4908600748008811
:1048F000401E0649088000BF00BF3846FBF7CCFCCD
:1049000000BF00BF002EB4D0B1E700007801002046
:10491000E08400208001002074010020F0B589B0FF
:1049200005460020314908803148006820B944F22A
:104930005260288009B0F0BD2E480088022803DAB2
:1049400044F254602880F5E700202B49086028488D
:1049500004682646203600270CE028482060002006
:10496000A060E06020826061208366602034203691
:10497000781C87B21F4800888742EEDB203C1C4829
:10498000066866601E4806601E48066000201E49D4
:1049900008801E4908801E48006818B944F2556016
:1049A0002880C7E71B4800681B490968884203D272
:1049B00044F256602880BDE7032000210591CDE92F
:1049C0000705069113480068144A1268104B1B68CB
:1049D000CDE90301CDE9013200910B46104A11A146
:1049E0001748FEF737FC00BFA4E700007C01002059
:1049F000D0910008D4910008800100204E4F4E4510
:104A00007001002074010020780100207A0100204C
:104A1000DC910008E49100081C920008E091000875
:104A20006948000875432F4F532D49494920495380
:104A300052205175657565205461736B000000004C
:104A4000108400200021034A1160034A1180018074
:104A5000704700008C0100209001002070B50246D4
:104A60000B461046114610315E1EB5B2002408E018
:104A70000160002646600681C66010301031661C59
:104A8000B4B2AC42F4DB0026066046600681C66024
:104A900070BD000010B504461048006818B945F212
:104AA0001E70208010BD0E48008818B945F21D7098
:104AB0002080F7E70A48018808480068FFF7CEFF22
:104AC000064800680749086005480088888000207B
:104AD000C8800881208000BFE4E700000092000841
:104AE000F8910008D484002010B5014648894B890C
:104AF000002B17DD0A680C4B1B6813600A4C4B68CF
:104B000023602346DB884C891B1B074CE38023462C
:104B10009B884C892344044CA38000234B818B81C8
:104B20000B604B6010BD0000D48400200181002286
:104B30004281828102604260704700002DE9F041AD
:104B40000D46DDE90674B0F80AC0B0F80880C44527
:104B500005DB46F2935CA4F800C0BDE8F081DFF805
:104B6000D4C0BCF804C0BCF1000F04D145F21D7CD8
:104B7000A4F800C0F1E7DFF8BCC0DCF80010DFF8F3
:104B8000B480D1F800C0C8F800C0C446BCF804C066
:104B9000ACF1010CA8F804C0C446BCF806C00CF186
:104BA000010CA8F806C0C446BCF808C0B8F80680D6
:104BB000C44507DADFF87CC0BCF806C0DFF87480B3
:104BC000A8F808C0B0F80AC0BCF1000F06D1016017
:104BD00041604FF0010CA0F80AC017E003F0100C80
:104BE000BCF1000F07D1066831604FF0000CC1F82E
:104BF00000C0016004E0D0F804C0C1F800C041600A
:104C0000B0F80AC00CF1010CA0F80AC0B0F80CC052
:104C1000B0F80A80C44503DAB0F80AC0A0F80CC0A6
:104C20004D600A81CF604FF0000CA4F800C000BFB7
:104C300093E70000D48400200021034A1160034A56
:104C4000118001807047000094010020980100202D
:104C50002DE9F04105460C4616461F4615480068EA
:104C600080F8346000201349096881F8350039461E
:104C70001048006800F092FE6CB104F10808EC6086
:104C8000012229460B48006800F016F829464046E4
:104C900000F066F806E0002006490968C887054963
:104CA0000968086303480168204600F019F8BDE868
:104CB000F08100000C02002010B5C28701630023C0
:104CC0000AE000244C600C600C614C610C83CC61E8
:104CD000886020315C1CA3B29342F2DB10BD00005F
:104CE00030B548B14568C1F8C05000F108042268E9
:104CF00093681D6AC56113E091F83450022D02D00B
:104D0000072D08D103E007A5C1F8C05007E007A5AB
:104D1000C1F8C05003E008A5C1F8C05000BF00BFF3
:104D200030BD00005461736B205100005461736BFF
:104D30002053656D000000002000000030B507A57D
:104D4000C1F8C05000F1080422681AB193681D6AC6
:104D5000C56101E001A5C56130BD00002000000073
:104D6000F0B58E6896F8375007893FB9012707815B
:104D700000274F600F600160416023E007897F1CBE
:104D80000781026806E0946894F83770AF4200DD4E
:104D900002E05268002AF6D100BF32B900274F6006
:104DA00043680B60596041600CE017682FB91160CF
:104DB00000270F604A60016004E013680B604A60DE
:104DC00059601160F0BD2DE9F0410446256BE68F76
:104DD0000AE0D5F80C8008F108072946384600F0AB
:104DE0000AF82035701E86B2002EF2DC0020E08723
:104DF0002063BDE8F08110B50489012C03D10024A3
:104E00000460446011E00C6824B94A68002414600E
:104E100002600AE04C6824B90B6800245C604360BF
:104E200003E00B684A685A6013600489641E0481B9
:104E300000244C600C6010BD2DE9F84306460C467A
:104E400017469846089D94F83600082850D2DFE8A7
:104E500000F00405080906072B2C00BF00BF00BFA7
:104E600047E000BF94F83400032807D143463A4690
:104E700021463046009500F03FF803E0E765A4F8CE
:104E80006080256436B12046FFF79DFF21463046FD
:104E9000FFF754FF204600F051FF00203434A0708B
:104EA000607004F8340924E000BF94F8340003284B
:104EB00007D143463A4621463046009500F01CF89B
:104EC00003E0E765A4F860802564204601F0ECFB70
:104ED00036B12046FFF777FF21463046FFF72EFF19
:104EE00004203434A0700020607004F8340900E01D
:104EF00000BF00BFBDE8F883F0B50446059E086B0F
:104F0000CD8F0AE0C768A74204D1046142610383E0
:104F1000C66104E020306F1EBDB2002DF2DC00BF80
:104F2000F0BD000070B50025074C03E005F120003E
:104F3000C5B2241D20680028F8D02068FBF7B3F91B
:104F40002844C5B2284670BD44010020002004E07A
:104F50000021034A42F82010401C0228F8D3704771
:104F60004401002030B5420900F01F030121C3F1C4
:104F70001F04A140034C54F822400C43014D45F856
:104F8000224030BD4401002030B5420900F01F032B
:104F90000121C3F11F04A140034C54F822408C436B
:104FA000014D45F8224030BD440100200021034A54
:104FB0001160034A1180018070470000A0010020A9
:104FC000A40100202DE9F04F85B007468A4693469C
:104FD0001C460020029000BF00BF00BFFBF758F93D
:104FE000029000BF00BF48480078401C4649087046
:104FF00000BF00BF0298FBF74FF900BF00BF00BF22
:1050000007F108063089002842D104F0100010B9D9
:105010004FF0000801E04FF01008DDE90E014346B3
:105020005A46CDE90001514607F12000FFF786FD01
:1050300000BF00BF00BFFBF72BF9029000BF00BF0D
:1050400031480078401E3049087008460078A0B901
:105050002E480088002809DD00BF00BF0298FBF73A
:105060001BF900BF00BF00F009F90DE000BF00BF51
:105070000298FBF711F900BF06E000BF00BF0298DD
:10508000FBF70AF900BF00BF00BF05B0BDE8F08F15
:1050900004F4007008B1358900E00125D6F80090CD
:1050A00011E0D9F808000390D9F8040004900E9894
:1050B0005B465246009038460399FFF7BDFEDDF887
:1050C0001090681E85B2002DEBD100BF00BF00BF5D
:1050D000FBF7DEF8029000BF00BF0B480078401ECF
:1050E0000949087000BF00BF0298FBF7D5F800BF60
:1050F00000BF00BF04F4004008B9FDF753FE0021D3
:105100000F98018000BFC0E7B401002078010020A3
:1051100000210AE001EB4102054B03EB8200002273
:105120000281026042604A1CD1B24029F2D370472A
:10513000E084002010B5044694F83700FFF712FF12
:1051400094F8370005490978884203D1204600F0D9
:1051500027F802E0204600F003F810BD9A01002075
:1051600010B590F8373003EB43030C4C04EB83018C
:105170000B893BB901230B810023C36003610860E5
:10518000486009E00B895B1C0B810B68C36000233E
:1051900003610A681061086010BD0000E08400200F
:1051A00010B590F8373003EB43030B4C04EB83014D
:1051B0000B893BB901230B810023C36003610860A5
:1051C000486008E00B895B1C0B810023C3604A68C0
:1051D0000261D060486010BDE084002010B5014637
:1051E0000C8924B1012C03D0022C0CD101E000BFAA
:1051F00014E008684A6802610024C4601461D06049
:105200000A6048600AE008684A68C36800241C61B4
:10521000C4600261D0600B60486000BF00BF10BD79
:105220002DE9F041054695F8370000EB40001249A2
:1052300001EB80042F69EE6887B946B90020208110
:105240002060606095F83700FFF79EFE0EE0208931
:10525000401E208100203061266007E02089401E2A
:105260002081FE600EB9676000E037610020286190
:10527000E860BDE8F0810000E084002010B5002463
:1052800000BFFBF705F8044600BF00200C4908707A
:105290000C480D49086008460068D0F89000401C92
:1052A0000968C1F8900009480068401C0749086077
:1052B000FBF72BF900BF2046FAF7EEFF00BF10BD49
:1052C0009B0100201084002010020020E00100203B
:1052D00010B504480078012803D1FCF7C1F9024950
:1052E000086010BDB4010020A801002010B50A48D4
:1052F000007880B9FCF7B4F908490968441A0848ED
:105300000068A04201D20648046006480068A04236
:1053100001D20448046010BDB4010020A80100209F
:10532000AC010020B001002070B5054600262E48D3
:105330000078012800D070BD00BF00BFFAF7A8FFB9
:10534000064600BF00BF2C683CB900BF00BF304616
:10535000FAF7A2FF00BF00BFEDE72448844207D15F
:1053600000BF00BF3046FAF797FF00BF00BFE2E77B
:10537000A06D10B1A06D401EA065A06D38B100BF3A
:1053800000BF3046FAF788FF00BF00BFD3E7288987
:10539000022807DA00BF00BF3046FAF77DFF00BFE2
:1053A00000BFC8E712480078002807DD00BF00BF33
:1053B0003046FAF771FF00BF00BFBCE72846FFF791
:1053C0000DFF2C68606D18B90A480068A06501E0FF
:1053D000606DA06500BF00BF3046FAF75DFF00BFFB
:1053E00000BF00BFA7E70000BC0100204C830020E5
:1053F000B4010020B80100200021034A1160034AD3
:105400001180018070470000C0010020C40100200D
:105410002DE9FF5F0446884691461D460020019015
:1054200000BF00BFFAF734FF019000BF00BF04F1D6
:105430000807388900284FD10420012804D0022809
:1054400014D0042834D123E0206AFF280DD100BFF6
:1054500000BF0198FAF720FF00BF00BF46F6C55015
:105460002880002004B0BDE8F09F22E04FF6FF71D5
:10547000206A88420BD100BF00BF0198FAF70CFFE9
:1054800000BF00BF46F6C55028800020EAE710E0C4
:10549000206A401C58B900BF00BF0198FAF7FCFE13
:1054A00000BF00BF46F6C55028800020DAE700E0C4
:1054B00000BF00BF206A401C2062D4F820A0C4F8BE
:1054C000249000BF00BF0198FAF7E6FE00BF00BFBE
:1054D000002028805046C5E700BF25480078401CC2
:1054E0002349087000BF00BF0198FAF7D5FE00BF3E
:1054F00000BF00BF08F4007008B13E8900E001263B
:10550000D7F800B011E0DBF808000290DBF80400E7
:10551000039000231A46CDF8009020460299FFF729
:105520008BFCDDF80CB0701E86B2002EEBD1D4F8E7
:1055300020A000BF00BF00BFFAF7AAFE019000BF85
:1055400000BF0B480078401E0949087000BF00BF2B
:105550000198FAF7A1FE00BF00BF00BF08F40040A9
:1055600008B9FDF71FFC0020288050467AE70000AC
:10557000B401002086B00020009000BF06E0C349BF
:105580000968480001AA0021FEF7ECFBC04800783A
:105590000128F4D101A8FDF73FFD0027BD480068B0
:1055A000BA490968884205D9BA480068B749096804
:1055B000B0FBF1F727B9B74800680A21B0FBF1F753
:1055C00062E1FCF74DF8804600BF00BFFAF760FECD
:1055D000009000BF00BFB0480068B04908600020DC
:1055E000AD49086000BF00BF0098FAF755FE00BF44
:1055F00000BFAB480068A9490968884248D9A84853
:105600000068A849884205D242F210700390012038
:10561000029023E0A2480068A349884205D24FF4D3
:105620007A7003900A20029018E09D4800689F4914
:10563000884203D26420039002900FE098480068EB
:105640009B49884205D20A2003904FF47A70029059
:1056500004E00120039042F210700290904801682B
:105660000298B1FBF0FA8D49039809684843B0FBF2
:10567000FAF042F21071081A8E4908808E480088AC
:105680000988884208DA8B4800888B49088003E043
:1056900042F2107087490880FDF7D2FD002500BF57
:1056A00000BFFAF7F5FD009000BF00BF8348046813
:1056B00000BF00BF0098FAF7EFFD00BF00BF5AE03F
:1056C00000BF00BF00BFFAF7E3FD009000BF00BFBE
:1056D0007B480078401C7A49087000BF00BF0098E2
:1056E000FAF7DAFD00BF00BF00BF54F89C0F6060FE
:1056F000002044F89C0900BF00BF00BFFAF7C8FDB6
:10570000009000BF00BF6E480078401E6C490870D2
:1057100008460078A0B96B480088002809DD00BF62
:1057200000BF0098FAF7B8FD00BF00BFFFF7A6FD65
:105730000DE000BF00BF0098FAF7AEFD00BF06E025
:1057400000BF00BF0098FAF7A7FD00BF00BF00BF71
:10575000D4F8A000054400BF00BFFAF799FD0090FF
:1057600000BF00BFD4F8BC4000BF00BF0098FAF7EC
:1057700093FD00BF00BF002CA2D145B3494885422C
:1057800005D242F2107005904FF0010B1BE0464825
:10579000854205D24FF47A7005904FF00A0B12E063
:1057A0004248854203D26420059083460BE040487E
:1057B000854204D20A2005904FF47A7B03E0012051
:1057C000059042F2107BB5FBFBF0049003E0002053
:1057D00005900120049000BF00BFFAF759FD00902A
:1057E00000BF00BF3548046800BF00BF0098FAF74B
:1057F00053FD00BF00BF2BE0D4F8A000059948433B
:105800000499B0FBF1F086B242F21070864200D9E2
:105810000646A4F88C60B4F88E00B04201DAA4F811
:105820008E6001AB04F1AC02111D2046FEF78EF82C
:1058300000BF00BFFAF72CFD009000BF00BFD4F8F6
:10584000BC4000BF00BF0098FAF726FD00BF00BFB4
:10585000002CD1D11C480078012805D100201A491C
:10586000087001A8FDF7D8FBFBF7FAFEA0EB0809CA
:1058700016480068484502D21448C0F8009001AAB2
:1058800000213846FEF76EFA9BE6000008920008F9
:10589000D801002020920008CC010020D401002073
:1058A000D0010020801A060000093D00005A620263
:1058B0000084D717C8010020CA010020E40100209D
:1058C000B401002078010020C6010020DC01002086
:1058D00010B58AB0044600201F4908601F490860BF
:1058E0001F4908601F4908701F4908701F48006859
:1058F00020B946F62B6020800AB010BD1C48006815
:105900001C490968884203D246F62C602080F3E7E0
:10591000194800783F2803D346F62A602080EBE739
:10592000032000210591CDE907040691084610499E
:105930000968124A12680D4B1B68CDE90132CDE9A6
:1059400003100D48007800230D4A0EA10090124864
:10595000FDF780FC00BFCFE7CC010020D401002080
:10596000D0010020D8010020C60100200C920008C0
:10597000149200081C92000804920008109200087B
:105980007555000875432F4F532D494949205374CD
:105990006174205461736B00E087002038B50446C1
:1059A0000D4685B16B4602222946204600F09EFD39
:1059B000BDF8000018B9032084F8360006E0022084
:1059C00084F8360002E0022084F836002046FFF713
:1059D00027FC38BD0021C0F8B8100949096819B979
:1059E0000021C0F8BC1007E005490968C0F8BC10E8
:1059F00003490968C1F8B800014908607047000010
:105A0000E4010020D0F8B820D0F8BC104AB90D4B02
:105A1000196011B10023C1F8B8300023C0F8BC30C0
:105A20000FE029B90023C2F8BC30C0F8B83008E054
:105A3000C2F8BC10C1F8B8200023C0F8BC30C0F8D0
:105A4000B8307047E40100200021044A1160044A84
:105A50001180044A1160018070470000E4010020B9
:105A6000E8010020E001002070B50446002020601D
:105A7000A0606060E06020616061A061E06129A0D9
:105A8000206200206062A062E0622064E065A4F809
:105A90006000002104F16400FFF748F8002044F89A
:105AA000740F6060E060A0822061743C002506E015
:105AB000002104F17C0040F82510681CC5B2002DBF
:105AC000F6D000203434206120676067606084F87D
:105AD0005600E067A06720814FF000406061002021
