:020000040800F2
:10000000101F01208D020008ED3500082D2F00087B
:1000100065340008F310000829B60008000000004D
:1000200000000000000000000000000051940008E3
:1000300055270008000000007F08000875AB000885
:10004000A7020008A7020008A7020008A7020008EC
:10005000A7020008A7020008A7020008A7020008DC
:10006000A7020008A7020008A7020008A7020008CC
:10007000A7020008A7020008A702000885210008BF
:10008000A7020008A7020008A7020008A7020008AC
:10009000F5110008A7020008A7020008A70200083F
:1000A000A7020008A7020008A7020008A70200088C
:1000B000A7020008A7020008A7020008A70200087C
:1000C000A7020008A7020008A7020008A70200086C
:1000D000A7020008A702000861B0000841B10008AB
:1000E000A7020008A7020008A7020008A70200084C
:1000F000A7020008A7020008A7020008A70200083C
:10010000A7020008A7020008A7020008A70200082B
:100110007DAE0008A7020008A7020008A702000899
:10012000BD210008A7020008A7020008A7020008D6
:10013000A7020008A7020008A7020008A7020008FB
:1001400061150008A7020008A7020008A70200081E
:10015000A7020008A7020008A7020008A7020008DB
:10016000A7020008A7020008A7020008A7020008CB
:10017000A7020008A7020008A7020008A7020008BB
:10018000A7020008A702000800F002F800F06FF8CC
:100190000AA090E8000C82448344AAF10107DA45E2
:1001A00001D100F064F8AFF2090EBAE80F0013F0C5
:1001B000010F18BFFB1A43F00103184774D0000069
:1001C000B4D000000A444FF0000C10F8013B13F0CB
:1001D000070408BF10F8014B1D1108BF10F8015BA0
:1001E000641E05D010F8016B641E01F8016BF9D193
:1001F00013F0080F1EBF10F8014BAD1C0C1B09D1EA
:100200006D1E58BF01F801CBFAD505E014F8016B5B
:1002100001F8016B6D1EF9D59142D6D370470000ED
:10022000103A24BF78C878C1FAD8520724BF30C822
:1002300030C144BF04680C607047000000230024F4
:1002400000250026103A28BF78C1FBD8520728BFE6
:1002500030C148BF0B607047642900F069800020FE
:1002600070471FB50CF0C8FE1FBD10B510BD00F0E3
:10027000B9FA1146FFF7F5FF0CF076FA00F0D7FA5D
:1002800003B4FFF7F2FF03BC0BF039FF09488047C6
:1002900009480047FEE7FEE7FEE7FEE7FEE7FEE768
:1002A000FEE7FEE7FEE7FEE704480549054A064B80
:1002B0007047000091AB000889010008101501206B
:1002C000101F0120101701201017012072B670476F
:1002D00062B67047EFF3108072B6704780F31088F3
:1002E000704730BF704720BF7047B0FA80F070474A
:1002F00090FAA0F0B0FA80F0704790FAA0F0704742
:10030000704700000FB41CB5084B06AA7B44694631
:100310000090059800F027FA04460020694600F096
:1003200035FA20461CBC5DF814FB00007D0400007B
:100330002DE9F0410646002410687529314616A5BE
:1003400010D0AFF30080002802DA404213A507E086
:1003500031688A0701D512A502E0490704D511A525
:10036000012401E0AFF3008000210A2206F12407F6
:1003700009E0B0FBF2FCB0FBF2F302FB1C003030F2
:1003800078541846491C0028F3D123462A463046A3
:10039000BDE8F04100F088B9000000002D00000029
:1003A0002B000000200000002DE9F05F8946044684
:1003B0004FF0000ADFF874B1FB44C0F820A02046DB
:1003C000E1688847002874D0252806D0D4E90121A7
:1003D0009047206A401C2062F1E700265F462046D5
:1003E000E16888472028054607DB312D05D27819BA
:1003F00010F8200C08B10643F1E7B00701D526F04C
:100400000406C4F81CA00027C4F818A02A2D09D09F
:1004100028460BF06DFE38B304EB8708303DC8F872
:10042000185019E059F8041B204604EB870291612B
:10043000E1688847012F054618D1E069002820DAD5
:1004400026F020061DE0D8F8180000EB800005EB30
:1004500040003038C8F818002046E1688847054653
:100460000BF046FE0028EED1012F0AD02E2D08D128
:100470002046E16888477F1C0546022F46F020068B
:10048000C4DBA069002803DA404246F00106A061FF
:10049000F00701D026F010066C2D0BD0682D09D086
:1004A0004C2D39D06A2D35D0742D35D07A2D33D0DE
:1004B00016E038E0E1682F4620468847B8420546F6
:1004C00009D16C2F26D04FF48060E16806432046A6
:1004D0008847054604E06C2F1AD04FF4807006431D
:1004E0000DB3A5F14100192802D8203546F4006665
:1004F0004A462946204626604E46FFF7ADFE80B1AB
:1005000001280BD0F61D26F0070000F1080956E778
:100510004020E4E78020D8E70020D6E706F1040970
:100520004DE7284652E7206ABDE8F09F58CE00000C
:1005300010B5431C02E010F8011B71B18107FAD11C
:100540004FF0013202C88C1A8C4314EAC211F9D060
:10055000C01A0A0603D0C01E10BDC01A10BD0A047E
:1005600001D0801E10BD0902FCD0401E10BD032A20
:1005700040F2308010F0030C00F0158011F8013BC0
:10058000BCF1020F624498BF11F801CB00F8013BA7
:1005900038BF11F8013BA2F1040298BF00F801CB6B
:1005A00038BF00F8013B11F0030300F02580083A42
:1005B000C0F0088051F8043B083A51F804CBA0E899
:1005C0000810F5E7121D5CBF51F8043B40F8043BEE
:1005D000AFF30080D20724BF11F8013B11F801CB23
:1005E00048BF11F8012B24BF00F8013B00F801CBF4
:1005F00048BF00F8012B704710B5203AC0F00B80BF
:10060000B1E81850203AA0E81850B1E81850A0E816
:100610001850BFF4F5AF5FEA027C24BFB1E8185070
:10062000A0E8185044BF18C918C0BDE810405FEAE0
:10063000827C24BF51F8043B40F8043B08BF70475C
:10064000D20728BF31F8023B48BF11F8012B28BF61
:1006500020F8023B48BF00F8012B70474FF0000222
:100660000429C0F0128010F0030C00F09680CCF149
:10067000040CBCF1020F18BF00F8012BA8BF20F832
:10068000022BA1EB0C0100F088B85FEAC17C24BF0B
:1006900000F8012B00F8012B48BF00F8012B704730
:1006A00070477047704770472DE9F0470D469946EF
:1006B0009246044600F124080168880604D5E069E2
:1006C00021F01001216000E00120A84201DD471B5C
:1006D00000E00027A1697A1902EB0900081AA0615D
:1006E0002078C00602D42046AFF30080002608E040
:1006F000D4E901211AF806009047206A401C761CB4
:1007000020624E45F4DB2078C0060AD52046AFF3C0
:10071000008006E0D4E9012130209047206A401C87
:100720002062381EA7F10107F4DC07E0D4E90121BB
:1007300018F805009047206A401C2062281EA5F189
:100740000105F3DC2046AFF300802078000602D5D7
:100750000220BDE8F0870120FBE7000001694A1C88
:1007600002610878704700B58FB0CDE901310021F2
:10077000059105497944CDE9031011466846FFF714
:1007800013FE0FB000BD0000E5FFFFFF0A6802F88E
:10079000010B0A6070474FF0000200B51346944603
:1007A0009646203922BFA0E80C50A0E80C50B1F1C9
:1007B0002001BFF4F7AF090728BFA0E80C5048BFDD
:1007C0000CC05DF804EB890028BF40F8042B08BF7B
:1007D000704748BF20F8022B11F0804F18BF00F877
:1007E000012B7047754600F02BF8AE4605006946B0
:1007F000534620F00700854618B020B5FFF754FD9A
:10080000BDE820404FF000064FF000074FF0000811
:100810004FF0000B21F00701AC46ACE8C009ACE892
:10082000C009ACE8C009ACE8C0098D46704710B5F6
:100830000446AFF300802046BDE81040FFF720BD1E
:1008400000487047B014012022484FF6FF71017034
:10085000002080F309882048016881F308881F4838
:100860004FF08051016062B6FEE71C484FF08051A6
:100870000160704719484FF080510160704772B6AF
:10088000EFF3098050B11EF0100F08BF20ED108A61
:10089000203880E8F00F12490968086000B5114857
:1008A00080475DF804EB104810490A7802700C4844
:1008B0000F490A680260106890E8F00F20301EF0BF
:1008C000100F08BFB0EC108A80F309884EF0040EB8
:1008D00062B6704722ED00E00403001004ED00E072
:1008E000FC0200106D4A00088A0200108B02001002
:1008F0000003001000B58DB00121042007F024FE94
:100900000121080207F050FE0E200B9003208DF805
:10091000300000208DF833000BA9204802F04EF97A
:10092000002007900A9009904FF48030089007A8A3
:1009300000F044F80020019001208DF808008DF8A7
:10094000090000200390059003208DF8180001A9EC
:10095000134800F061F8072301220B21104800F032
:1009600085F8072302220C210D4800F07FF80723A9
:1009700003220D210A4800F079F80121084800F00F
:1009800040F80121064800F031F80121044800F048
:1009900009F8034800F0C6F80DB000BD0008024099
:1009A0000020014021B1826842F00102826003E030
:1009B000826822F001028260704700000021084A2C
:1009C0001168084A1140D0E900231A4383681A438A
:1009D000C3681A431143044AC2F804137047000065
:1009E00004230140E030FCFF0020014021B1826877
:1009F00042F48072826003E0826822F48072826036
:100A0000704721B1826842F40072826003E082681C
:100A100022F400728260704730B502460020002345
:100A20005068104C20400D790C6844EA052420439E
:100A3000506090680C4C2040D1E903542C438D68E1
:100A40002C434D7944EA450420439060D06A20F459
:100A500070000C7D641EE4B2234340EA0350D06270
:100A600030BD0000FFFEFFFCFDF7FFC0F0B50446FF
:100A70000D4600200021092D11DDE068A5F10A06D0
:100A800006EB4607072606FA07F18843A5F10A0692
:100A900006EB460603FA06F10843E0600CE0206925
:100AA00005EB4507072606FA07F1884305EB4506DF
:100AB00003FA06F108432061072A0FDA606B561E1D
:100AC00006EB86071F2606FA07F18843561E06EB3B
:100AD000860605FA06F10843606322E00D2A0FDA64
:100AE000206BD61F06EB86071F2606FA07F1884300
:100AF000D61F06EB860605FA06F10843206310E0D0
:100B0000E06AA2F10D0606EB86071F2606FA07F13A
:100B10008843A2F10D0606EB860605FA06F10843A6
:100B2000E062F0BD816841F0804181607047000063
:100B300010B501200649087000204870022200F01C
:100B4000A3FD14230022114610460BF0F7FC10BD44
:100B5000AD00001010B506201B4908700020487039
:100B60008870C87008714871062240F2012000F0B8
:100B70008BFD14230022114610460BF0DFFC0622E9
:100B8000114940F2022000F07FFD1423002211469B
:100B900010460BF0D3FC06220B4940F2032000F074
:100BA00073FD14230022114610460BF0C7FC0622E9
:100BB00005494FF4017000F067FD1423002211462F
:100BC00010460BF0BBFC10BDAD00001010B50720A7
:100BD0001B490870002048708870C87008714871FF
:100BE000062240F2012000F04FFD1423002211469E
:100BF00010460BF0A3FC0622114940F2022000F03F
:100C000043FD14230022114610460BF097FC0622E8
:100C10000B4940F2032000F037FD14230022114657
:100C200010460BF08BFC062205494FF4017000F0D2
:100C30002BFD14230022114610460BF07FFC10BD43
:100C4000AD00001070B504460D4600267F2C00DD77
:100C50007F2404F500760F200849087000204870B2
:100C60008D70280AC8700422304600F00DFD142350
:100C70000022114610460BF061FC70BDAD00001063
:100C800010B54648C07A012801D14549C871454888
:100C90004078012805D14348007810B90120404927
:100CA000C8713F48007820B100203D4908700120FC
:100CB000C8713B48807810B1012039490871384823
:100CC000C07810B10120364908713448007B0128F2
:100CD00001D13349087233480078012801D13049E5
:100CE00008722F48407820B100202D49487001201B
:100CF00008722B48807810B90020294908712848CB
:100D0000C07810B9002026490871274800780028CB
:100D100037D12348C07901280ED121480079012814
:100D20000AD100201E49C87108720846407918B9D6
:100D30001E49C88A0BF0AAFA1948007A70B91848F7
:100D4000007901280AD11A480078012806D11749EC
:100D5000C88A0BF09BFA0020154908701048007AE9
:100D6000012802D00E480079B0B90D48007910B9B9
:100D700001200F49087000200949487102F0BBFBAF
:100D80000AE00748007A012802D00548007918B91E
:100D9000002003490872887110BD00006807001028
:100DA00013000020080300100200002098C3002058
:100DB0001200002010B50120044908700023012210
:100DC000194618460BF0BAFB10BD000013000020B6
:100DD00010B5012004494870002301221946184625
:100DE0000BF0ACFB10BD00001300002010B5114942
:100DF000B1F89A00192109F07DFC0E48B0F8B20054
:100E00000D4988860B49B1F8B2001A2109F072FC2D
:100E100005200849A1F8B6000220A1F8B20002F0AE
:100E2000F9F800200549087014200249A1F8400093
:100E300010BD0000680800105C9C0020000000202D
:100E40002DE9F05F04460D4600270026B146A07943
:100E5000617940EA01204349098888427FD1A81E70
:100E600081B2204600F00EFF80464FEA282A08F0A3
:100E7000FF0BA81E205C504571D1681E205C5845B0
:100E80006DD1207901281BD1E079012806D00228F4
:100E900008D003280AD0042810D10BE0204608F01F
:100EA000C3F80CE0204608F061F908E0204608F09D
:100EB00045F804E0204608F0FFF800E000BF4EE0EF
:100EC000207910280FD1E079022802D0042808D117
:100ED00003E0204608F020F804E0204607F0FAFF7F
:100EE00000E000BF3BE02079022838D1002734E041
:100EF0001D4800EB8720007878B91B4901EB87215A
:100F00000D70002606E0A15D174800EB8722701CDB
:100F1000115486B2AE42F6DB1DE0092F1BD14FF013
:100F2000000908E00020104901EB8921087009F14F
:100F300001001FFA80F9B9F10A0FF3DB0A490D70BD
:100F4000002606E0A15D084800EB8722701C1154C2
:100F500086B2AE42F6DB781C87B20A2FC8DBBDE84A
:100F6000F09F00004C000020B0D3002070B53F4837
:100F70000078801E81B23E4800F0A1FE0446E5B232
:100F8000260A3A480078801E3949085CA84234D1C4
:100F900036480078401E085CB0422ED108464078A2
:100FA000042817D006DC01280BD002280CD0032817
:100FB0001CD10CE0052810D0062811D0102815D11E
:100FC00011E007F0B5FC17E007F02CFD14E007F086
:100FD000C7FD11E007F020FE0EE007F095FE0BE0E4
:100FE00007F0D2FE08E007F01BFF05E02049487833
:100FF00004210BF0DFFA00BF36E01D4840780428DA
:101000001DD006DC01280BD002280ED003282AD1DF
:1010100010E0052818D006281BD0102823D11DE089
:10102000082101200BF0C6FA1DE0082102200BF078
:10103000C1FA18E0082103200BF0BCFA13E00821E4
:1010400004200BF0B7FA0EE0082105200BF0B2FAED
:1010500009E0082106200BF0ADFA04E00821102079
:101060000BF0A8FA00BF00BF70BD000026000020F2
:10107000C0BC00200EB500BF2DE01748C088002876
:1010800020DD16480078E8B91548407980B112494A
:10109000D1ED091AB0EE611AD1ED081AF0EE610A2D
:1010A000D1ED071AB0EE610AC88806F0ABFE12E077
:1010B00002A800210A230A46CDE90010084603F0E1
:1010C000A5FD08E002A800210A230A46CDE9001088
:1010D000084603F09BFDD0E798C3002002000020E3
:1010E000130000201FB5684607F06EFA019804B09F
:1010F00010BD00BFFEE700002DE9F0418AB00446B4
:101100000D4616461F46DDF840800121084607F0CF
:101110001BFA0121480607F027FA4FF4C050089047
:1011200002208DF8240000208DF8260003208DF881
:10113000250001208DF8270008A92C4801F03EFD6C
:1011400009220B21294801F081FD09220C212748A1
:1011500001F07CFD00208DF81A008DF81B008DF841
:101160001C0001208DF81D0000208DF81E008DF858
:101170001F008DF816808DF817408DF818608DF8D7
:101180001950ADF8147005A9194800F044FB00206F
:101190008DF80E008DF80F0001208DF81000002052
:1011A000ADF80400ADF80600ADF80800ADF80A008F
:1011B000ADF80C0001208DF8110001A800F09EFA96
:1011C000012202210A4800F01DFB14208DF80000C6
:1011D00001208DF801008DF802008DF803006846AB
:1011E00002F07CFA00200AB0BDE8F0810000024065
:1011F00000640040F0B58DB00024002600270025D3
:1012000008AA0021864800F090FB0898102816D103
:1012100000BF05E00DF12B00005D82490855641CFC
:101220009DF82A00A042F5DC7E4800787D49497887
:1012300040EA01207C49088001207C490870089818
:1012400016287AD1002413E00DF12B00005D6428EC
:1012500007DD0DF12B00005DFF38754941F82400D2
:1012600005E00DF12B00005D714941F82400641C7C
:101270009DF82A00A042E7DC6D484068002804DDA4
:1012800001266B48808887B20EE06948406810B933
:101290000026002708E066484068002804DA022695
:1012A00063488088404287B26148806800281BDA22
:1012B0005F48806800EB80000A2190FBF1F00A385B
:1012C0005C4908605A48806800EB80000A2190FB66
:1012D000F1F000F10A05002D03DB002055490860FC
:1012E0001EE0544805601BE05148806818B9002092
:1012F0005049086014E04E488068002810DD4C48D2
:10130000806800EB80000A2190FBF1F0A0F10A0553
:10131000002D03DC00204749086001E045480560D6
:1013200044480671C7EB0710400043490978484319
:101330000A2190FBF1F03F49C8800898012818D194
:10134000002405E00DF12B00005D3C490855641CAC
:101350009DF82A00A042F5DC384801783848037827
:10136000082201A801F03CFB1C2201A93548FFF727
:1013700043F90898022818D1002405E00DF12B004C
:10138000005D31490855641C9DF82A00A042F5DC37
:101390002D4801782A480378082201A801F020FB93
:1013A0001C2201A92948FFF727F90898032818D11A
:1013B000002405E00DF12B00005D25490855641C53
:1013C0009DF82A00A042F5DC214801781C480378EA
:1013D000082201A801F004FB1C2201A91D48FFF707
:1013E0000BF90898042818D1002405E00DF12B0012
:1013F000005D19490855641C9DF82A00A042F5DCDF
:10140000154801780E480378082201A801F0E8FA8F
:101410001C2201A91148FFF7EFF80DB0F0BD000044
:10142000006400405C9B00209400001096000010B7
:10143000AC9B00209C00001098C300206C9B0020F7
:1014400001000020D80500107C9B0020F40500104E
:101450008C9B0020100600109C9B00202C06001086
:101460002DE9F0418AB004460D4616461F46DDF8C8
:1014700040800121022007F067F80121880607F06B
:1014800073F86020089002208DF8240000208DF869
:10149000260003208DF8250001208DF8270008A9DB
:1014A0002D4801F08BFB092205212B4801F0CEFBD2
:1014B00009220621284801F0C9FB00208DF81A00F6
:1014C0008DF81B008DF81C0001208DF81D000020F8
:1014D0008DF81E008DF81F008DF816808DF81740CE
:1014E0008DF818608DF81950ADF8147005A91B48D7
:1014F00000F091F90E208DF80E0000208DF80F00FD
:1015000001208DF810000020ADF80400ADF80600B1
:10151000ADF80800ADF80A00ADF80C0001208DF818
:10152000110001A800F0EAF8012202210B4800F0A6
:1015300069F940208DF8000001208DF8010002209B
:101540008DF8020001208DF80300684602F0C6F80D
:1015500000200AB0BDE8F0810004024000680040AD
:1015600010B586B0002401AA0021424800F0DDF940
:1015700040F201710198884219D100BF06E00DF1D7
:101580000F00015D3C4820F81410641C9DF80E000B
:10159000A042F4DC38481238408A052803D1374885
:1015A000007837490870354800783649087040F2AD
:1015B0000271019888421AD1002407E00DF10F0052
:1015C000015D2D48123020F81410641C9DF80E00A7
:1015D000A042F3DC28481238808C052803D1274824
:1015E000007827490870254800782649087040F29D
:1015F0000371019888421AD1002407E00DF10F0011
:10160000015D1D48243020F81410641C9DF80E0064
:10161000A042F3DC18481238C08E052803D11748C1
:10162000007817490870154800781649087040F28C
:101630000471019888421BD1002407E00DF10F00CE
:10164000015D0D48363020F81410641C9DF80E0022
:10165000A042F3DC08481238B0F84800052803D14E
:101660000648007806490870044800780549087063
:1016700006B010BD00680040FE9B002097000010DF
:1016800098000010990000102DE9F04186B0054641
:101690008846164600240195029500208DF80C001E
:1016A0008DF80D008DF80E6000BF06E018F80410EC
:1016B0000DF10F000155601C84B2B442F6DB01A9A4
:1016C0000D4800F0AAF90746002401E0601C84B22E
:1016D0003946094800F034FA18B940F6FF708442E0
:1016E000F4DB40F6FF70844203DB012006B0BDE866
:1016F000F0810020FAE700000068004010B50021EA
:10170000837A012202FA03F13D4A126842F0010293
:101710003B4B1A603A4A1C3212688A43384B1C33DE
:101720001A60027BCAB9364A0C3212688A43344BBB
:101730000C331A604288C38842EA0343304A40327D
:10174000847A42F834300288838842EA03432C4A80
:101750004032847A02EBC4025360027B012A19D121
:10176000274A0C3212680A43254B0C331A60428810
:10177000038842EA0343224A4032847A42F83430F2
:10178000C288838842EA03431D4A4032847A02EBCE
:10179000C4025360C27A3AB9194A121D12688A43C8
:1017A000174B1B1D1A6006E0154A121D12680A43EA
:1017B000134B1B1D1A60028932B9114A1432126888
:1017C0008A430F4B14331A600289012A06D10C4A4E
:1017D000143212680A430A4B14331A60427B012AFE
:1017E00006D1074A1C3212680A43054B1C331A60A3
:1017F000034A126822F00102014B1A6010BD00007A
:10180000006600401AB143690B43436102E043693B
:101810008B434361704730B50246002000231468B3
:1018200024F002041460146844F00104146000E021
:101830005B1C546804F001041CB94FF6FF74A3420A
:10184000F6D1546804F001040CB900206CE08C79E6
:10185000012C04D1146844F08004146003E014687F
:1018600024F080041460CC79012C04D1146844F075
:101870004004146003E0146824F0400414600C7AFF
:10188000012C04D1146844F02004146003E01468AF
:1018900024F0200414604C7A012C04D1146844F024
:1018A0001004146003E0146824F0100414608C7AAF
:1018B000012C04D1146844F00804146003E0146897
:1018C00024F008041460CC7A012C04D1146844F08C
:1018D0000404146003E0146824F0040414608C7899
:1018E000A407CD7844EA05640D7944EA05444D79AE
:1018F00044EA05540D886D1E2C43D461146824F00D
:1019000001041460002300E05B1C546804F001042F
:101910001CB14FF6FF74A342F6D1546804F00104E1
:101920000CB1002000E0012030BD10B500F5D873E7
:1019300003EB01131B6803F004031372137A53B90A
:1019400000F5D87303EB01131B6840F2FF7404EA3F
:101950005353136009E000F5D87303EB01131B68C0
:101960006FF0604404EAD303536000F5D87303EBCF
:1019700001131B6803F00203537200F5D87303EBE5
:1019800001135B6803F00F03937200F5D87303EB48
:1019900001135B681B0AD37400F5D87303EB0113C2
:1019A0009B68D37200F5D87303EB01139B681C0A84
:1019B000147300F5D87303EB01139B681C0C54736C
:1019C00000F5D87303EB01139B681B0E937300F5AE
:1019D000D87303EB0113DB68D37300F5D87303EB03
:1019E0000113DB681C0A147400F5D87303EB0113B0
:1019F000DB681C0C547400F5D87303EB0113DB682F
:101A00001B0E937421B9C36843F02003C36003E045
:101A1000036943F02003036110BD10B502460020A6
:101A2000936803F08063B3F1806F00D110E0936896
:101A300003F00063B3F1006F01D1012008E0936867
:101A400003F08053B3F1805F01D1022000E0042055
:101A5000042874D002F5C07303EB00131B6803F075
:101A6000010402F5C07303EB00131C600B7A7BB911
:101A70004B7A0C8843EA445302F5C07404EB00141B
:101A80002468234302F5C07404EB0014236010E0C3
:101A90000B7A4C6843EAC4034C7A234302F5C074C2
:101AA00004EB00142468234302F5C07404EB001413
:101AB00023608B7A03F00F038B7202F5C07303EB84
:101AC00000135B6823F00F0402F5C07303EB0013EF
:101AD0005C6002F5C07303EB00135B688C7A2343F0
:101AE00002F5C07404EB001463608B7B1C064B7B17
:101AF00044EA03440B7B44EA0323CC7A234302F5F4
:101B0000C07404EB0014A3608B7C1C064B7C44EA7D
:101B100003440B7C44EA0323CC7B234302F5C074CB
:101B200004EB0014E36002F5C07303EB00131B68C1
:101B300043F0010402F5C07303EB00131C6010BDF9
:101B400010B50246002321B1012907D002290FD187
:101B500009E090681D4C00EA04030BE090681C4CFF
:101B600000EA040306E090681A4C00EA040301E06E
:101B7000002300BF00BF184C181BA34216D007DC7F
:101B800083B16FF08060184470B1022818D111E061
:101B9000B0F5007F10D0114C204448B1B0F5003FA3
:101BA0000ED10BE002230DE000230BE0002309E03F
:101BB000002307E0012305E0012303E0012301E006
:101BC000002300BF00BFD8B210BD00000300000416
:101BD0000003000800000310000100080001FFF7E7
:101BE00010B500F01FF800F019F810BD10B5002472
:101BF00000BF00BFFEF76EFB044600BF00BF102110
:101C0000054801F031FC00BF00BF2046FEF766FB2F
:101C100000BF00BF10BD0000680A001010B5FFF73C
:101C2000E5FF10BD10B500200249086000F00AF879
:101C300010BD00004000002001490860704700000E
:101C40004000002010B5FFF74DFA04460848006830
:101C500040F0807006490860002006494860084648
:101C6000006840F0010008602046FFF7E5FF10BD66
:101C7000FCED00E0001000E00149486870470000FA
:101C8000001000E030B502460B464FF6FF70002111
:101C900012E0555C684000240AE000F0010525B11F
:101CA00040104AF20105684000E04010651CACB2EB
:101CB000082CF2DB4D1CA9B29942EADB30BD30B5ED
:101CC00002460B464FF6FF70002112E0555C68405B
:101CD00000240AE000F0010525B140104AF2010598
:101CE000684000E04010651CACB2082CF2DB4D1CD3
:101CF000A9B29942EADB30BD0020074948868886B0
:101D00008887C887C88640F29A20A1F8040100207D
:101D1000A1F848007047000068080010012004493D
:101D2000A1F8A0000020A1F8A200A1F8A40070472B
:101D3000680800102DE9FE4305460E4600240027E2
:101D4000A046A146012D54D13DE056488488AFB944
:101D500055480089554909780844A04203DA3046BD
:101D60000AF0DAFC26E0032001F0C5FB042001F0B4
:101D7000C2FB30460AF0E4FC01271BE0B8F1000F7B
:101D800013D14948408949490978401AA04203DDE6
:101D900030460AF0D5FC0DE0032001F0ACFB042036
:101DA00001F0A9FB4FF0010804E000F071FD4FF0D5
:101DB00001090CE002A800210A230A46CDE900101F
:101DC000084602F023FF3A48807C0228BDDB00BFB2
:101DD000B9F1000F03D000203649887002E00120DD
:101DE00034498870032001F086FB042001F083FB56
:101DF00055E0022D53D13DE02A488488AFB92A48E6
:101E000000892A4909780844A04203DA30460AF0DA
:101E100083FC26E0042001F06EFB032001F06BFB45
:101E200030460AF08DFC01271BE0B8F1000F13D1FA
:101E30001D4840891D490978401AA04203DD3046FB
:101E40000AF07EFC0DE0042001F055FB032001F0B8
:101E500052FB4FF0010804E000F01AFD4FF00109B9
:101E60000CE002A800210A230A46CDE9001008462A
:101E700002F0CCFE1048807C0228BDDB00BFB9F127
:101E8000000F03D000200B49C87002E0012009496F
:101E9000C870042001F02FFB032001F02CFBBDE8EB
:101EA000FE8300008A000010509B002011000020DB
:101EB000100600100A0000202C0600102DE9FE4339
:101EC00005460E4600240027A046A146012D54D108
:101ED0003DE056484488AFB955484088554909788F
:101EE0000844A04203DA30460AF038FD26E001201B
:101EF00001F001FB022001F0FEFA30460AF042FD3B
:101F000001271BE0B8F1000F13D1494880884949E7
:101F10000978401AA04203DD30460AF033FD0DE097
:101F2000012001F0E8FA022001F0E5FA4FF0010883
:101F300004E000F0ADFC4FF001090CE002A8002124
:101F40000A230A46CDE90010084602F05FFE3A482F
:101F5000807C0228BDDB00BFB9F1000F03D0002058
:101F60003649087002E0012034490870012001F070
:101F7000C2FA022001F0BFFA55E0022D53D13DE034
:101F80002A484488AFB92A4840882A490978084431
:101F9000A04203DA30460AF0E1FC26E0022001F01C
:101FA000AAFA012001F0A7FA30460AF0EBFC01275B
:101FB0001BE0B8F1000F13D11D4880881D49097836
:101FC000401AA04203DD30460AF0DCFC0DE002209E
:101FD00001F091FA012001F08EFA4FF0010804E0BF
:101FE00000F056FC4FF001090CE002A800210A2382
:101FF0000A46CDE90010084602F008FE1048807C31
:102000000228BDDB00BFB9F1000F03D000200B494F
:10201000487002E0012009494870022001F06BFA83
:10202000012001F068FABDE8FE8300008A0000107C
:10203000509B002011000020D80500100A0000204D
:10204000F40500100EB5002500260027A846002440
:1020500000BF00F09DFD012039490860002039498A
:10206000C1F890023849086069E03848407A78B988
:10207000601C84B2012C02D1012031490860322C4D
:1020800002D100202E490860C82C04D1002402E0AF
:1020900000202B490860781C87B2642F02DD00F015
:1020A00077FD00272A48B0F86600D8B12848B0F874
:1020B000660028494978884214DC2648427826A1DF
:1020C0002C48FEF71FF908F101001FFA80F8B8F557
:1020D000FA7F07DD1D48007A10B926480AF0B2FCE5
:1020E0004FF000082448007858B1012023490860C7
:1020F000701C86B2192E04D1002008601E49087099
:102100000026681C85B2322D06D100200C49083902
:10211000086001201A494870642D07D10120084940
:1021200008390860002016494870002502A80021DF
:102130000A230A46CDE90010084602F067FD94E73D
:10214000A8824042008041428C82414298C30020D4
:102150006808001080000010B5E7C1BFC9D9D3DA04
:10216000B0D9B7D6D6AE25642CC7EBBCB0CAB1B3D4
:10217000E4B5E70084990020960000108C024042EC
:102180006807001010B50A490A4800F01FF968B145
:10219000012240F22661084809F0B8F804490548D0
:1021A00000F03EF80021034800F054F810BD000094
:1021B0002080002070600240004C004070B5002676
:1021C0001349144800F002F908B3012419E000256E
:1021D00009E005EB4500104901EB400030F8140020
:1021E0000644681CC5B21E2DF3DB1E20B6FBF0F0C2
:1021F0001421B0FBF1F0094921F814000026601CFD
:10220000C4B2032CE3DB0249024800F009F870BDB8
:102210002080001010640240889A00208A0000107C
:102220000246094B9A4201D2084801E0064810389C
:1022300001F000531BB1064B0B40C36002E0044B9E
:102240000B40836070470000106402400060024051
:102250007D0F7D0F21B1026842F00102026003E0B0
:10226000026822F00102026070470000016821F05C
:10227000010101600021016041608160C160016174
:10228000212141614A49884204D13D21484A103AFE
:1022900091608CE046491831884205D14FF4746151
:1022A000434A103A916082E041493031884205D179
:1022B0004FF474113E4A103A916078E03C4948313D
:1022C000884205D14FF07461394A103A91606EE04E
:1022D00037496031884204D13649354A103AD160D5
:1022E00065E033497831884204D13349304A103AA5
:1022F000D1605CE02E499031884204D12F492C4AAC
:10230000103AD16053E02A49A831884205D14FF0F4
:102310003D51274A103AD16049E02949884204D109
:102320003D21274A083A116041E025491831884289
:1023300005D14FF47461224A083A116037E0204910
:102340003031884205D14FF474111D4A083A1160AA
:102350002DE01B494831884205D14FF07461184A7D
:10236000083A116023E016496031884204D11149CE
:10237000134A121F11601AE011497831884204D1C2
:102380000D490F4A121F116011E00D49903188422A
:1023900004D10A490A4A121F116008E00849A8310D
:1023A000884204D14FF03D51054A121F1160704719
:1023B000106002403D000020400F002000003D2042
:1023C000106402400146486880B2704770B502460A
:1023D000002000240025124EB24201D2114B01E030
:1023E0000F4B103B104E0E4036B11E2606EAD1248C
:1023F000166806EA040502E0566906F0800501F059
:1024000000560EB15C6800E01C68084E344004EAD7
:10241000010616B10DB1012000E0002070BD0000E2
:1024200010640240006002403C0F3C0F7D0F7D0FA6
:1024300010B501F080034BB122B1436943F0800332
:10244000436103E0436923F08003436180290BD09B
:102450002AB1036801F01E042343036004E003680B
:1024600001F01E04A343036010BD000010B500225C
:102470000268134B1A40CC680B6823434C69234312
:102480008C692343CC6923430C6A23434C6A23435E
:102490008C6A23434C6B23438C6B23431A430260A7
:1024A000426922F00702D1E90B3423431A43426107
:1024B0000B6943604B6883608B68C36010BD00008C
:1024C0003F801CF04160704700B58FB04FF0006056
:1024D0000090154801901548029040200390FA2082
:1024E0000490002005904FF4806006900020079033
:1024F00008904FF48070099000200B9003200C90FE
:1025000000040A9000200D900E9069460848FFF7DD
:10251000ADFF00210648FFF79DFE0122102104486F
:10252000FFF786FF0FB000BD044400401204001006
:10253000A060024000B591B00121480506F004F802
:1025400000211F48FFF786FE1D48FFF78FFE4FF062
:10255000006001901B4802901B48039000200490EB
:1025600080200590002006904FF4806007900020A6
:10257000089009904FF480700A9000200C9003207E
:102580000D9000040B9000200E900F9001A90C48B4
:10259000FFF76CFF01210A48FFF75CFE0C208DF865
:1025A000400002208DF8410003208DF842000120F8
:1025B0008DF8430010A801F091F811B000BD0000A3
:1025C00028600240044800400499002000B591B002
:1025D0000121480505F0B8FF00213A48FFF73AFE0F
:1025E0003848FFF743FE4FF00060019036480290F4
:1025F0003648039040200490FA2005900020069071
:102600004FF4806007900020089009904FF480708C
:102610000A9000200C9003200D9000040B900020E5
:102620000E900F9001A92748FFF720FF00212548B1
:10263000FFF710FE012210212248FFF7F9FE0021CA
:1026400020483038FFF706FE1E483038FFF70EFEF0
:102650004FF0006001901C4802901D48039000203C
:102660000490FA200590002006904FF480600790B7
:102670000020089009904FF480700A9000200C9080
:1026800003200D9000040B9000200E900F9001A9E4
:102690000C483038FFF7EAFE01210A483038FFF7CE
:1026A000D9FD0F208DF8400003208DF84100012056
:1026B0008DF842008DF8430010A801F00FF811B01A
:1026C00000BD000070600240044C0040C6BB00200A
:1026D000C0BC002000B58FB00121880505F034FF93
:1026E00000211948FFF7B6FD1748FFF7BFFD00208E
:1026F00000901648019016480290002003905A203E
:102700000490002005904FF48060069040000790F0
:102710000890C010099000200B9003200C9000043A
:102720000A9000200D900E9069460748FFF79EFE24
:10273000012210210448FFF77BFE01210248FFF728
:1027400089FD0FB000BD0000106402404C20014024
:10275000889A002070470000014908607047000017
:102760005800002070B54548B0F89C0000287CDD7A
:102770004248B0F89C00002827DD4048B0F89C0093
:102780003E49B1F89E1088421FD03C48B0F89E40A8
:1027900016E0002510E004EB8400394901EB40000D
:1027A00030F81510601E00EB8000354A02EB400047
:1027B00020F81510681C85B2052DECDB601C84B276
:1027C0002E48B0F89C00A042E3DC2C48B0F89C00F6
:1027D000401E2A49A1F89C000846B0F89C0018B990
:1027E0000020A1F89E000FE02448B0F89C00401C97
:1027F0002249B1F89E10884206D12048B0F89E00C8
:10280000401E1E49A1F89E00002415E01B4AB2F8A4
:102810009A20521E1B4B4FF4FA7606FB0232052318
:1028200003FB042104EB8402154B03EB4200052259
:1028300009F088FA601C84B21048B0F89C00A042ED
:10284000E4DC0E48B0F89C10B0F89A00401E0E4A26
:1028500022F81010094AB2F89A200C4BD118074AF6
:10286000B2F89A20521E084B00E006E003EB42004B
:10287000012209F067FA08F011FE70BD6808001027
:10288000BEB400208E460F00D6B0002099440F0041
:102890001CB50020009001904B4840884B490880AF
:1028A000084600884A490988401A00900120494991
:1028B00008602DE0454800884549098888420BDDBD
:1028C000009C002C01DB214600E06142424A928AD2
:1028D000514388B20AF042F83C4800883C490988D4
:1028E00088420BDA009C002C01DB214600E06142AB
:1028F000394A928A514388B20AF044F832484088F3
:10290000324908800846008831490988401A0090F9
:102910000098002801DB014600E041420229C9DCA1
:10292000012000F0E8FD022000F0E5FD2648808847
:1029300026494880084640882549C988401A0190A0
:102940002DE0224840882249C98888420BDD019C3D
:10295000002C01DB214600E061421F4A928A51436C
:1029600088B209F0D9FE194840881949C9888842B7
:102970000BDA019C002C01DB214600E06142164A83
:10298000928A514388B209F0DBFE0F4880880F49D4
:102990004880084640880E49C988401A019001982D
:1029A000002801DB014600E041420229C9DC032086
:1029B00000F0A1FD042000F09EFD012007490870F1
:1029C0000020044908601CBD8A000010040000209B
:1029D000509B00208C02404298C300200800002039
:1029E0002DE9FF4F87B0884691469A460024D3468A
:1029F0006FEA0800C5B20026002700BF00208DF84E
:102A000000008DF811008DF8120005908DF8180067
:102A100000240CE045FA04F000F0010028B19DF814
:102A20001200401CC0B28DF81200601CC4B2082C09
:102A3000F0DB00240AE045FA04F000F0010010B9D0
:102A4000701CC6B200E00824601CC4B2082CF2DB83
:102A500000240AE005FA04F000F0800010B9781CA8
:102A6000C7B200E00824601CC4B2082CF2DB344674
:102A700011E045FA04F000F0010050B99DF8001093
:102A80000DF1010044549DF80000401CC0B28DF8C7
:102A90000000601CC4B2C7F10800A042E9DC9DF848
:102AA000000000281FDD01208DF811009DF80000B6
:102AB000012818DD002411E00DF10100611C415CCA
:102AC000005D081A012800D106E09DF81100401CA5
:102AD000C0B28DF8110000BF601CC4B29DF80000A8
:102AE000401EA042E8DC9DF8120018B901208DF8C4
:102AF00018003DE09DF8000000282FDD9DF8110032
:102B0000012835D1BBF1020F10D134460BE045FA54
:102B100004F000F0010018B10120A040854300E05E
:102B20000824601CC4B2082CF1DB67E7BBF1010F7D
:102B300010D13C460BE005FA04F000F0800018B11B
:102B400080202041854300E00824601CC4B2082C8A
:102B5000F1DB53E701208DF8180009E09DF8120021
:102B6000484502DCB81B059002E001208DF81800F2
:102B70001C2269460548FDF73FFD1C22694607985F
:102B8000FDF73AFD0BB0BDE8F08F0000BC0500106A
:102B900010B507220749084808F048FC64230022C2
:102BA0001146104609F0CAFC07220249024808F003
:102BB0003DFC10BD0000001000480040F0B50A4682
:102BC00000210023002400BF3DE0012505FA01F3A8
:102BD000156805EA03049C4234D105684F000326BA
:102BE000BE40B543056015794E00B54006683543D3
:102BF00005601579012D02D01579022D16D1856851
:102C00004F000326BE40B543856055794E00B54060
:102C1000866835438560456801268E40B54345602A
:102C2000456896798E40B6B235434560C5684F0019
:102C30000326BE40B543C560D5794E00B540C66891
:102C40003543C560491C1029BFD3F0BDF0B5002342
:102C500000244D07ED0E02FA05F3CE1000F1200519
:102C600055F826504E07F70E0F26BE40B543CF103D
:102C700000F1200646F82750CE1000F1200555F847
:102C8000265045EA0304CE1000F1200545F8264001
:102C9000F0BD4183704701837047000010B5652285
:102CA0000021024808F0C4FF10BD00005C9C002019
:102CB00070B50024344AB2F89A20344BD118324A05
:102CC000B2F89A20521E324B03EB4200012208F068
:102CD000AFFF2D48B0F89A00401E2D4931F8100082
:102CE0002949A1F89C000120A1F89E000846B0F8EF
:102CF0009C00642804DD0020A1F89C00A1F89E003F
:102D0000002415E0204AB2F89A20521E214B4FF4BD
:102D1000FA7505FB0232052303FB042104EB840250
:102D20001D4B03EB4200052208F082FF601C84B2B9
:102D30001548B0F89C00A042E4DC1348B0F89E00AF
:102D4000401E00EB8000144931F810000E49A1F834
:102D5000A0000846B0F89E00401E00EB80000E491F
:102D600001EB400040880849A1F8A2000846B0F8ED
:102D70009E00401E00EB8000074901EB4000808868
:102D80000149A1F8A40070BD6808001099440F0023
:102D9000D6B000208E460F00BEB4002070B50446A9
:102DA00000252F4AA118621E2E4B03EB4200012280
:102DB00008F03EFF601E2B4931F810002A49A1F8A7
:102DC0009C000120A1F89E000846B0F89C006428F1
:102DD00004DD0020A1F89C00A1F89E00002512E06F
:102DE000621E224B4FF4FA7606FB0232052303FBE8
:102DF000052105EB85021E4B03EB4200052208F07E
:102E000017FF681C85B21848B0F89C00A842E7DCA0
:102E10001548B0F89E00401E00EB8000144931F8C0
:102E200010001149A1F8A0000846B0F89E00401E0D
:102E300000EB80000E4901EB400040880A49A1F8F0
:102E4000A2000846B0F89E00401E00EB8000084932
:102E500001EB400080880449A1F8A40070BD000087
:102E600099440F00D6B00020680800108E460F006D
:102E7000BEB4002010B50446064AA118621E064BD7
:102E800003EB4200012208F0D3FE601E024931F834
:102E9000100010BD99440F00D6B0002070B5054653
:102EA000284600F025F80F490887002412E06A1E22
:102EB0004FF4FA635A4302F25922142303FB04210C
:102EC00004EB8402084B03EBC200142208F0B0FEAE
:102ED000601C84B2681E054931F81000A042E6DC8F
:102EE00070BD0000680800100EA10020269D002083
:102EF00010B5044604F16401621E0B4B03EB420063
:102F0000012208F095FE601E074931F81000642880
:102F100004DD0021601E044A22F81010601E0249E0
:102F200031F8100010BD0000269D002000BFFEE714
:102F300070B50446144806880088401C1249088071
:102F40004FF480611148FDF789FB30120F4908707A
:102F50004E700F480088001288700D480078C870C5
:102F600000200871201248718C7107210748FEF774
:102F700089FE054628120549C8710D7209210348CA
:102F800007F03AFB70BD000064000020B00B012088
:102F90004C0000202DE9F047074688460024002613
:102FA00000253846FDF7C4FA1FFA80F900BF2CE06F
:102FB0007C5D681C3E5C302C05DB392C03DCA4F105
:102FC000300084B206E0412C04DB462C02DCA4F184
:102FD000370084B2302E05DB392E03DCA6F1300039
:102FE00086B206E0412E04DB462E02DCA6F1370055
:102FF00086B206EB0411284605EBD072521008F891
:103000000210681C85B2681C85B24D45D0DBBDE856
:10301000F087000010B50E48B0F8B200022805D1C4
:10302000FFF746FE0B480088094908860849088EC4
:10303000FFF75EFF064908870020A1F80401088E0B
:10304000FFF72CFF044840890149A1F8B40010BDE6
:1030500068080010BEB400200EA100200A490988AB
:10306000B1F5006F08DA08490A880988491C064B3F
:1030700019800649885406E005490A7802490988FA
:10308000491E024B5A54704750000020B0CB00201C
:103090005D00002010B501461B4A1268521A1A4BF7
:1030A0009A601A469268DB68D21A00EE102AB8EECF
:1030B000C00A154AD2ED050A20EE200A92ED061A42
:1030C000D2ED020AF8EEE00A01EE200A92680E4BF9
:1030D000DB68022404FB13220B4B1B691A4400EE2D
:1030E000902AF8EEE00A084A92ED071A01EE200A4B
:1030F000BDEEC00A10EE100AD268034B1A611A46E0
:103100009268DA6010BD00000C05001010B5014691
:103110001B4A1268521A1A4B9A601A469268DB6868
:10312000D21A00EE102AB8EEC00A154AD2ED050AEE
:1031300020EE200A92ED061AD2ED020AF8EEE00A1D
:1031400001EE200A92680E4BDB68022404FB132276
:103150000B4B1B691A4400EE902AF8EEE00A084A6D
:1031600092ED071A01EE200ABDEEC00A10EE100A19
:10317000D268034B1A611A469268DA6010BD0000EB
:103180002C05001001490880704700004C00002009
:1031900070B53C48B0F89C10B0F89A00401E3A4A0E
:1031A00022F81010374AB2F89A20384BD118354A15
:1031B000B2F89A20521E344B03EB4200012208F071
:1031C000C1FD3048B0F89C4017E0002511E0A01E7A
:1031D00000EB80002E4901EB400030F81510601E16
:1031E00000EB80002A4A02EB400020F81510681C12
:1031F00085B2052DEBDB601E84B22248B0F89E003C
:10320000A042E2DD1F48B0F8A010B0F89E00401EBA
:1032100000EB80001E4A22F810101A48B0F8A210E5
:10322000B0F89E00401E00EB800002EB40004180A1
:103230001448B0F8A410B0F89E00401E00EB8000C7
:1032400002EB40008180002415E00E4AB2F89A207B
:10325000521E104B4FF4FA7606FB0232052303FB95
:10326000042104EB84020A4B03EB4200052208F020
:1032700069FD601C84B20348B0F89C00A042E4DC05
:1032800070BD000068080010D6B0002099440F00FF
:10329000BEB400208E460F001CB50121022005F0AF
:1032A00053F90121102005F04FF94FF440700090C0
:1032B00001208DF8040000208DF8060003208DF811
:1032C000050001208DF8070069460F48FFF776FCDE
:1032D0004FF440710C48FFF7DEFC03200090012002
:1032E0008DF8040000208DF8060003208DF80500FD
:1032F00001208DF8070069460448FFF75FFC0321B1
:103300000248FFF7C8FC1CBD000402400010024048
:1033100070B504460D46012C06D0022C09D0032CB2
:103320000CD0042C14D10EE02946012000F000F945
:103330000FE02946022000F02DF90AE0294603207B
:1033400000F0F6F805E02946042000F023F900E03B
:1033500000BF00BF70BD70B504460D46012C06D0FD
:10336000022C09D0032C0CD0042C14D10EE02946D9
:10337000012000F00FF90FE02946022000F0D8F8F4
:103380000AE02946032000F005F905E0294604205B
:1033900000F0CEF800E000BF00BF70BD00BF53E0FA
:1033A0002A480078002849D02948007800283ED0D3
:1033B0002848C088322827DD2648007920B32648CF
:1033C0008079C0B1002025490870254A92ED0C1A79
:1033D000F0EE410A92ED0B1ABCEEC11A11EE102A62
:1033E00091B21F4A92ED0A1AB0EE410A194AD088EA
:1033F00004F052FE28E0002000F07DF81748007825
:1034000010BBFFF745FA1FE0002000F074F81348E6
:10341000007808B9FFF73CFA0F48007918B9002086
:103420000D49887110E001200B4988710CE01423CC
:1034300000221146104609F081F805E0142300220D
:103440001146104609F07AF8AAE70000B50000100E
:10345000020000209C000010130000200800002043
:1034600098C3002000BFFEE730B505460C46224653
:103470000021284600F001F830BD2DE9F041054655
:103480000B4694460027002402E03F021F43641CC1
:10349000042CFAD3604605F00306294646B13446AB
:1034A00003E001F8013B401E641C08B1042CF8D372
:1034B0000A4601E080C2001F0428FBD2114602E048
:1034C00001F8013B401E0028FAD1BDE8F08110B59B
:1034D000642301220021084609F030F8FDF728FB9B
:1034E000FDF738FBFDF772FB64230122002108463B
:1034F00009F024F810BD10B50446002C06DD052C9B
:1035000004DA00212046FDF79DFB10E07CB9002184
:103510000120FDF797FB00210220FDF793FB00211E
:103520000320FDF78FFB00210420FDF78BFB10BD6E
:1035300070B505460C46002604B908E01448008B17
:10354000A04203D21248008B464200E06642012DA1
:1035500006D0022D09D0032D0CD0042D14D10EE07D
:1035600031460120FDF76EFB0FE031460220FDF7EA
:1035700069FB0AE031460320FDF764FB05E03146B4
:103580000420FDF75FFB00E000BF00BF70BD00003E
:1035900098C3002070B504460D461348008BA8421E
:1035A00001D21148058B012C06D0022C09D0032C26
:1035B0000CD0042C14D10EE029460120FDF742FB6B
:1035C0000FE029460220FDF73DFB0AE029460320D3
:1035D000FDF738FB05E029460420FDF733FB00E04A
:1035E00000BF00BF70BD000098C30020704708B541
:1035F0000A208DF8000000208DF8010001208DF8D0
:1036000002008DF80300684600F068F817208DF876
:10361000000000208DF8010002208DF8020001203A
:103620008DF80300684600F059F828208DF8000056
:1036300000208DF8010003208DF8020001208DF894
:103640000300684600F04AF834208DF8000001209D
:103650008DF8010000208DF8020001208DF8030094
:10366000684600F03BF826208DF8000002208DF817
:10367000010000208DF8020001208DF8030068464B
:1036800000F02CF838208DF8000000208DF80100A3
:103690008DF8020001208DF80300684600F01EF846
:1036A00027208DF8000002208DF801008DF802001F
:1036B00001208DF80300684600F010F847208DF8CF
:1036C000000003208DF8010002208DF80200012087
:1036D0008DF80300684600F001F808BD70B50021C0
:1036E00000230F22C4781CB3174C246804F4E06450
:1036F000C4F5E064C4F30721C1F10404E3B20A4154
:1037000044789C40E1B28478144021430C07210E98
:103710000E4C05786155047804F01F050124AC4077
:1037200005786D11AD0005F1E025C5F8004109E00F
:10373000047804F01F050124AC40054D067876118D
:1037400045F8264070BD00000CED00E000E400E00C
:1037500080E100E002490143024A11607047000025
:103760000000FA050CED00E0154816481648174809
:10377000174818481848194819481A481A481B4841
:103780001B481C481C481D481D481E481E481F4811
:103790001F482048204821482148224822482348E1
:1037A00023482448244825482548264826482748B1
:1037B0002748284828482948294800BF7047000062
:1037C000A4D0000804D0000808D000080CD00008DD
:1037D00010D0000814D0000818D000081CD0000831
:1037E00020D0000824D0000828D000082CD00008E1
:1037F00030D0000834D0000838D000083CD0000891
:1038000040D0000844D0000848D000084CD0000840
:1038100050D0000854D0000858D000085CD00008F0
:1038200060D0000864D0000868D000086CD00008A0
:1038300070D0000874D0000878D000087CD0000850
:1038400080D0000884D0000888D000088CD0000800
:1038500090D0000894D0000898D000089CD00008B0
:10386000A0D0000810B50348006810B101480068F6
:10387000804710BD4802001070B5044600F0C2F841
:10388000002048490870484908704849087048496C
:103890000860484908604849087048490870484924
:1038A0000870484908604849086048490860484924
:1038B0000870484800680A21B0FBF1F046490860EA
:1038C0004648006858B14648056845B1434806680F
:1038D00003E0761E002028602D1D002EF9D1002067
:1038E0004049086040490860404908604049086014
:1038F00040490860404908604049086040490870F4
:1039000002F0ECF902F0CCFA204601F07BFB2088B3
:1039100000B170BD204601F05DFF208800B1F8E7DE
:10392000204601F07FFF208800B1F2E7204602F038
:103930004BF8208800B1ECE7204602F0FFF9208820
:1039400000B1E6E7204602F01FFC208800B1E0E766
:10395000204602F041FF208800B1DAE7204601F05E
:10396000A5FE208800B1D4E7204601F0BDFC2088E8
:1039700000B1CEE7204603F09FFE208800B1C8E7E3
:10398000204602F06DFE208800B1C2E7204603F019
:10399000EFFE208800B1BCE701F05CFAFFF7E4FE1F
:1039A00000BFB6E75C0200105D020010A402001028
:1039B000FC020010000300108A0200108B020010AD
:1039C0008C020010980200109C020010A00200104F
:1039D000AC02001064D00008A802001034D0000827
:1039E00030D000083C0200104002001044020010D9
:1039F000480200104C020010500200105402001047
:103A0000DA020010064800680649096800EB8100E8
:103A1000054908600846006820F007000860704704
:103A200030D0000834D000080403001008480078A3
:103A3000012800D0704707480078FA2800DBF9E732
:103A400004480078401C0349087000BFF2E70000FA
:103A50005D0200105C02001010B500242D480078B3
:103A6000012800D010BD00BFFCF734FC044600BFA5
:103A70002948007828B900BF2046FCF72FFC00BF7A
:103A8000F0E725480078401E234908700846007872
:103A9000002805DD00BF2046FCF720FC00BFE1E761
:103AA0001E480078002805DD00BF2046FCF716FC04
:103AB00000BFD7E702F0FEF8194908700846007801
:103AC00000EB4000174951F82000174908600846EC
:103AD000006816490968884205D100BF2046FCF7F6
:103AE000FDFB00BFBEE710480068D0F89000401C06
:103AF0000D490968C1F890000D480068401C0C4948
:103B00000860FCF7B7FE00BF2046FCF7E7FB00BFEC
:103B100000BFA7E75D0200105C020010A4020010C5
:103B20008B02001064C5002000030010FC0200108E
:103B3000D002001010B500241F480078002800DDD6
:103B400010BD1E480078002800DDF9E700BFFCF733
:103B5000C1FB044600BF02F0ADF8194908700846E1
:103B6000007800EB4000174951F820001649086022
:103B70000846006815490968884205D100BF2046FB
:103B8000FCF7ACFB00BFDBE70F480068D0F8900003
:103B9000401C0D490968C1F890000D480068401CA0
:103BA0000B490860FCF761FE00BF2046FCF796FB5E
:103BB00000BF00BFC4E700005C020010A4020010B8
:103BC0008B02001064C5002000030010FC020010EE
:103BD000D002001070B5044600251848007800286F
:103BE00003DD46F66250208070BD1548007801283C
:103BF00003D045F689602080F6E712480078FA285D
:103C000003DB45F209202080EEE700BF00BFFCF790
:103C100061FB054600BF00BF0A480078401C094907
:103C2000087002F01DFA00BF00BF2846FCF756FBE3
:103C300000BF00BF0020208000BFD5E75C0200105D
:103C40005D020010A40200102DE9F04105460C466B
:103C50001646002700BF00BFFCF73CFB074600BF2D
:103C600000BF012D03D000200D49087002E00120A3
:103C70000B49087014B10B48046006E00A4800685C
:103C80000A21B0FBF1F00749086000BF00BF3846C9
:103C9000FCF724FB00BF00BF00203080BDE8F081AE
:103CA000AC020010A802001064D0000870B50446F1
:103CB000002520480078002803DD46F66550208066
:103CC00070BD1D480078012803D045F6896020802A
:103CD000F6E71A48007818B946F664502080EFE7F6
:103CE00000BF00BFFCF7F6FA054600BF00BF13484F
:103CF0000078401E114908700846007800280ADD47
:103D000000BF00BF2846FCF7E9FA00BF00BF46F637
:103D100063502080D4E702F0B1F900BF00BF28460D
:103D2000FCF7DCFA00BF00BFFFF704FF0020208093
:103D300000BFC5E75C0200105D020010A402001085
:103D400010B5044612480078E8B901F0B3FF1149F4
:103D5000087008460078104908700E48007800EB9B
:103D600040000E4951F820000D49086008460068DF
:103D70000C490860012006490870FCF765FD43F610
:103D80009920208002E045F68A60208010BD000066
:103D90005D0200108B0200108A02001064C5002032
:103DA00000030010FC0200102DE9F04107464FF01F
:103DB000000800BF00BFFCF78DFA804600BF00BFBF
:103DC00000203D4908603D4908803D4908803D4943
:103DD00008603D4908603D4908603D4908603D492B
:103DE000088100BF00BF4046FCF778FA00BF00BF63
:103DF00000BF00BFFCF76EFA804600BF00BF364828
:103E0000046800BF00BF4046FCF768FA00BF00BF6F
:103E100021E000BF00BFFCF75DFA804600BF00BF95
:103E200000207834E06320602063A061A082E082FB
:103E30006062A062FDF720FF2062783C04F1640616
:103E40000020B081D4F8BC4000BF00BF4046FCF762
:103E500045FA00BF00BF002CDBD100BF00BFFCF75C
:103E600039FA804600BF00BF1C48056800BF00BF8C
:103E70004046FCF733FA00BF00BF12E000BF00BFAE
:103E8000FCF728FA804600BF00BF05F1200600209D
:103E9000B081AD6900BF00BF4046FCF71FFA00BF0C
:103EA00000BF002DEAD103F0E3FA03F05DFD00202E
:103EB0003880BDE8F0810000700200106A02001036
:103EC000BA020010CC020010E0020010EC02001058
:103ED0009C02001058C50020D4020010900200106F
:103EE000F8B5044600266946324800F08FFDBDF85B
:103EF000000018B1BDF800002080F8BD6A4600211E
:103F0000022000F0F7FDBDF8000018B1BDF8000078
:103F10002080F2E700BF00BFFCF7DCF9064600BFD7
:103F200000BF00202449086000BF00BF3046FCF7F6
:103F3000D5F900BF00BF0025204800682049096866
:103F4000884205D91D4800681D490968B0FBF1F594
:103F500025B91A4800680A21B0FBF1F56A4600212C
:103F6000284600F0C7FD6946124800F063FABDF824
:103F7000000018B1BDF800002080BEE700BF00BF00
:103F8000FCF7A8F9064600BF00BF00200D490860F5
:103F9000094800680C49086001200C49087000BFFE
:103FA00000BF3046FCF79AF900BF00BF0020208018
:103FB00000BFA2E7ECC90020BC02001064D00008DA
:103FC0004CD00008CC020010C0020010C802001043
:103FD00010B50348006810B101480068804710BD63
:103FE0004C0200102DE9FF4F87B004469046DDE9F2
:103FF0001BA5DDE91496179F0020039087480078E1
:10400000002805DD47F24A1028800BB0BDE8F08F8C
:104010001CB947F2AD102880F7E7B8F1000F03D1C3
:1040200047F24F102880F0E71EB946F62F6028802F
:10403000EBE77B480068874203D246F63060288071
:10404000E3E71698B84203D346F631602880DCE7F0
:10405000B9F1400F03D346F273202880D5E7B9F1B8
:10406000000F06D16F48844203D046F273202880A7
:10407000CBE7B9F13F0F06D16B48844203D046F23B
:1040800073202880C1E7204602F0B6FB002028807C
:104090000AF0010090B10AF0020078B10596002004
:1040A000069008E00021059801600598001D059024
:1040B0000698401C06900698B842F3D3169806EB73
:1040C00080000490CDE9007A32464046049B0A996C
:1040D00000F06EFB0590C4F828800A98E06208980A
:1040E000206284F83790059820600498A0601998A1
:1040F0006065199818B94D480068A06501E01998E5
:10410000A0651A9860606662A763A4F83CA04FF0AF
:10411000000B08E0002104F17C0040F82B100BF1AB
:10412000010000F0FF0BBBF1000FF3D004F16400BD
:10413000189901F0C3FB204600F082F800BF00BFD1
:1041400000BFFCF7C7F8039000BF00BF38480078F5
:10415000401C3749087000BF00BF0398FCF7BEF849
:1041600000BF00BF00BF94F8370001F0C3FD204638
:1041700001F0DEFE204602F0F5FA2E480088401CD1
:104180002C4908802C48007801282DD000BF00BFA2
:1041900000BFFCF79FF8039000BF00BF24480078E1
:1041A000401E2349087008460078A0B923480088BB
:1041B000002809DD00BF00BF0398FCF78FF800BF9F
:1041C00000BF01F023FF0DE000BF00BF0398FCF724
:1041D00085F800BF06E000BF00BF0398FCF77EF83B
:1041E00000BF00BF00BF10E700BF00BF00BFFCF76B
:1041F00071F8039000BF00BF0D480078401E0C49C5
:10420000087000BF00BF0398FCF768F800BF00BF4C
:1042100000BFFFF78FFC00BFF7E600005C02001054
:1042200060D0000894C40020D0C30020A802001071
:10423000A4020010D80200105D02001068020010F5
:1042400010B504460348006818B1204601490968C2
:10425000884710BD3C02001070B504460D4600268C
:1042600067480078002803DD47F24E10288070BDB3
:104270006448844203D147F24C102880F7E7624833
:10428000844203D147F24D102880F0E77CB900BF8B
:1042900000BFFCF71FF8064600BF00BF5B4804687C
:1042A00000BF00BF3046FCF719F800BF00BF00BFD9
:1042B00000BF00BFFCF70EF8064600BF00BF544821
:1042C0000078401C5249087000BF00BF3046FCF720
:1042D00005F800BF00BF00BF94F8360008282DD2B3
:1042E000DFE800F004090E10080A0F11204601F063
:1042F0005FFE54E053E000BF204603F09DF84EE01F
:1043000000BF00BF00BF204603F096F894F83400C9
:10431000082810D2DFE800F004070508090A0B0698
:1043200000BF00BF08E000BF00BF00BF00BF2046C5
:1043300001F011FC00E000BF00BF30E000BF00BF93
:1043400000BFFBF7C7FF064600BF00BF304800783C
:10435000401E2F49087008460078A0B92D480088F3
:10436000002809DD00BF00BF3046FBF7B7FF00BFE4
:1043700000BF01F04BFE0DE000BF00BF3046FBF771
:10438000ADFF00BF06E000BF00BF3046FBF7A6FF51
:1043900000BF00BF00BF46F62D60288067E700BF62
:1043A00004F1640001F068FA204600F037F8204676
:1043B00002F0F0F918480088401E1749088020468E
:1043C00002F01AFAFF2084F8360000BF00BF00BFD9
:1043D000FBF780FF064600BF00BF0D480078401E77
:1043E0000B49087000BF00BF3046FBF777FF00BFE6
:1043F00000BF00BF00202880FFF79CFB00BF36E70E
:104400005C020010D0C3002094C40020FC02001005
:10441000A402001068020010D802001010B5044673
:104420000348006818B1204601490968884710BD53
:10443000400200107FB504460D46002600BF00BFB5
:10444000FBF748FF064600BF00BF1CB115480068D7
:1044500084420AD100BF00BF3046FBF73FFF00BFD8
:1044600000BF47F2571028807FBD00BF00BF304615
:10447000FBF734FF00BF00BF0B48007800280BDDBE
:10448000002000900190034602462146CDE9020536
:10449000064800F061FFE7E72946204602F024FBCA
:1044A00000BFE1E7FC0200105C02001054524553CB
:1044B00010B504460348006818B120460149096850
:1044C000884710BD440200102DE9F04780460E4693
:1044D00014461D464FF000097D480078002805DD90
:1044E00046F2AE1028800020BDE8F0871EB1B6F578
:1044F000004F02D100E000BF04E045F625602880AF
:104500000020F1E700BF0CB10020206000BF00BF19
:10451000FBF7E0FE814600BF00BF6E480068406CBC
:10452000A8B36C480068406C401E6A49096848643A
:1045300068480068476C1CB166480068006C2060E1
:10454000FDF79AFB63490968096C401A61490968DB
:10455000C1F8A4005F480068D0F8A8005D49096868
:10456000D1F8A410884207D25A480068D0F8A400B5
:1045700058490968C1F8A80000BF00BF4846FBF7CA
:10458000ADFE00BF00BF002028803846ACE7FFE743
:1045900006F4004058B100BF00BF4846FBF79EFE3E
:1045A00000BF00BF46F2B010288000209CE74A48B8
:1045B000007800280BDD00BF00BF4846FBF78EFEE9
:1045C00000BF00BF46F66350288000208CE700BF84
:1045D00041480078401C4049087000BF00BF484671
:1045E000FBF77CFE00BF00BF00BF4346072200214F
:1045F000084601F0F5F900BF00BF00BFFBF76AFEF7
:10460000814600BF00BF34480078401E3249087020
:1046100000BF00BF4846FBF761FE00BF00BF00BF00
:10462000FFF788FA00BF00BFFBF754FE814600BFCA
:1046300000BF2848006890F8350020B1012826D036
:10464000032834D12CE0FCB122480068006C2060C3
:10465000FDF712FB1F490968096C401A1D490968DA
:10466000C1F8A4001B480068D0F8A80019490968DF
:10467000D1F8A410884207D216480068D0F8A400E8
:1046800014490968C1F8A8000020288013E01CB173
:1046900010480068006C206046F2A91028800AE0EB
:1046A0000CB10020206047F2D920288003E046F6B4
:1046B0002E60288000BF00BF06480068476C00BF1E
:1046C00000BF4846FBF70AFE00BF00BF38460BE7B5
:1046D0005C020010FC020010A40200102DE9F0475B
:1046E00005460E4617461C464FF0000A2E48007835
:1046F000002804DD47F259102080BDE8F0871EB97C
:1047000046F2D5202080F8E71FB946F2D520208058
:10471000F3E700BF00BFFBF7DDFD824600BF00BF2F
:104720000DB922480568286868B900BF00BF504627
:10473000FBF7D4FD00BF00BF00203060386047F2B7
:1047400052102080D9E795F83C0000F0010068B9CC
:1047500000BF00BF5046FBF7C1FD00BF00BF0020F7
:104760003060386047F254102080C6E700BF00BFB9
:104770005046FBF7B3FD00BF00BF4FF00008D5F86F
:10478000249003E009F1040908F10108D9F80000B8
:104790000028F7D0C6F80080A86BA0EB08003860AE
:1047A0000020208000BFA8E75C020010FC0200107F
:1047B000F0B50446DDE9055602EB850020F0070060
:1047C0004FF0000C071F3846C7F800C04FF4805C5C
:1047D000071F3846C7F800C04FF0150C071F3846B2
:1047E000C7F800C04FF0140C071F3846C7F800C0C8
:1047F0004FF0130C071F3846C7F800C04FF0120CDB
:10480000071F3846C7F800C04FF0110C071F384685
:10481000C7F800C04FF0100C071F3846C7F800C09B
:104820004FF0090C071F3846C7F800C04FF0080CBE
:10483000071F3846C7F800C04FF0070C071F38465F
:10484000C7F800C04FF0060C071F3846C7F800C075
:104850004FF0050C071F3846C7F800C04FF0040C96
:10486000071F3846C7F800C04FF0030C071F384633
:10487000C7F800C04FF0020C071F3846C7F800C049
:104880004FF0010C071F3846C7F800C04FF0000C6E
:10489000071F3846C7F800C04FF0807C071F384616
:1048A000C7F800C0071F38463C60DFF85CC1071F2F
:1048B0003846C7F800C04FF0123C071F3846C7F80B
:1048C00000C04FF0033C071F3846C7F800C04FF048
:1048D000023C071F3846C7F800C0071F38463B6038
:1048E000071F384639604FF0310C071F3846C7F8AC
:1048F00000C04FF0300C071F3846C7F800C04FF01B
:10490000290C071F3846C7F800C04FF0280C071FB6
:104910003846C7F800C04FF0270C071F3846C7F8C5
:1049200000C04FF0260C071F3846C7F800C04FF0F4
:10493000250C071F3846C7F800C04FF0240C071F8E
:104940003846C7F800C04FF0230C071F3846C7F899
:1049500000C04FF0220C071F3846C7F800C04FF0C8
:10496000210C071F3846C7F800C04FF0200C071F66
:104970003846C7F800C04FF0190C071F3846C7F873
:1049800000C04FF0180C071F3846C7F800C04FF0A2
:10499000170C071F3846C7F800C04FF0160C071F4A
:1049A0003846C7F800C04FF0113C071F3846C7F81B
:1049B00000C04FF0103C071F3846C7F800C04FF04A
:1049C000093C071F3846C7F800C04FF0083C071FD6
:1049D0003846C7F800C04FF0073C071F3846C7F8F5
:1049E00000C04FF0063C071F3846C7F800C04FF024
:1049F000053C071F3846C7F800C04FF0043C071FAE
:104A00003846C7F800C0F0BD296C00087FB50546E0
:104A10000C461248854203D147F25B1020807FBDCF
:104A20000F48854203D147F25C102080F7E70D481C
:104A3000007800280BDD002000900190034602461C
:104A40002946CDE90204084800F086FCE7E7214644
:104A5000284602F057FB00BFE1E70000D0C300206A
:104A600094C400205C0200105453555310B51D48E7
:104A7000006810B11B4800688047FDF7FDF8044648
:104A80001948006819490968884215D01648006815
:104A9000D0F89800201A14490968C1F89400124807
:104AA0000068D0F89C0010490968D1F894100844B7
:104AB0000D490968C1F89C000C480068C0F898408E
:104AC00009480068D0F8B40009490968884205D24D
:104AD0000748006804490968C1F8B4000020044987
:104AE000086010BD50020010FC020010000300100E
:104AF000A00200102DE9F04105460E46144600279D
:104B00003F480078002804DD47F275202080BDE88A
:104B1000F0813C480078002803DD46F66350208091
:104B2000F5E736B1022E05D0042E0AD0082E09D1A1
:104B300001E000BF00BF1DB947F27E202080E6E7FC
:104B400004E003E045F625602080E0E700BF00BFF9
:104B500000BF00BFFBF7BEFB074600BF00BF2948F0
:104B60000078401C2749087000BF00BF3846FBF79B
:104B7000B5FB00BF00BF00BF01202349096881F8D1
:104B800036002346324629461F48006802F076FB6D
:104B90002088A8B100BF00BF00BFFBF79BFB074602
:104BA00000BF00BF17480078401E1649087000BFBC
:104BB00000BF3846FBF792FB00BF00BF00BFA6E76F
:104BC0001148006801F0F4F900BF00BF00BFFBF717
:104BD00081FB074600BF00BF0A480078401E094914
:104BE000087000BF00BF3846FBF778FB00BF00BF6E
:104BF00000BFFEF79FFF0020208000BF87E7000076
:104C00005C020010A4020010FC0200102DE9FF5FFE
:104C100005460E4617469846DDE90EA40020009092
:104C200072480078002804DD47F275202080BDE836
:104C3000FF9F6F480078002803DD46F66350208010
:104C4000F5E70AF00E0BBBF1000F09D0BBF1020F24
:104C500007D0BBF1040F10D0BBF1080F0ED101E05B
:104C600000BF00BFB8F1000F06D12FB926B91DB99A
:104C700047F27E202080DAE704E003E045F6256075
:104C80002080D4E700BF2AF01E0008B1012000E018
:104C9000002003900398012803D145F62560208069
:104CA000C5E7CAF3001002900298C0B9B8F57A7F40
:104CB00003D347F27B202080B9E73B2F03DD47F287
:104CC0007A202080B3E73B2E03DD47F27920208055
:104CD000ADE7632D12DD47F278202080A7E742F28E
:104CE0000F70864203DD47F2792020809FE7B5F5FB
:104CF0007A7F03DB47F27820208098E73D48D0F8A0
:104D000000904FF4FA70B0FBF9F0404400FB09F05A
:104D10004FF47A71B0FBF1F14FF461606843C6EB78
:104D2000061200EB8200384400FB09100190019844
:104D3000002856D000BF00BF00BFFBF7CBFA0090A1
:104D400000BF00BF2A480078401C2949087000BFF6
:104D500000BF0098FBF7C2FA00BF00BF00BF0120F0
:104D60002549096881F8360023465A4622480199A8
:104D7000006802F083FA2088A8B100BF00BF00BF1E
:104D8000FBF7A8FA009000BF00BF19480078401E4A
:104D90001749087000BF00BF0098FBF79FFA00BFDB
:104DA00000BF00BF43E71448006801F001F900BFED
:104DB00000BF00BFFBF78EFA009000BF00BF0C4899
:104DC0000078401E0A49087000BF00BF0098FBF73A
:104DD00085FA00BF00BF00BFFEF7ACFE00202080B8
:104DE00002E047F27E20208000BF20E75C02001036
:104DF000A402001064D00008FC02001010B586B0B8
:104E000000F01EF8FCF738FF044605A800210091C9
:104E1000CDE9011403900748007800EB4000064AF2
:104E200002EB800100231A46044800F095FA06B010
:104E300010BD00008A02001064C500205449434B95
:104E400010B50348006810B101480068804710BDE4
:104E5000540200102448254825482648264827485B
:104E6000274828482848294829482A482A482B48BA
:104E70002B482C482C482D482D482E482E482F488A
:104E80002F4830483048314831483248324833485A
:104E9000334834483448354835483648364837482A
:104EA000374838483848394839483A483A483B48FA
:104EB0003B483C483C483D483D483E483E483F48CA
:104EC0003F4840484048414841484248424843489A
:104ED000434844484448454845484648464847486A
:104EE000474800BF70470000A8D0000810D2000853
:104EF000AAD00008ABD00008ACD00008B0D00008A1
:104F0000B4D00008B1D00008DCD00008DDD0000823
:104F1000DED00008E0D00008E2D00008E4D00008AD
:104F2000E6D00008E8D0000808D100080AD100083F
:104F30000CD100080ED1000810D1000812D10008D1
:104F400014D1000840D1000841D1000842D1000826
:104F500044D1000846D1000847D1000848D10008D4
:104F60004AD100084CD100084ED1000850D10008A9
:104F700052D1000854D1000884D1000885D100081E
:104F800086D1000887D1000888D100088AD100089E
:104F90008CD10008B4D10008B5D10008B6D1000802
:104FA000B7D10008B8D10008BAD10008BCD10008B8
:104FB000C0D10008C1D10008C2D10008C3D1000887
:104FC000C4D10008C5D10008C6D10008C7D1000867
:104FD000C8D10008CAD10008CBD10008CCD1000844
:104FE000CED10008D0D10008D1D10008D4D100081A
:104FF00008D2000809D200080AD200080CD2000822
:105000000ED200080021034A1160034A118001807A
:105010007047000074020010780200102DE9F04F74
:1050200085B00446894692469B46DDF838800020CC
:10503000009000BF00BFFBF74DF9009000BF00BF1C
:10504000BAF1000F0AD0BAF1010F0DD0BAF5004F36
:1050500005D06FF40040504460B906E000BF206AFC
:1050600040EA0900206214E000BF206A20EA09003B
:1050700020620EE000BF00BF0098FBF72FF900BFD1
:1050800000BF45F62560A8F80000002005B0BDE887
:10509000F08F00BFC4F824B004F10800019001981B
:1050A000008958B900BF00BF0098FBF717F900BF8F
:1050B00000BF0020A8F80000206AE7E700BF6148B1
:1050C0000078401C5F49087000BF00BF0098FBF7E4
:1050D00005F900BF00BF00BF01980768BD687FE009
:1050E0007868029095F8880000F00F00039003980C
:1050F000012821D002282ED0042802D0082836D139
:105100000EE0206AD5F8801000EA0106D5F880008C
:10511000B04204D15A463146284600F097F859E08B
:10512000206AD5F8801000EA010626B15A463146B9
:10513000284600F08BF84DE0D5F88000216A20EA7F
:105140000106D5F88000B04204D15A4631462846BF
:1051500000F07CF83EE0D5F88000216A20EA0106E4
:1051600026B15A463146284600F070F832E000BFBA
:1051700000BF00BFFBF7AEF8009000BF00BF314892
:105180000078401E2F49087008460078A0B92E48C4
:105190000088002809DD00BF00BF0098FBF79EF8DB
:1051A00000BF00BF00F032FF0DE000BF00BF00985D
:1051B000FBF794F800BF06E000BF00BF0098FBF7C4
:1051C0008DF800BF00BF00BF43F6FF20A8F8000025
:1051D00000205BE700BF029F0FB1BD6800E0002523
:1051E000002D7FF47DAF00BF00BF00BFFBF772F85A
:1051F000009000BF00BF13480078401E114908709E
:1052000000BF00BF0098FBF769F800BF00BF00BFF8
:105210000AF4004008B9FEF78DFC00BF00BFFBF7A1
:1052200059F8009000BF00BF206A049000BF00BF83
:105230000098FBF753F800BF00BF0020A8F800005B
:10524000049823E7A40200106802001070B5044619
:105250000E46154634342665002060702070E560E7
:10526000A078343C082816D2DFE800F004050809CD
:105270000706101100BF00BF00BF0DE000BF2046B1
:1052800001F024FC002084F8360005E000BF042073
:1052900084F8360000E000BF00BF204600F05BFC51
:1052A00070BD0000002400BF19E000BF00BFFBF785
:1052B00011F8044600BF00BF09480068401C0849B7
:1052C000086008480068401C0649086000BF00BF2D
:1052D0002046FBF703F800BF00BFFEF7C3FAE4E780
:1052E00058020010BC02001010B58AB0044600201D
:1052F0000E4908600B2000210591CDE907040691B5
:1053000008460B4909680B4A12680B4B1B68CDE92C
:105310000132CDE903103F200023084A08A1009084
:105320000C48FEF75FFE0AB010BD000058020010E6
:105330000CD0000808D0000804D00008A5520008CE
:1053400075432F4F532D4949492049646C652054BA
:1053500061736B00D0C300202DE9F84F04460D4661
:1053600016461F46DDE90BABDDF82890DDF83480EA
:105370000020009000BF00BFFAF7ACFF009000BF14
:1053800000BF2B4800882B49098888423EDA28480C
:105390000088401C264908802748008809888842E0
:1053A00003DA234800882449088024480068046000
:1053B00022480068856021480068C6601F48006870
:1053C00007821E480068C0F814901C480068A0F8C6
:1053D00018A01A480068C0F81CB018480068406857
:1053E000164908600120164908811648086048607F
:1053F000002000F07FFC1448007818B112480078B3
:10540000124908700020A8F8000008E01048008841
:10541000401C0F49088044F25360A8F8000000BF08
:1054200000BF0098FAF75AFF00BF00BFBDE8F88F31
:105430006802001018D000086A0200106002001014
:1054400064C5002094C400208A0200108C02001061
:105450006C0200103EB5594800680068584A811A2D
:10546000904279D00FDC5749084400283ED0564975
:105470000844A8B155490844002860D0544908445C
:1054800000286AD13FE053480844002850D05249D0
:105490000844002862D0514908440028F1D110E0A6
:1054A00002A8464D00902D68EB69444D2D682A8B6B
:1054B000424D2D686969414D2D68A868FFF7AEFD22
:1054C0007AE002A93D480068C0693C4DCDE9000181
:1054D0002D682B8B394D2D682A8A384D2D68E96847
:1054E000364D2D68A86800F035FC65E0334B1B682D
:1054F000DA69324B1B68198B304B1B68986802AB1A
:1055000000F04EFE58E002A92C480068C0692B4DFF
:10551000CDE900012D682B8B284D2D682A8A274D57
:105520002D68E968254D2D68A86801F0C9F943E0A8
:1055300022490968886802A901F0D6FA3CE01F4BAD
:105540001B68DA691D4B1B68198B1C4B1B6898681C
:1055500002AB01F075FB2FE007E02CE0174909686A
:10556000886802A901F0CEFD26E01D49097801EB0B
:1055700041011C4A02EB810000F09EFD0F480068CB
:1055800002AB0021C269184801F05AFB17480068B5
:10559000401E164908600846006858B9144800685B
:1055A0000860FCF769FB044602AB22460021114863
:1055B00001F046FB00E000BF00BF3EBD64020010EA
:1055C0005449434BADBAB2BE0DF90BFAF2F8F7FFEE
:1055D0000006F6FF00F7FDF700FFEFFF03FE0FFEEA
:1055E0008C02001064C5002028C90020F8020010B9
:1055F000F4020010ECC90020002700BF4CE0002698
:1056000048E000BF00BFFAF765FE074600BF00BFD5
:105610002248008888B90020214908810860486034
:1056200000F07AFB00BF00BF3846FAF757FE00BF14
:1056300000BFFEF77FFA01262CE000BF00BF38460E
:10564000FAF74CFE00BF00BFFCF716FB0546FFF75C
:1056500001FFFCF711FB441B12480068A04201D275
:105660001048046000BF00BFFAF734FE074600BFD1
:1056700000BF0D48006840680B4908600748008873
:10568000401E0649088000BF00BF3846FAF726FED4
:1056900000BF00BF002EB4D0B1E7000068020010C8
:1056A00064C500207002001064020010F0B589B0DB
:1056B00005460020314908803148006820B944F28D
:1056C0005260288009B0F0BD2E480088022803DA15
:1056D00044F254602880F5E700202B4908602848F0
:1056E00004682646203600270CE028482060002069
:1056F000A060E060208260612083666020342036F4
:10570000781C87B21F4800888742EEDB203C1C488B
:10571000066866601E4806601E48066000201E4936
:1057200008801E4908801E48006818B944F2556078
:105730002880C7E71B4800681B490968884203D2D4
:1057400044F256602880BDE7032000210591CDE991
:105750000705069113480068144A1268104B1B682D
:10576000CDE90301CDE9013200910B46104A11A1A8
:105770001748FEF737FC00BFA4E700006C020010DA
:1057800014D0000818D00008700200104E4F4E458B
:105790006002001064020010680200106A0200102B
:1057A00020D0000828D0000860D0000824D00008CD
:1057B000F955000875432F4F532D49494920495346
:1057C00052205175657565205461736B00000000AF
:1057D00094C400200021034A1160034A1180018013
:1057E000704700007C0200108002001070B5024675
:1057F0000B461046114610315E1EB5B2002408E07B
:105800000160002646600681C66010301031661CBB
:10581000B4B2AC42F4DB0026066046600681C66086
:1058200070BD000010B504461048006818B945F274
:105830001E70208010BD0E48008818B945F21D70FA
:105840002080F7E70A48018808480068FFF7CEFF84
:1058500006480068074908600548008888800020DD
:10586000C8800881208000BFE4E7000044D0000821
:105870003CD0000858C5002010B5014648894B8926
:10588000002B17DD0A680C4B1B6813600A4C4B6831
:1058900023602346DB884C891B1B074CE38023468F
:1058A0009B884C892344044CA38000234B818B812B
:1058B0000B604B6010BD000058C500200181002224
:1058C0004281828102604260704700002DE9F04110
:1058D0000D46DDE90674B0F80AC0B0F80880C4458A
:1058E00005DB46F2935CA4F800C0BDE8F081DFF868
:1058F000D4C0BCF804C0BCF1000F04D145F21D7C3B
:10590000A4F800C0F1E7DFF8BCC0DCF80010DFF855
:10591000B480D1F800C0C8F800C0C446BCF804C0C8
:10592000ACF1010CA8F804C0C446BCF806C00CF1E8
:10593000010CA8F806C0C446BCF808C0B8F8068038
:10594000C44507DADFF87CC0BCF806C0DFF8748015
:10595000A8F808C0B0F80AC0BCF1000F06D1016079
:1059600041604FF0010CA0F80AC017E003F0100CE2
:10597000BCF1000F07D1066831604FF0000CC1F890
:1059800000C0016004E0D0F804C0C1F800C041606C
:10599000B0F80AC00CF1010CA0F80AC0B0F80CC0B5
:1059A000B0F80A80C44503DAB0F80AC0A0F80CC009
:1059B0004D600A81CF604FF0000CA4F800C000BF1A
:1059C00093E7000058C500200021034A1160034AF4
:1059D00011800180704700008402001088020010CE
:1059E0002DE9F04105460C4616461F46154800684D
:1059F00080F8346000201349096881F83500394681
:105A00001048006800F092FE6CB104F10808EC60E8
:105A1000012229460B48006800F016F82946404646
:105A200000F066F806E0002006490968C8870549C5
:105A30000968086303480168204600F019F8BDE8CA
:105A4000F0810000FC02001010B5C2870163002342
:105A50000AE000244C600C600C614C610C83CC614A
:105A6000886020315C1CA3B29342F2DB10BD0000C1
:105A700030B548B14568C1F8C05000F1080422684B
:105A800093681D6AC56113E091F83450022D02D06D
:105A9000072D08D103E007A5C1F8C05007E007A50E
:105AA000C1F8C05003E008A5C1F8C05000BF00BF56
:105AB00030BD00005461736B205100005461736B62
:105AC0002053656D000000002000000030B507A5E0
:105AD000C1F8C05000F1080422681AB193681D6A29
